S078000073616D706C652D617070732F626F6F746C6F616465722D73746F726167652D696E7465726E616C2D73696E676C652F65667233326D673132703333326631303234676C3132352F626F6F746C6F616465722F52656C656173652F4578652F626F6F746C6F616465722D636F6D62696E65642E73333759
S3150FE100000A4880F308880A4800470000000000000C
S3150FE1001000000000000000000000000000000000EA
S3150FE100200000000000000000F805E10F9004002039
S3150FE10030E105E10F10B57249724A01E021B1491E9E
S3150FE100401369DC07FAD411B96FF0020010BD5060E5
S3150FE10050012010601169480702D54FF0FF3010BD3E
S3150FE10060002010BD2DE9F041044610460B46002253
S3150FE10070002B41D06FF001056FF002086049614F27
S3150FE10080A8B994469C4537D254F8040BF8600CF1A5
S3150FE10090010C08203860084601E080B3401E3E6936
S3150FE100A0F607FAD458B338698007EBD523E0EFF3B7
S3150FE100B0108072B694460FE03E6906F01906102ECF
S3150FE100C008BF3E603E693607F6D554F8046BFE600D
S3150FE100D00CF1010C10263E609C45F3D318B962B6BC
S3150FE100E001E021B1491E3869C307FAD401B9424685
S3150FE100F03869810700D52A461046BDE8F0814246A8
S3150FE10100FAE72DE9F0473D4CA56B814600202E0419
S3150FE1011018BF6FF001002DD1374D2E682D68276876
S3150FE1012047F001072760960800271D468A4613E028
S3150FE10130C8F30A08C8F500684FEA9808F01B40456E
S3150FE1014038BF80462A4641465046FFF78BFF0100EE
S3150FE101500CD147440AEB880AB74207D209EB870865
S3150FE101604046FFF767FF0100E2D003E02168490847
S3150FE1017049002160BDE8F08770B5204B9C6B0246C4
S3150FE1018025041F486FF001012CD11B4C266824680A
S3150FE101901D6845F001051D609A6001225A605C6990
S3150FE101A0620704D500F020F84FF0FF3070BD022250
S3150FE101B05A605A69D40710D5002818BF401EF8D1E6
S3150FE101C00BE00028186804D100F00FF86FF0020079
S3150FE101D070BD00F00AF8002070BD5A699407F0D59A
S3150FE101E000F002F8084670BD186840084000186034
S3150FE101F07047002385E7000004300E4008000E40EB
S3150FE10200809698000C000E4010B53B4C41F67131CB
S3150FE10210A1632268520852002260FFF7ADFF226800
S3150FE1022052080146520022600020A063481E804119
S3150FE10230C00F10BD38B58308800705D54FF6FF729D
S3150FE1024042EA0142009204E041F07F4141F47F012D
S3150FE10250009141F67130284CA063042225686D08A0
S3150FE102606D00256069469800FFF7C3FF22685208C3
S3150FE10270520022600021A16332BD2DE9F04105460E
S3150FE102808846144605F0010104F00100014330D11F
S3150FE102906CB3AA0707D538F8021B2846FFF7CAFF42
S3150FE102A038BBAD1CA41E042C1AD3134E41F6713084
S3150FE102B0B063A7083168490849003160BF003A4683
S3150FE102C041462846FFF795FF3168490849003160F5
S3150FE102D000227908B26308EB41087D19E41B40B9A6
S3150FE102E02CB1B8F800102846FFF7A4FF08B9012092
S3150FE102F000E00020BDE8F08108000E40F8B5314876
S3150FE1030001680869CD68846AAC4225D305F51041C9
S3150FE103108C4221D2641B04192B4E2168B1421BD1A9
S3150FE10320E1682A4F4FF0FF3200F056F8B84213D189
S3150FE1033000F040F80ED20268B2420BD18168A26892
S3150FE10340914207D3C1684FF0FF32284600F044F8D7
S3150FE10350B84201D00120F2BD0020F2BDF8B519482F
S3150FE1036000680569C468AE6A361BAE19274604E014
S3150FE103703846FFF749FF07F50067F268101987421C
S3150FE10380F6D329462046FFF778FF90B100F012F831
S3150FE103900CD202680C498A4208D1C1684FF0FF328C
S3150FE103A0204600F019F80949884201D00020F2BD34
S3150FE103B00120F2BD0648074900680918B1F5104F4B
S3150FE103C0704700002800E10F07B0CD5EE320BBDEEA
S3150FE103D02808E10F00F81EF030B50A4B1C6844F00F
S3150FE103E040041C600125084B1D609A605D6002E0C8
S3150FE103F010F8014B9C610A46511E002AF8D1D869C3
S3150FE1040030BD00BFB0400E4000C0014019481A4A46
S3150FE1041001681A4811604023C36001684A03FCD49E
S3150FE10420FFF79CFF0028FBD040F2022000F030F8E6
S3150FE1043000BF10B5124C1348206000F049F812497D
S3150FE104400A68B2F5803F0AD040F20921884218BF07
S3150FE10450B0F5007F03D1FFF751FF00B110BD0B4897
S3150FE104602060016881F3088881F309884068804735
S3150FE10470FEE70000880000208C00002004300E40CB
S3150FE1048008ED00E00000E10F04500E400008E10F17
S3150FE104904FF0005108804FF20F004880094801687C
S3150FE104A021F4E06141F480610160BFF34F8F0649AA
S3150FE104B006480A6802F4E06202430A60BFF34F8F0F
S3150FE104C000BFFDE700500E400CED00E00400FA0519
S3150FE104D04FF000514FF20F024888904201D1088840
S3150FE104E07047002804BF0888012802D140F2022094
S3150FE104F070474FF40070704730B450F8041B79B170
S3150FE105000268436802440830DC0744BFA9F10104DD
S3150FE10510E31852F8045B43F8045B091FF9D1ECE7E2
S3150FE1052030BC704710B5074979441831064C7C4405
S3150FE10530163404E00A68081D114488470146A142B2
S3150FE10540F8D110BD2C0000003C0000004EF688519A
S3150FE10550CEF20001086840F470000860BFF34F8FD8
S3150FE10560BFF36F8F4FF00070E1EE100A7047000096
S3150FE1057089FFFFFF100000009400000080000020BB
S3150FE10580000000000449054808600548026842F486
S3150FE10590700202607047000008ED00E02C00E10FE9
S3150FE105A088ED00E00120C046002801D0FFF7BAFF31
S3150FE105B0AFF300800020AFF30080FFF727FF00F0D5
S3150FE105C000F800F001B800000746384600F002F8DF
S3150FE105D0FBE700002021090326311820ABBEF9E71E
S3150FE105E00248804702488047024800478505E10FE8
S3150FE105F03304E10F1D06E10FAD1007B00100000056
S3150FE10600000007010008E10F0080000000F0490239
S3150FE1061000800000C0EA2101C0EA2101AFF30080AA
S30D0FE10620FFF794FFFFF7BEFFA0
S3150FE10800801000208533E10F3B13E10F2909E10F3A
S3150FE108107F1DE10F871DE10F272CE10F000000007F
S3150FE1082000000000000000004008E10F5B2CE10F23
S3150FE10830DF2DE10F00000000072EE10F4733E10F37
S3150FE1084007B0CD5E0100000000000701AC2B0000F0
S3150FE108500000000000001000F0000100D10AE10FD6
S3150FE10860D50AE10F010CE10F171DE10F451DE10F50
S3150FE108708C08E10F454652333200000001000000BB
S3150FE10880010000000040080000A007000001000081
S3150FE10890FD0DE10F530EE10F810EE10F9F0EE10FFB
S3150FE108A0E50EE10FF731E10FE530E10FC532E10F6B
S3150FE108B0FF0EE10F270FE10F810FE10F350DE10F6D
S3150FE108C03F0DE10F5D0DE10F930DE10F30B50A4BD2
S3150FE108D01C6844F040041C600125084B1D609A60BA
S3150FE108E05D6002E010F8014B9C610A46511E002A39
S3150FE108F0F8D1D86930BD00BFB0400E4000C001400D
S3150FE1090006480168086970470548064A00680168A4
S3150FE10910914201D100697047002070472808E10F25
S3150FE109202800E10FAD1007B04FF4017000F09AF80F
S3150FE1093000BF3E4982B0012048643D4A10683D4AF6
S3150FE10940000E09D14AF6E850D0620020536B43F00E
S3150FE1095004035363D06201E0012803D8106840F421
S3150FE10960005010603448026822F4401242F48812B3
S3150FE109700260086840F48070086040212F48C1602A
S3150FE1098002685103FCD400F0A3F800F066F800F01A
S3150FE10990A6F810B940F201200FE0294901E00099CC
S3150FE109A0491E009100990129F9DA40F20542904278
S3150FE109B014BF4FF4017040F2032000F053F800BF6B
S3150FE109C038B520480168012401254A050CD500F008
S3150FE109D06BF840F20221401A04D0C01E02D0C01EAD
S3150FE109E0012801D8002400250420016811F1010F27
S3150FE109F006D1BDE832404FF4027000F027B831BDA1
S3150FE10A0025B1002000F0FCF80400F2D0002CF6D05E
S3150FE10A100D490020086000221046016881F308881D
S3150FE10A2081F3098840688746FEE7000000000E4023
S3150FE10A30FC81E00F64310E4020400E4004300E4041
S3150FE10A4000350C0004500E4008ED00E04FF0005168
S3150FE10A5008804FF20F00488070470F494CF23C3047
S3150FE10A60088070474FF0005108804FF20F00488021
S3150FE10A700A48016821F4E06141F480610160BFF346
S3150FE10A804F8F074907480A6802F4E06202430A609A
S3150FE10A90BFF34F8F00BFFDE70200002000500E406D
S3150FE10AA00CED00E00400FA054FF000514FF20F0292
S3150FE10AB04888904201D108887047002804BF08880A
S3150FE10AC0012802D140F2022070474FF400707047BF
S3150FE10AD000F02EB900F082B94FF40420704710B53B
S3150FE10AE0DEB04FF4BC726946002000F008FA00212F
S3150FE10AF0684600F018FA40F201218842F7D040F239
S3150FE10B000322904240F205441AD19DF801009DF867
S3150FE10B10001071B1A0B10C480268019993688B423C
S3150FE10B2008D25A9800F094FA50B140F20920FFF733
S3150FE10B3099FF28B103995A9800F0A6FA00B100245B
S3150FE10B4020465EB010BD00002808E10F2DE9F04107
S3150FE10B500446654800688846016916468C4222BFFD
S3150FE10B6037194269BA4216D3E00AB4EBC02004BF83
S3150FE10B70204600F0B7FA04F50065ED0AED0204E050
S3150FE10B80284600F0AFFA05F50065BD42F8D33246C7
S3150FE10B904146204630E0BDE8F0812DE9F041884637
S3150FE10BA05249534B096815460A689A4222D10E6992
S3150FE10BB04D4909684A698619AF19BA421AD310B96C
S3150FE10BC0086900F08FFAF10AB6EBC12104BF30468E
S3150FE10BD000F088FA06F50064E40AE40204E0204630
S3150FE10BE000F080FA04F50064BC42F8D32A46414688
S3150FE10BF0304601E0BDE8F081BDE8F04100F0ABBA67
S3150FE10C0058B584B00446684640A1102200F0F4FAC4
S3150FE10C102268384B6068616B02F160429A4228D2D2
S3150FE10C20314A13681A69904223D3334B984220D243
S3150FE10C30403291420E4601D3994205D30020C04678
S3150FE10C40401E8041C00F1BE00020C04698B900F05E
S3150FE10C5057F8A0B9706990B102280CD1B069001D9F
S3150FE10C60011B4FF0FF322046FFF730FE2349884242
S3150FE10C7005D0002004E0204600F004F800E0012052
S3150FE10C8005B050BD50B59FB00446684623A110226A
S3150FE10C9000F0B2FA666B00F033F818B97069012803
S3150FE10CA00AD1B669104801680A69964228BFA64279
S3150FE10CB002D31148864201D3002013E004A800F0C5
S3150FE10CC0C6FA321B214604A800F0CBFA04A800F0BD
S3150FE10CD0CAFA06F12002314604A800F0C7FA401E0F
S3150FE10CE08041C00F1FB050BD2808E10F2800E10F6A
S3150FE10CF0AD1007B00100040001001000E320BBDED8
S3150FE10D0010226946304600F0E7BA000013B779FAC8
S3150FE10D10C925DDB7ADF3CFE0F1B614B813B779FA5C
S3150FE10D20C925DDB7ADF3CFE0F1B614B82CA0704706
S3150FE10D30002070472748006800F00100704710B5A2
S3150FE10D400B461118244CA14205D20146184600F074
S3150FE10D5043FA002010BD40F2024010BD38B513181A
S3150FE10D601D4DAB4240F202440BD2002300E01B1DA6
S3150FE10D70934208D21D5815F1010FF8D040F2034006
S3150FE10D8032BD204632BD00F0E6F90028F9D0002049
S3150FE10D9032BD70B505460C46600501D1690502D035
S3150FE10DA040F2044070BD60190B49884240F2024699
S3150FE10DB003D300E008B9304670BD284600F092F93A
S3150FE10DC0B4F5006405F50065F4D10028F3D00020F1
S3150FE10DD070BD00001C000E4001001000002070479E
S3150FE10DE001020300280000002800000000080000AF
S3150FE10DF0000010007408E10F0200000010B50400B6
S3150FE10E000CD04FF48030206000219D48616002785C
S3150FE10E1022724068E060FFF789FF206110BD78B567
S3150FE10E20044604F5B4760D46A1B0B1683068802367
S3150FE10E3001AA00F025F80095802301AA214604F1C5
S3150FE10E40240000F0EFFBF060B0688030B06022B0B4
S3150FE10E5070BD0246002940F2014000D1704710B53E
S3150FE10E60874B5C68A24203D300220A604A6010BD39
S3150FE10E7003EBC20082680A60C0684860002010BDBB
S3150FE10E8038B500F021F800D326E000F017F800D2CC
S3150FE10E9025E09B68C018BDE83840FFF750BF38B56D
S3150FE10EA000F012F800D317E000F008F800D216E0D0
S3150FE10EB09B68C018BDE83840FFF750BF03EBC4038A
S3150FE10EC01518DC68AC4270470446084611461A46C7
S3150FE10ED06B4B5D68AC42704740F2014032BD40F268
S3150FE10EE0024032BD66494A68904202D340F2014060
S3150FE10EF0704701EBC000C1688068FFF74ABF3EB596
S3150FE10F0004460D461146284600F005FF50B96946DD
S3150FE10F102046FFF79EFF28B905F5B47004600199E5
S3150FE10F20416000203EBD38B584B004460D466846A3
S3150FE10F30102100F025FF029504F5B675A86888B96A
S3150FE10F406868296888420DD269462046FFF767FF30
S3150FE10F50A86800281CBF41F2070188420BD140F275
S3150FE10F60012008E0A07800281DBFE078002840F2B4
S3150FE10F70032040F2022005B030BD01201870704702
S3150FE10F802DE9F84185B004468846174600268DF8C7
S3150FE10F90006001A847A1102200F02EF9CDF804D088
S3150FE10FA03E601C21404600F0EBFE04F5B6759DF858
S3150FE10FB0000098B994F86A0011280FD0A86868B9AB
S3150FE10FC068682968884209D201A92046FFF727FFF9
S3150FE10FD0EDE740F2064006B0BDE8F081207808B1B2
S3150FE10FE061683960607828B11C2204F10801404636
S3150FE10FF000F002F99DF80000002801BF6178002991
S3150FE1100020780028E5D00020E5E770B504460D46C7
S3150FE11010202304F1FC0204F1B40104F1240000F0F1
S3150FE11020C5FA04F5B676B06850B97068316888428A
S3150FE1103006D229462046FFF7F2FEF4E7002070BDFF
S3150FE11040A07800281CBFE0780028F7D0012070BDFA
S3150FE1105010B50C4AE2B013689C688C4202D200F0DC
S3150FE1106025F808B1002009E04FEA0D0015A110227D
S3150FE1107000F0C2F8694604A8FFF7C7FF62B010BDDA
S3150FE110807C08E10F2808E10F80B5E2B000F00EF819
S3150FE1109008B1002008E068460EA1102200F0ACF876
S3150FE110A0694604A8FFF7B1FF63B000BD4FF4BC7208
S3150FE110B004A924E7000000007B0FE10F7B0FE10F8E
S3150FE110C07B0FE10F000000000000000000000000B0
S3150FE110D09B0BE10F000000004D0BE10F000000003C
S3150FE110E00000000010B53B4C41F67131A163226857
S3150FE110F052085200226000F0E9FE226852080146CA
S3150FE11100520022600020A063481E8041C00F10BD2F
S3150FE1111038B58308800705D54FF6FF7242EA0142DB
S3150FE11120009204E041F07F4141F47F01009141F6E5
S3150FE111307130284CA063042225686D086D00256087
S3150FE111406946980000F0FFFE2268520852002260BD
S3150FE111500021A16332BD2DE9F041054688461446CB
S3150FE1116005F0010104F00100014330D16CB3AA0788
S3150FE1117007D538F8021B2846FFF7CAFF38BBAD1C67
S3150FE11180A41E042C1AD3134E41F67130B063A7088F
S3150FE111903168490849003160BF003A464146284661
S3150FE111A000F0D1FE31684908490031600022790823
S3150FE111B0B26308EB41087D19E41B40B92CB1B8F8CD
S3150FE111C000102846FFF7A4FF08B9012000E0002030
S3150FE111D0BDE8F08108000E4062B38B0708D0521EBE
S3150FE111E011F8013B00F8013B00F024808B07F6D1A3
S3150FE111F0830740F0208000BF103A07D330B4B1E83F
S3150FE112003810103AA0E83810F9D230BC530724BF92
S3150FE11210B1E80810A0E8081044BF51F8043B40F8C4
S3150FE11220043BD20724BF31F8022B20F8022B44BF2F
S3150FE112300B7803707047083A07D3B1E80810083AFC
S3150FE1124040F8043B40F804CBF7D25307E4E710B577
S3150FE11250044600F059FF2046BDE81040002100F09A
S3150FE1126083BF00F083BF014600F081BF78B506006A
S3150FE112700D4618BF002DA1B0144600D014B940F2A7
S3150FE11280016023E00121124800F0D8FF402111A8A7
S3150FE1129000F076FD01F00AF8014611A801F0E0FA37
S3150FE112A001F006F8014619A801F0DAFA294601A874
S3150FE112B001F0D6FA214609A801F0D2FA01A8009069
S3150FE112C011AB20223146034801F0DAFA22B070BDA4
S3150FE112D000050A0000000F400300002013F0030F82
S3150FE112E009D0521E22BF13F8010B11F801CBB0EB57
S3150FE112F00C00F3D07047121F22BF53F8040B51F8BD
S3150FE1130004CB6045F7D0121D0AD200BA9CFA8CFCC9
S3150FE11310B0EB0C0038BF6FF0000088BF01207047BB
S3150FE11320521E22BF13F8010B11F801CBB0EB0C00E3
S3150FE11330F6D0521C08BF10467047FEE72DE9F84379
S3150FE113401E467368002B4ED00C4614F0030118BFEE
S3150FE1135041F2020048D115460746FFF7D1FA396E39
S3150FE11360001D6A18824221D300F1180399421DD25A
S3150FE113708C46844538BF844605EB010800F1180217
S3150FE11380904588BF9046ACEB0101ACEB000004EB56
S3150FE113900109A8EB0C083844424649466830FFF785
S3150FE113A01BFFFF224146484601F0D8FBFFF7ACFA97
S3150FE113B0396E001D884222BF6A18031D9A4209D36E
S3150FE113C0411A601807F1800102680A600421FF22C1
S3150FE113D001F0C4FB21463368386E74682A46A0478C
S3150FE113E0386E2D183D660020BDE8F28370B54B6867
S3150FE113F08C689C4206D200F140021B1B14781B1924
S3150FE11400412B01D3002070BD537814780D68E41891
S3150FE114108B68EE5C04F03F0406558C68641C8C60A7
S3150FE1142013785B1C13708C684B689C42ECD30120DC
S3150FE1143070BD90F840004A6889681018401A7047E5
S3150FE114402DE9F0410C4617461D468046FFF7F1FFA1
S3150FE11450A84208F1400606D221464046FFF7C6FFED
S3150FE1146010B300204DE000210CE0707818F8002051
S3150FE114707A54491C737830785B1C03F03F03421EA4
S3150FE1148073703270307808B1A942EED3A068626802
S3150FE11490904238BFA9420CD22368185C7854491C94
S3150FE114A0A268521CA260F1E71220B07141F202006C
S3150FE114B027E0A942F8D1069CB26C29463846FFF7D8
S3150FE114C005FAB06424B1F0682A463946FFF7C9FE3A
S3150FE114D0079838B1F07878B1B0682B463A46394675
S3150FE114E001F092FBF07838B1F069B1692818F06133
S3150FE114F0884224BF0020F07070692D18756141F2A2
S3150FE115000300BDE8F081F8B584B014460026054620
S3150FE1151001960096082302AAFFF792FF41F203060E
S3150FE11520B0423CD195F8430005F1480738B100F0D8
S3150FE1153038F83868082302AA02A901F065FB9DF87D
S3150FE115400A209DF80B009DF80910120442EA006289
S3150FE115509DF8080042EA0122024322609DF80E003F
S3150FE115609DF80F10000440EA01609DF80D1040EA66
S3150FE1157001209DF80C100843606095F8430048B9C7
S3150FE11580DFF82C178A421CBFDFF82807824201D009
S3150FE1159000F007F86068B8600021F960304605B0E1
S3150FE115A0F0BD7868082202A9FFF75BBEF8B50646DB
S3150FE115B006F140070020B8717870F87038710D4662
S3150FE115C000214FF0FF303970797103F02003B864D1
S3150FE115D0396279621446BB70FF22182106F1680061
S3150FE115E001F0BCFAFF22042106F1800001F0B6FA00
S3150FE115F0FF22042106F1840001F0B0FABD60FC6020
S3150FE116000020C04600B11DB10020C04618B114B983
S3150FE1161041F20B00F2BD14B1F868FFF718FE002096
S3150FE11620F2BD00002DE9FB4F824600210023002485
S3150FE116309AB005A880E81A00059209910AF14806C1
S3150FE116401C9A269D06920AF1420710E000F058FB1C
S3150FE116500899884233D10498B0600021F16003986C
S3150FE11660DFF85416884240F0398102223A71079821
S3150FE116701C99884280F0BA8241F2030208920DF179
S3150FE11680280839791229F2D8DFE811F0140015008C
S3150FE11690B4022801EE02F002CE024A01F002450140
S3150FE116A0F00245011302AD02F30288028B02C60175
S3150FE116B0AD02DCE7CAE700F023FB0899884240F068
S3150FE116C09682B87820B10398DFF8E815884243E0AF
S3150FE116D03A78D1074AD57878002847D10398DFF8C9
S3150FE116E0D81588421CBFDFF8D415884222D0DFF81F
S3150FE116F0D01588421CBFDFF8CC1588421AD0DFF827
S3150FE11700C815884222D0DFF8A815884265D0DFF8E0
S3150FE11710BC15884213D0DFF8B81588420DD0DFF833
S3150FE117209415884215D0DFF8AC1588421CBFDFF857
S3150FE11730A815884200F0D28010E00E2296E70F201E
S3150FE1174038710020B1683161706190E7122139710A
S3150FE1175066E00020C04600283DD138E012203871FE
S3150FE1176003A80020C04600285AD08FE20398DFF87D
S3150FE117704C1588421AD0DFF84815884214D0DFF8A5
S3150FE117804415884215D0DFF82815884221D0DFF8B5
S3150FE117902415884214D0DFF83C1588420ED0DFF8C5
S3150FE117A03815884208D01AE004225FE7062038711F
S3150FE117B05DE7072139715AE70920F8E70B21F9E7C8
S3150FE117C00020C046002804BF7878002803D10C21F9
S3150FE117D0F0E77878002840F081801021EAE703A846
S3150FE117E00020C046A8B1039870641121397103989E
S3150FE117F00020C046099038788106DCD50998002883
S3150FE118001CBF41680029D6D0504688470028D2D060
S3150FE118103CE212217878397110B141F20400E6E128
S3150FE1182041F20800E3E198F8050098F8041041EA5F
S3150FE1183000210291C90704D5387840F001003870CC
S3150FE1184002E00020C04640B90020C046002800F063
S3150FE11850D3810298C10500F1CF811220387141F28F
S3150FE118600A00C4E1052038710121F9700020F06109
S3150FE11870F068082880F0068201210191009100F0BD
S3150FE1188044FA08998842ECD10120207098F80200B9
S3150FE1189098F803109DF82820000440EA016098F8B3
S3150FE118A0011040EA012010436060DFF83024DFF8D1
S3150FE118B03004006801689142D4D198F8062098F86F
S3150FE118C0071098F80430C068120442EA016298F8EA
S3150FE118D0051042EA01221A438242C3D0122139711D
S3150FE118E0D4E1012000F004FA08998842B9D198F8B9
S3150FE118F0021098F803009DF82820090441EA0061D7
S3150FE1190098F8010041EA002111430291B0680528D8
S3150FE1191024BF0298B061F0680428E2D30A2149E7AF
S3150FE119200020F061082145E72B68F06942460AA9D4
S3150FE11930E047F0694044F061B068F168814280F0B8
S3150FE119409E81A0EB0108B8F1040F05A9504608D313
S3150FE11950FFF76FFD042808D205A95046FFF746FDAC
S3150FE1196044E1FFF766FD4045F6D3B8F1410F28BFD5
S3150FE119704FF0400800F0B8F9404502D200F0B4F953
S3150FE119808046B8F1040F24BF4FEA98004FEA80086A
S3150FE11990012001900090434600F0ADF90899884285
S3150FE119A040F025813879082804D1D5F808C0BCF173
S3150FE119B0000FB9D1B8F1040FC8F1040B06D20AA88A
S3150FE119C0FF225946404401F0C9F8D84438790A282C
S3150FE119D006D12B4642460AA95046FFF7AFFCABE7C5
S3150FE119E00528A9D1E8680028A6D0F06905280ED206
S3150FE119F008EB000107290AD30AA9091D081A0AF1FA
S3150FE11A00840201681160FF22042101F0A7F82B6817
S3150FE11A10F069D5F80CC089E73978880640F1348149
S3150FE11A20706C0020C0460028099040F02D812DE111
S3150FE11A304FF0010900F058F948458DD3B068F168C8
S3150FE11A40A0EB0109B9F1410F28BF4FF0400900F0B2
S3150FE11A504BF9814502D300F047F981460120019008
S3150FE11A6000904B4600F047F9089988422FD1387814
S3150FE11A7081060DD5002C1CBFD4F808C0BCF1000FB0
S3150FE11A80D5D02B464A460AA95046E04700281ED133
S3150FE11A90F068B168884280F0FC8038788106C7D556
S3150FE11AA0002C1CBF21690029C2D0504688478146C8
S3150FE11AB0C0E7002000F01CF90899884207D1306C85
S3150FE11AC08849884204D012223A7141F205008EE02C
S3150FE11AD00020C04618B91B990120C87003E01B9975
S3150FE11AE0C87800283ED0F87800281CBFEC68002C97
S3150FE11AF005D02B6804220AF184010420A047B069BE
S3150FE11B0000281CBF686800282CD04FF0FF310291E6
S3150FE11B100AF180040422214602A8FFF7DDFB40B15A
S3150FE11B20FEF7F2FE28B121462B686C680422001DF0
S3150FE11B30A04704220AF1680102A8FFF7CDFB88B19D
S3150FE11B40FEF7DEFE2B686C6814220AF16C01083091
S3150FE11B50A047FEF7D5FE2B686C6804220AF16801EF
S3150FE11B60001DA0471B99012088700D2038713DE0BB
S3150FE11B700020012101900091102300F0BCF8089993
S3150FE11B80884234D100F096FB802100900191012328
S3150FE11B9030680BAA022101F014F86CE0012078708D
S3150FE11BA01FE0B878E8B9002101910090402300F0D9
S3150FE11BB0A2F8089988421AD17068FFF754FB70684A
S3150FE11BC012AA0AA9FFF752FB38B11B990020C87078
S3150FE11BD01220387141F2060009E01B990120C87005
S3150FE11BE0B8700121E6E541F2070000E000201DB0E3
S3150FE11BF0BDE8F08FDDF86C90F06808283FD2002140
S3150FE11C0001200191009000F080F808998842EED109
S3150FE11C1098F803000006B0F1407F3FF404AE1220BE
S3150FE11C20387141F20900E2E7DDF86C90B368F068CC
S3150FE11C30984224D201210191009100F05CF80899B4
S3150FE11C408842D4D11C220AA909F10800FFF7D4FA78
S3150FE11C50012089F8010009F108000120C04600289A
S3150FE11C60E4D141F20C00C2E71B9C01E6DDF86C9072
S3150FE11C7062E6DDF86C90F1681029FFF479AFCDF8E3
S3150FE11C806C90AEE71B94F2E4099C01E741F2010087
S3150FE11C90ADE7099438788106A3D5002C1CBFE2681D
S3150FE11CA0002A9ED029465046904700289FD198E7B3
S3150FE11CB0F70A0AF7FC0404FCEB17A603F40A0AF485
S3150FE11CC0F50909F5F60808F6F70909F7F90707F926
S3150FE11CD0FA0606FAFD0303FDFE0101FEAD1007B09C
S3150FE11CE02800E10FE320BBDE05A95046FFF7A1BBB4
S3150FE11CF00190009004230AAA05A95046FFF7A0BB5D
S3150FE11D0003AA05A95046FFF7FEBB08230AAA05A9B0
S3150FE11D105046FFF795BB10B5B1F5BC7F044602D22D
S3150FE11D2040F2052010BD4FF4BC7100F029F804F123
S3150FE11D30FC0204F1B40104F12400BDE810400023D4
S3150FE11D40FFF734BC1CB500910446214604F124008B
S3150FE11D50FFF768FC00281CBF41F207018842C4F86F
S3150FE11D6074010BD1A07838B1E07810B140F20320BD
S3150FE11D7016BD40F2022016BD40F2012016BDFEE768
S3150FE11D80002200F051BFFEE710B57249724A01E039
S3150FE11D9021B1491E1369DC07FAD411B96FF00200BC
S3150FE11DA010BD5060012010601169480702D54FF050
S3150FE11DB0FF3010BD002010BD2DE9F041044610465D
S3150FE11DC00B460022002B41D06FF001056FF00208A0
S3150FE11DD06049614FA8B994469C4537D254F8040B34
S3150FE11DE0F8600CF1010C08203860084601E080B379
S3150FE11DF0401E3E69F607FAD458B338698007EBD52A
S3150FE11E0023E0EFF3108072B694460FE03E6906F0D9
S3150FE11E101906102E08BF3E603E693607F6D554F80F
S3150FE11E20046BFE600CF1010C10263E609C45F3D36A
S3150FE11E3018B962B601E021B1491E3869C307FAD470
S3150FE11E4001B942463869810700D52A461046BDE8F1
S3150FE11E50F0814246FAE72DE9F0473D4CA56B814605
S3150FE11E6000202E0418BF6FF001002DD1374D2E68DB
S3150FE11E702D68276847F001072760960800271D465A
S3150FE11E808A4613E0C8F30A08C8F500684FEA9808CE
S3150FE11E90F01B404538BF80462A4641465046FFF77C
S3150FE11EA08BFF01000CD147440AEB880AB74207D2F0
S3150FE11EB009EB87084046FFF767FF0100E2D003E031
S3150FE11EC02168490849002160BDE8F08770B5204BCC
S3150FE11ED09C6B024625041F486FF001012CD11B4C68
S3150FE11EE0266824681D6845F001051D609A60012288
S3150FE11EF05A605C69620704D500F020F84FF0FF30B5
S3150FE11F0070BD02225A605A69D40710D5002818BF4E
S3150FE11F10401EF8D10BE00028186804D100F00FF845
S3150FE11F206FF0020070BD00F00AF8002070BD5A692B
S3150FE11F309407F0D500F002F8084670BD186840081E
S3150FE11F40400018607047002385E7000004300E401B
S3150FE11F5008000E40809698000C000E402DE9F84FD0
S3150FE11F60022883461FD8140055D00B9AD2F800C029
S3150FE11F70BCF13F0F984618D85068002818BF5FEAA2
S3150FE11F80080A13D1BBF1000F04D0BBF1020F07D042
S3150FE11F9003D308E00FF2E41A08E00FF2002A05E096
S3150FE11FA00FF2182A02E0574836E0C2460CF03F0618
S3150FE11FB0A444A445C6F14005C2F800C002D2506858
S3150FE11FC0401C506089460A9F8EB1AC420FD32A4618
S3150FE11FD0B819FFF701F90120009043463A465146F9
S3150FE11FE0584600F05AFEC246A944641B00263F2C10
S3150FE11FF00BD9A509009543464A465146584600F086
S3150FE120004CFE09EB8519A4EB851424B1224649460A
S3150FE12010B819FFF7E1F80020BDE8F28F2DE9F04797
S3150FE12020042886B080461BD8DFE800F0030D1013B5
S3150FE1203017004025142702264FF0000C00201C46FE
S3150FE120400DF1080932E040251C27F4E7402520274A
S3150FE12050F1E7802530270426EEE780254027FAE7CA
S3150FE1206028484BE0331A9B0054F820E05B1E0CEB3B
S3150FE12070CE0C09F803C00DF1080C634454F820E0C7
S3150FE12080DB1E4FEA5E1E83F802E054F820C04FEAEA
S3150FE120905C3C83F801C054F820C04FEA5C5C83F8DE
S3150FE120A000C054F820304FEA537C401CB042D9D3DC
S3150FE120B02068DDF8389001946B1E1840B600AB1B13
S3150FE120C0984232BF181AC6EB4505281A15468A46B5
S3150FE120D0024600954FEA0A0340A14046FFF73EFF4D
S3150FE120E0019400955346324602A94046FFF736FF63
S3150FE120F03A4651464846FFF76FF8002006B0BDE86D
S3150FE12100F087000080AFFFFF00281CBF6C21FFF7AF
S3150FE1211037BE704700220029CCBF012100210262A0
S3150FE12120426280F86810002070473EB5034603F11E
S3150FE12130200493F86800002803F1280514BF012055
S3150FE12140022001940095FFF709FF3EBD1CB590F8FB
S3150FE1215068200091002A14BF0124022400F008F838
S3150FE121602046FFF75BFF16BDD4E70000DDE7EDE79D
S3150FE1217000F1200300F1280201467047674523016C
S3150FE12180EFCDAB8998BADCFE10325476C3D2E1F0CB
S3150FE12190000000000000000000000000C1059ED80D
S3150FE121A0367CD5073070DD17F70E5939FFC00B3185
S3150FE121B06858151164F98FA7BEFA4FA46A09E66745
S3150FE121C0BB67AE853C6EF372A54FF53A510E527F62
S3150FE121D09B05688C1F83D9AB5BE0CD1980000000AE
S3150FE121E000000000000000000000000000000000F9
S3150FE121F000000000000000000000000000000000E9
S3150FE1220000000000000000000000000000000000D8
S3150FE12210000000000000000000000000890001EB53
S3150FE12220401101F184410A607047DFF874104A6882
S3150FE12230D30702D40A680242FCD1704770B50C4647
S3150FE122400246110A01F00F010020491E0929DFF8A4
S3150FE12250545013D8DFE801F00513121207151812BF
S3150FE122601B1FDFF83850C2F3043608B1FFF7DDFF65
S3150FE12270224631462846BDE87040CFE770BD10359E
S3150FE12280F1E730350120EEE738351020EBE7403541
S3150FE122904FF48030E7E7DFF81050E4E700400E40F7
S3150FE122A040410E40B0400E4050410E40024870474B
S3150FE122B002487047024870474A43E00F6A43E00F0E
S3150FE122C08642E00F10B50A684B688C68C9680260F0
S3150FE122D003600460016010BD10B50268036804680D
S3150FE122E000680A608C604B60C86010BD38B5044663
S3150FE122F00D46FFF7E7FF05F110012046BDE8344033
S3150FE12300E0E738B504460D46FFF7E6FF05F11001A4
S3150FE123102046BDE83440DFE738B500F00EF804F1AA
S3150FE123200C0104E038B500F008F804F12C01184669
S3150FE12330BDE838402022FEF74FBF8C240FF290758F
S3150FE1234060430B462C187047F8B500F068F907465D
S3150FE12350294604F58470FFF7C9FF314604F5867007
S3150FE12360FFF7C4FF384600F033FDDFF8D8062065E6
S3150FE12370012161656069000E00F0010080F0010046
S3150FE12380F2BD2DE9F84F88B004460D4692461E463A
S3150FE1239000F021FD834604F5827705F1400100F057
S3150FE123A035F904F58678514600F026F904F5887972
S3150FE123B00AF120014846FFF799FF00F022F900F0F4
S3150FE123C048FAA065E16504F5847A00F004FD8346D9
S3150FE123D0294600F01BF905F1200100F010F905F18E
S3150FE123E040014846FFF782FF00F00BF9DFF8580688
S3150FE123F0DFF85816206561650120A06504F580793F
S3150FE1240000F0E9FC834606F140014846FFF779FF04
S3150FE1241069465046FFF775FF00F0F3F800F0DBFC75
S3150FE12420834600F0E8F800F0ECF8DFF82406DFF871
S3150FE124302416206561650121DFF81C0600F0E8F836
S3150FE12440804600F0E1F800F02FF9DFF81006DFF82B
S3150FE12450101600F020F8054631465046FFF751FFBA
S3150FE12460284600F0B5FC00F0B6FC0546694638464D
S3150FE12470FFF73CFF284600F0ABFCDFF8E805DFF895
S3150FE12480E81500F008F8044600F0B1F800F0C4F8DA
S3150FE1249009B0BDE8F08F206561650120A06500F008
S3150FE124A09ABC2DE9F84F98B000F0B9F8804604F5DB
S3150FE124B0827700F0A9F800F0F7F8DFF8B005DFF85A
S3150FE124C0B0152065616504F58078DFF8A805FFF79B
S3150FE124D0E5FF814608A94046FFF713FF484600F09E
S3150FE124E077FC00F078FC814600F085F8484600F06D
S3150FE124F06FFCDFF88405DFF88415206561654FF41D
S3150FE125008670A06504F5867900F065FC824610A910
S3150FE125104846FFF7F6FE69464046FFF7F2FE50469C
S3150FE1252000F056FC00F057FC824605F1400100F041
S3150FE125306DF8504600F04CFCDFF8440520650121AB
S3150FE12540616504F5847A00F046FC8346294600F07E
S3150FE1255056F800F056F8DFF82C05DFF82C15206554
S3150FE1256061650121DFF8240500F052F883466946DB
S3150FE125705046FFF7BBFE10A94846FFF7B7FE00F03E
S3150FE1258040F8DFF80C05DFF80C1520656165DFF81B
S3150FE125900805FFF783FF8346314604F58870FFF799
S3150FE125A0B0FE00F02EF800F016FC834600F02CF892
S3150FE125B005F1400100F023F808A94846FFF796FE1A
S3150FE125C000F01FF8DFF8D404DFF8D4142065616555
S3150FE125D000F001FC044606F140014046FFF791FE8B
S3150FE125E000F005F800F018F819B0BDE8F08F06F124
S3150FE125F02001484685E62946404677E6314650466C
S3150FE1260074E6584600F0E4BB05F1200138466DE665
S3150FE12610A065E16500F0DFBB204600F0D9BB0446BB
S3150FE126200D46164600F0D7BB2DE9F04105460E469D
S3150FE126301C46174620212046FFF7A2FB0122226006
S3150FE1264000F0C9FB8046394605F58070FFF74EFE6F
S3150FE12650314605F58270FFF749FE05F58476214689
S3150FE126603046FFF743FE00F01FF8DFF83804286520
S3150FE126700BE0DFF83414DFF8340429656865DFF819
S3150FE126803014DFF83004A965E8656869C101F0D552
S3150FE1269000F0A1FB054621463046FFF732FE2846FC
S3150FE126A0BDE8F04100F094BB404600F091BB50F815
S3150FE126B0043B934203D007E050F8042B22B9091FDC
S3150FE126C00129F9DA01207047002070472DE9F04121
S3150FE126D088B004460E460E9F154698462021684659
S3150FE126E0FFF74EFB0122009220213846FFF748FB08
S3150FE126F0202107F12000FFF743FB202107F14000DE
S3150FE12700FFF73EFB8C200FF2C83110FB06F68E1950
S3150FE127102046317A00F064FB00202060206360637D
S3150FE127207668761E002E3ADD00F03EF8F9D536E0F2
S3150FE12730202229463846FEF75FFD202205F12001CA
S3150FE1274007F12000FEF758FD2022694607F1400008
S3150FE12750FEF752FD22E03A4639462046FFF7A1FE43
S3150FE1276000F022F81AD5002220213846FFF79FFF05
S3150FE1277070B10022202107F12000FFF798FF38B151
S3150FE127800022202107F14000FFF791FF0028CFD16A
S3150FE127903B462A4639462046FFF7F3FD761E002EC5
S3150FE127A0D9D508B0BDE8F081301106EBD060401104
S3150FE127B058F82010A6EB4010C140CA0770472DE923
S3150FE127C0F04104460F461D4616463B468C200FF256
S3150FE127D000324343D01890B0017A204600F000FB57
S3150FE127E0002222602263626369463846FFF794FD51
S3150FE127F008AB6A4606F140012046FFF715FF00F0E8
S3150FE12800EAFA804608A904F58270FFF76FFD04F531
S3150FE1281086773146FFF7FAFE06F1200104F5887057
S3150FE12820FFF764FDFFF740FF00F013F8FFF7F0FE47
S3150FE12830064605F1200104F58070FFF762FD294692
S3150FE128403846FFF75EFD304600F0C2FA10B0BDE83C
S3150FE12850F08186489849206561650121974870475F
S3150FE1286038B50D4604462021FFF78AFAFFE71F2008
S3150FE128704242295C2244401ED177F9D531BD000091
S3150FE128802DE9F04F0D0018BF5FEA0308B9B0144602
S3150FE1289003D0429E0EB1002C02DC40F20160CDE086
S3150FE128A0074600203860386378630C21786840F07A
S3150FE128B010007860384600F093FA786820F44060AB
S3150FE128C040F40060786011A9786820F4407040F414
S3150FE128D0007078600020FFF725FD11AA31463846D2
S3150FE128E0FFF732FD30B911AA06F120013846FFF79D
S3150FE128F02BFD10B140F20260A0E0202CC8BF2024CE
S3150FE12900202119A8FFF73CFA002014E0221A521EE3
S3150FE1291009A99208A4F1010E01EB8201AEEB000EBB
S3150FE129202B5C0A6C4FEACE0E0EF0180E03FA0EF37D
S3150FE129301A430A64401CA042E8DB00F04CFA044655
S3150FE1294007F5847519A92846FFF7D0FCFFF764FE52
S3150FE129505B48386507F5807400F03DFA814619A9A1
S3150FE129602046FFF7CEFC484600F032FA01AB11AA3A
S3150FE1297006F120013846FFF757FE00F02CFA8346A1
S3150FE1298001A907F58270FFF7B1FC07F5887919A957
S3150FE129904846FFF7ABFC07F5867AFFF72FFEFFF701
S3150FE129A030FE484848493865796500F014FA8346A0
S3150FE129B019A94846FFF7A5FC01A92046FFF7A1FC97
S3150FE129C0FFF71FFE21A800900DF1640353A200212A
S3150FE129D03846FFF77BFE09A8009001AB424600217E
S3150FE129E03846FFF773FE21AB21AA00213846FFF7E0
S3150FE129F0E6FE09AB21AA09A93846FFF7C2FC09ABE6
S3150FE12A0009AA00213846FFF7DAFE00F0E4F9044699
S3150FE12A100C21384600F0E4F909A92846FFF766FCD0
S3150FE12A20FFF7ECFDFFF7F8FD284822493865796590
S3150FE12A307869C1014CBF002040F2046039B0BDE8AE
S3150FE12A40F08F00003035DA10D01482CB1481E11CFF
S3150FE12A508CE11C811C84D91C8391D11CE014D81400
S3150FE12A601482E11C84D31482D11CE0148AD11C8117
S3150FE12A70821CC00C0C0C0100C00C0C83D91C83D832
S3150FE12A808AD11C83DA0C811482D11C81C80C0C818A
S3150FE12A908CE11CD01484E31482D11C01D81483D1A8
S3150FE12AA01CC00C0139398401D02484FC1C82FED868
S3150FE12AB08B1C81A039380100D91C83D11C81E11C03
S3150FE12AC030D00C0130E11C8430D91C013035DA14D9
S3150FE12AD02000000000010000050C0000FFFFFFFFD2
S3150FE12AE0FFFFFFFFFFFFFFFF0000000000000000F8
S3150FE12AF00000000001000000FFFFFFFF512563FC0E
S3150FE12B00C2CAB9F3849E17A7ADFAE6BCFFFFFFFF72
S3150FE12B10FFFFFFFF00000000FFFFFFFF96C298D8FF
S3150FE12B204539A1F4A033EB2D817D0377F240A46300
S3150FE12B30E5E6BCF847422CE1F2D1176BF551BF3709
S3150FE12B406840B6CBCE5E316B5733CE2B169E0F7CDC
S3150FE12B504AEBE78E9B7F1AFEE242E34F62F30F22C7
S3150FE12B6062F31F42401810F0030308D0C91A1FD3AE
S3150FE12B70DB0748BF00F8012D28BF20F8022D13000F
S3150FE12B8030B414461546103928BF20E93C00FAD86F
S3150FE12B90490728BF20E90C0048BF40F8042D8900FA
S3150FE12BA028BF20F8022D48BF00F8012D30BC704731
S3150FE12BB0C91818BF00F8012DCB0728BF00F8012D62
S3150FE12BC070472DE9F843089D099F80460E469146C9
S3150FE12BD01C4600F076F93A462946404600F077F969
S3150FE12BE008F124000021016006750C22494608F11F
S3150FE12BF03900FEF7F1FA08F14500210C220A84703B
S3150FE12C0001704270BDE8F1833EB5029201911C4617
S3150FE12C1000F12805009500F1380300F12402214661
S3150FE12C2000F079F937BDFEE700B500BF1300964610
S3150FE12C309446103928BFA0E80C50FAD85FEA417CD8
S3150FE12C4028BF0CC048BF40F8042BC90728BF20F89E
S3150FE12C50022B48BF00F8012B00BDFEE710B50A684D
S3150FE12C604B688C68C968026003600460016010BD3F
S3150FE12C7010B502680368046800680A608C604B60EF
S3150FE12C80C86010BD38B504460D46FFF7F1FF05F1F3
S3150FE12C9010012046BDE83440EAE72DE9F84F98B038
S3150FE12CA006460C4690469A4600F0E1F905461EB1F6
S3150FE12CB0022E52D051D352E00020286000216960E4
S3150FE12CC00020E864696821F44061696028636863FC
S3150FE12CD054F8201009BA4DF82010401C0828F7D3F4
S3150FE12CE000F079F8044605F5827669463046FFF736
S3150FE12CF0B5FF04A93046FFF7B1FF204600F068F8AB
S3150FE12D002F4828650027229C05F5D276A74242D2A5
S3150FE12D1018F0030008EB871906D04022494608A8A8
S3150FE12D20FEF75AFA0DF1200900F055F883464946A8
S3150FE12D3000F04CF809F1100100F048F809F1200113
S3150FE12D4000F044F809F1300100F040F8584600F080
S3150FE12D503FF81C4828657F1CD8E70420ADE71A48E1
S3150FE12D6016E000F038F8044651463046FFF78AFF81
S3150FE12D70204600F02DF8284600F084F900205AF895
S3150FE12D80201009BA4AF82010401C0828F7D3002072
S3150FE12D9019B0BDE8F08F1AF0030005F58076E0D0A3
S3150FE12DA000F019F8044669463046FFF76BFF2046F7
S3150FE12DB000F00EF8202269465046FEF70DFADAE7E3
S3150FE12DC0888AC801070D810180AFFFFF304645E7CD
S3150FE12DD000B962B67047EFF3108072B67047FEE73F
S3150FE12DE042685209042941EA42120AD9491F0229C6
S3150FE12DF005D9C91E032904D9091F022902D842F0B0
S3150FE12E00100242607047FEE7890001EB401101F1C4
S3150FE12E1084410A60704710B50A684B688C68C968C7
S3150FE12E20026003600460016010BDF4E710B502684B
S3150FE12E300368046800680A608C604B60C86010BD67
S3150FE12E4038B5102A04460D460DD101220021FFF7B0
S3150FE12E50DBFF04F5887429462046FFF7DCFF05F111
S3150FE12E601001204606E000220021FFF7CDFF29469B
S3150FE12E7004F12400BDE83440CDE71FB50C4614F04C
S3150FE12E80030108D06946FFF7D1FF102269462046B4
S3150FE12E90FEF7A2F91FBD2146FFF7C8FF1FBD1FB5FC
S3150FE12EA0044611F0030008D010226846FEF794F9A4
S3150FE12EB069462046FFF7B9FF1FBD2046FFF7B5FF6D
S3150FE12EC01FBD00281CBF2421FEF75ABF704770B5FE
S3150FE12ED005000C4618BF002C164602D16FF02100F3
S3150FE12EE070BD2421FEF74CFF802E18BFB6F5807F0B
S3150FE12EF002D06FF0220070BD2E60F2082146281D28
S3150FE12F00FEF76AF9002070BD594605F18000B4E776
S3150FE12F104846FFF75DBF2DE9F64F83B0002A14BF90
S3150FE12F20146800240027009000281CBF0F9E002E76
S3150FE12F3009D0DDF84080B8F1000F1CBF0193002BDB
S3150FE12F4001D00E9810B96FF0210075E00098006876
S3150FE12F500291802818BFB0F5807F04D06FF0220070
S3150FE12F606AE000F06CF80298874261D2002CF8D142
S3150FE12F7000F07DF80546002068604FF44041296076
S3150FE12F804FF0000AFFF727FF814600980168802975
S3150FE12F900CBF08221022011D2846FFF751FF0199A8
S3150FE12FA005F18400FFF77BFFFFF7B2FF0298A0EB75
S3150FE12FB0070913E000F04EF80AF1010AFFF70BFFDC
S3150FE12FC08346F11905F1A000FFF769FF08EB070149
S3150FE12FD0FFF79BFF5846FFF7FBFE1037BAEB191FBA
S3150FE12FE015D24820A8600521A960E3E76CB948200E
S3150FE12FF0A8600521A96000F02DF8FFF7ECFE8146E8
S3150FE130000E99FFF782FFFFF783FF00F018F802989A
S3150FE13010C01BEBD1FFF7DFFE8146019905F1840075
S3150FE13020FFF72BFFFFF774FF284600F02BF89AE71F
S3150FE13030049800B10460002005B0BDE8F08F0E9A48
S3150FE13040F15D105D414008F80710641C04F00F04B0
S3150FE130507F1C704728698107FCD40320A86070475D
S3150FE13060890001EB401101F184410A60704780B597
S3150FE13070FFE7012200210C48FFF7F2FF0B4802BDE3
S3150FE13080000000000949884208D1002009A101EB9F
S3150FE13090C003002259680448E2E7704704498842B1
S3150FE130A0FBD10120F2E70000B0400E4000000F40D7
S3150FE130B000040F4000000F400000000000040F4025
S3150FE130C0010000000449054808600548026842F41A
S3150FE130D0700202607047000008ED00E00008E10FA2
S3150FE130E088ED00E02DE9F04399B004460D4605A8B9
S3150FE130F05021FEF745FE00F0E1F86846FDF77EFE4A
S3150FE13100039802284FF0FF3609D2002020600120F4
S3150FE13110A8423CBF44F82060401CF9D364E0A842C2
S3150FE1312038BF40F2045060D3FDF7D6FC80460498D1
S3150FE131300C2205A9C7684046FDF701FE0028474462
S3150FE1314053D10598DFF86C91484522D00C2205A999
S3150FE131503846FDF7F4FD002847D10598484507D0D5
S3150FE131600020A8423CBF44F82060401CF9D33FE061
S3150FE13170079A05A93846FDF7E2FD0498C16840466E
S3150FE13180FDF707FE88BB079A05A94046FDF7E6FD61
S3150FE1319058BB079A05A94046FDF7D1FD0799324677
S3150FE131A005A8FDF793FB4449884207D00020A842C2
S3150FE131B03CBF44F82060401CF9D319E0079810385A
S3150FE131C08008A84288BF2846002108AA04E052F8E1
S3150FE131D0213044F82130491C8142F8D3A8423CBF43
S3150FE131E044F82060401CF9D3002019B0BDE8F08304
S3150FE131F040F20550F9E7F0B599B005460C4605A83A
S3150FE132005021FEF7BDFD502107910127294E059665
S3150FE13210069700F053F86846FDF7F0FD0398A042D4
S3150FE1322007D302280AD22868002818BF10F1010F28
S3150FE1323002D040F204503AE0002038E04FF4042087
S3150FE1324006460498C768BF19112C28BF1024002021
S3150FE1325008A904E055F8202041F82020401CA0429F
S3150FE13260F8D34FF0FF3002E041F82400641C102C34
S3150FE13270FAD302464C2105A8FDF728FBC043189067
S3150FE132800498C1683846FDF784FD80B9502205A937
S3150FE132903846FDF763FD50B90498C1683046FDF72E
S3150FE132A078FD20B9502205A93046FDF757FD19B033
S3150FE132B0F0BD000039528FE1E320BBDE68461421F1
S3150FE132C0FEF75EBD30B595B00446FFF7F7FF6846EA
S3150FE132D0FDF794FD039D022D20D3294605A8FFF79F
S3150FE132E001FF00281CBF40F20551884218D100208A
S3150FE132F005A902E0A2420ED0401CA8420ED251F817
S3150FE13300202012F1010FF5D141F82040294605A8F9
S3150FE13310FFF771FF04E040F2035001E040F2025083
S3150FE1332015B030BD4EF68851CEF20001086840F473
S3150FE1333070000860BFF34F8FBFF36F8F4FF00070D0
S3150FE13340E1EE100A7047FEE70120C046002801D0E2
S3150FE13350AFF30080AFF300800020AFF30080FDF7FD
S3150FE13360E8FA00F000F800F001B800000746384629
S3150FE1337000F002F8FBE700002021090326311820AF
S3150FE13380ABBEF9E780B5FFF79DFEFDF719FBBDE88B
S3150FE13390014000F000B8AFF30080FFF7C3FFFFF77E
S30D0FE133A0D3FF0000000000005D
S503031EDB
S70500000000FA
