S021000066697273745F73746167655F62746C5F65666D333274673131622E733337FC
S3150FE100000A4880F308880A4800470000000000000C
S3150FE1001000000000000000000000000000000000EA
S3150FE100200000000000000000E005E10F9004002051
S3150FE10030C905E10F10B573490122734B02E000299F
S3150FE1004005D0491E1C691440F9D1002901D10220BE
S3150FE1005005E058601A601869400702D50020C043D1
S3150FE1006010BD002010BDF3B5010000250020019B56
S3150FE10070002B45D0634C644B002A16D1019A954269
S3150FE100803ED20A68DA60091D6D1C08221A60220049
S3150FE1009002E0002A35D0521E1E69F607F9D4002A6E
S3150FE100A02FD01A699207E9D528E0EFF31082009273
S3150FE100B072B60EE01E6919273740102F00D11A606C
S3150FE100C010221E693607F5D50E68DE601A60091D26
S3150FE100D06D1C019A9542F3D30099002904D162B6BA
S3150FE100E002E0002C05D0641E1969C907F9D4002C6A
S3150FE100F001D10220C0431969890701D50120C04307
S3150FE10100F6BD0220FBE7FEB500253D4EB66B360484
S3150FE1011002D00120C043FEBD384E37683668384EEF
S3150FE10120376801263E43364F3E6097080E00019031
S3150FE1013068460370002014E0802000016105490D37
S3150FE10140401A8408781BA04200D204006846027860
S3150FE1015021003000FFF787FF01000DD12D19A10016
S3150FE101607618BD4208D20198A90044182000FFF77E
S3150FE1017061FF0100E0D0FEBD21490A6801239A43E0
S3150FE101800A60FEBD70B501001E4A1D4B0120C0433A
S3150FE101909C6B240425D1194C2568246801241D681C
S3150FE101A025431D6099605C6001465D696D0704D565
S3150FE101B018680140196000200EE002255D605E6956
S3150FE101C026400FD0002A0DD0521EF8E7002A1868F4
S3150FE101D004D1014019600220C04370BD014019608E
S3150FE101E0002070BD5C692540F0D01A681140196096
S3150FE101F070BD80B50023FFF786FF02BD04300E40C8
S3150FE1020008000040809698000C00004038B53A4C43
S3150FE102103A49A1630125ED43216829402160FFF7A2
S3150FE10220B1FF01002068054025600020A063481E4C
S3150FE102308041C00F32BD38B50200900880009207A9
S3150FE1024002D509042E4A00E02E4A0A4300922A4CAF
S3150FE102502A49A1630125ED43216829402160042242
S3150FE102606946FFF7C6FF21680D4025600021A163AE
S3150FE1027032BDF8B5050014000E00C107C90FD2074C
S3150FE10280D20F0A4336D1002C32D0A80708D53188D0
S3150FE102902800FFF7D0FF00282CD1AD1CA41EB61CF9
S3150FE102A0042C1DD3A00880000090134F1348B863A8
S3150FE102B03868012188433860009A31002800FFF73A
S3150FE102C098FF39680122914339600021B96300999A
S3150FE102D049084900761800996D18641A002809D162
S3150FE102E0002C05D031882800FFF7A5FF002801D1A2
S3150FE102F00120F2BD0020F2BD08000040711B000095
S3150FE10300FFFF00000000FFFFF8B5354802681069EE
S3150FE10310816AD268009291422CD38023DB01D218F5
S3150FE10320914227D2009A891A0F182E4E3968B14297
S3150FE1033020D12D4D0024E4432200F96800F05AF84C
S3150FE10340A84217D129480068294941188022D201CC
S3150FE1035091420DD20168B1420AD18168BA689142E0
S3150FE1036006D32200C168009800F044F8A84201D0F4
S3150FE103700120F2BD0020F2BDF8B519480068C46846
S3150FE103800769B86A001BC519260005E03000FFF7BB
S3150FE103903DFF802000013618EA68A0188642F5D3A2
S3150FE103A039002000FFF765FF002817D00F480068D6
S3150FE103B00F4941188022D20191420CD20168094AB4
S3150FE103C0914208D10022D243C168200000F012F811
S3150FE103D00549884201D00020F2BD0120F2BD00009F
S3150FE103E02800E10F07B0CD5EE320BBDE2808E10F61
S3150FE103F000F81EF030B50A4B1C68202525431D6019
S3150FE104000124084B1C609A605C6002E002789A61F5
S3150FE10410401C0A00511E002AF8D1D86930BD00BF31
S3150FE10420B0400E4000C00140194800681949086004
S3150FE1043019484021C16001684903FCD4FFF79CFFCD
S3150FE104400028FBD0154800F035F800BF10B5144C65
S3150FE104501448206000F043F81349096880225202DC
S3150FE1046091420AD01149884202D00939884204D112
S3150FE10470FFF74AFF002800D010BD0D482060016844
S3150FE1048081F3088881F3098840688047FEE7000019
S3150FE10490880000208C00002004300E40020200008C
S3150FE104A008ED00E00000E10F04500E4009020000E4
S3150FE104B00008E10F8021890508801248488012481B
S3150FE104C00168124A0A40010D11430160BFF34F8FD4
S3150FE104D00F4810490860BFF34F8F00BFFDE780203B
S3150FE104E080054188074A914201D10088704700296A
S3150FE104F004D10088012801D1074870478020800088
S3150FE10500704700000FF0000000500E40FFF8FFFFAC
S3150FE105100400FA050CED00E00202000030B40122FE
S3150FE105200168001D00290FD00368C318446808301D
S3150FE10530144202D04D466D1E64191D6825601B1DC0
S3150FE10540241D091FECD0F8E730BC704710B50749F9
S3150FE1055079441831064C7C44163404E0081D0A68C8
S3150FE10560891888470100A142F8D110BD08000000A3
S3150FE1057018000000A9FFFFFF10000000880000002F
S3150FE1058080000020000000000120C046002801D0B5
S3150FE10590FFF7DCFF00BF00BF002000BF00BFFFF782
S3150FE105A043FF00F000F880B500F002F801BD00004E
S3150FE105B00746384600F002F8FBE700002021090361
S3150FE105C026311820ABBEF9E702488047024880473B
S3150FE105D002480047F505E10F4D04E10F1506E10F5E
S3150FE105E0AD1007B001000000000007010008E10FA0
S3150FE105F00080000001480249086070472C00E10FB6
S3150FE1060008ED00E0006CDC0200800000C0EA210189
S3150FE10610C0EA210100BF00BF00BF00BFFFF7B4FF73
S7050FE10615EF
