S021000066697273745F73746167655F62746C5F65666D33326A673132622E73333705
S3150FE100000A4880F308880A4800470000000000000C
S3150FE1001000000000000000000000000000000000EA
S3150FE100200000000000000000B405E10F900400207D
S3150FE100309D05E10F10B57249724A01E021B1491EE2
S3150FE100401369DC07FAD411B96FF0020010BD5060E5
S3150FE10050012010601169480702D54FF0FF3010BD3E
S3150FE10060002010BD2DE9F041044610460B46002253
S3150FE10070002B41D06FF001056FF002086049614F27
S3150FE10080A8B994469C4537D254F8040BF8600CF1A5
S3150FE10090010C08203860084601E080B3401E3E6936
S3150FE100A0F607FAD458B338698007EBD523E0EFF3B7
S3150FE100B0108072B694460FE03E6906F01906102ECF
S3150FE100C008BF3E603E693607F6D554F8046BFE600D
S3150FE100D00CF1010C10263E609C45F3D318B962B6BC
S3150FE100E001E021B1491E3869C307FAD401B9424685
S3150FE100F03869810700D52A461046BDE8F0814246A8
S3150FE10100FAE72DE9F0473D4CA56B814600202E0419
S3150FE1011018BF6FF001002DD1374D2E682D68276876
S3150FE1012047F001072760960800271D468A4613E028
S3150FE10130C8F30A08C8F500684FEA9808F01B40456E
S3150FE1014038BF80462A4641465046FFF78BFF0100EE
S3150FE101500CD147440AEB880AB74207D209EB870865
S3150FE101604046FFF767FF0100E2D003E02168490847
S3150FE1017049002160BDE8F08770B5204B9C6B0246C4
S3150FE1018025041F486FF001012CD11B4C266824680A
S3150FE101901D6845F001051D609A6001225A605C6990
S3150FE101A0620704D500F020F84FF0FF3070BD022250
S3150FE101B05A605A69D40710D5002818BF401EF8D1E6
S3150FE101C00BE00028186804D100F00FF86FF0020079
S3150FE101D070BD00F00AF8002070BD5A699407F0D59A
S3150FE101E000F002F8084670BD186840084000186034
S3150FE101F07047002385E7000004300E4008000E40EB
S3150FE10200809698000C000E4010B53B4C41F67131CB
S3150FE10210A1632268520852002260FFF7ADFF226800
S3150FE1022052080146520022600020A063481E804119
S3150FE10230C00F10BD38B58308800705D54FF6FF729D
S3150FE1024042EA0142009204E041F07F4141F47F012D
S3150FE10250009141F67130284CA063042225686D08A0
S3150FE102606D00256069469800FFF7C3FF22685208C3
S3150FE10270520022600021A16332BD2DE9F04105460E
S3150FE102808846144605F0010104F00100014330D11F
S3150FE102906CB3AA0707D538F8021B2846FFF7CAFF42
S3150FE102A038BBAD1CA41E042C1AD3134E41F6713084
S3150FE102B0B063A7083168490849003160BF003A4683
S3150FE102C041462846FFF795FF3168490849003160F5
S3150FE102D000227908B26308EB41087D19E41B40B9A6
S3150FE102E02CB1B8F800102846FFF7A4FF08B9012092
S3150FE102F000E00020BDE8F08108000E40F8B5314876
S3150FE1030001680869CD68846AAC4225D305F51041C9
S3150FE103108C4221D2641B04192B4E2168B1421BD1A9
S3150FE10320E1682A4F4FF0FF3200F056F8B84213D189
S3150FE1033000F040F80ED20268B2420BD18168A26892
S3150FE10340914207D3C1684FF0FF32284600F044F8D7
S3150FE10350B84201D00120F2BD0020F2BDF8B519482F
S3150FE1036000680569C468AE6A361BAE19274604E014
S3150FE103703846FFF749FF07F50067F268101987421C
S3150FE10380F6D329462046FFF778FF90B100F012F831
S3150FE103900CD202680C498A4208D1C1684FF0FF328C
S3150FE103A0204600F019F80949884201D00020F2BD34
S3150FE103B00120F2BD0648074900680918B1F5104F4B
S3150FE103C0704700002800E10F07B0CD5EE320BBDEEA
S3150FE103D02808E10F00F81EF030B50A4B1C6844F00F
S3150FE103E040041C600125084B1D609A605D6002E0C8
S3150FE103F010F8014B9C610A46511E002AF8D1D869C3
S3150FE1040030BD00BFB0400E4000C0014019481A4A46
S3150FE1041001681A4811604023C36001684A03FCD49E
S3150FE10420FFF79CFF0028FBD040F2022000F030F8E6
S3150FE1043000BF10B5124C1348206000F049F812497D
S3150FE104400A68B2F5803F0AD040F20921884218BF07
S3150FE10450B0F5007F03D1FFF751FF00B110BD0B4897
S3150FE104602060016881F3088881F309884068804735
S3150FE10470FEE70000880000208C00002004300E40CB
S3150FE1048008ED00E00000E10F04500E400008E10F17
S3150FE104904FF0005108804FF20F004880094801687C
S3150FE104A021F4E06141F480610160BFF34F8F0649AA
S3150FE104B006480A6802F4E06202430A60BFF34F8F0F
S3150FE104C000BFFDE700500E400CED00E00400FA0519
S3150FE104D04FF000514FF20F024888904201D1088840
S3150FE104E07047002804BF0888012802D140F2022094
S3150FE104F070474FF40070704730B450F8041B79B170
S3150FE105000268436802440830DC0744BFA9F10104DD
S3150FE10510E31852F8045B43F8045B091FF9D1ECE7E2
S3150FE1052030BC704710B5074979441831064C7C4405
S3150FE10530163404E00A68081D114488470146A142B2
S3150FE10540F8D110BD0800000018000000ADFFFFFF55
S3150FE105501000000084000000800000200000000071
S3150FE105600120C046002801D0FFF7DCFFAFF3008082
S3150FE105700020AFF30080FFF749FF00F000F800F02D
S3150FE1058001B800000746384600F002F8FBE7000025
S3150FE105902021090326311820ABBEF9E7024880472F
S3150FE105A00248804702480047C905E10F3304E10FCE
S3150FE105B0E905E10FAD1007B00100000000000701EA
S3150FE105C00008E10F0080000001490248086070470A
S3150FE105D008ED00E02C00E10F005A620200800000F6
S3150FE105E0C0EA2101C0EA2101AFF30080AFF3008039
S3090FE105F0FFF7B6FF66
S7050FE105E91C
