S020000066697273745F73746167655F62746C5F6566783332786731312E73333750
S11300009004002001060000490600004D0600008F
S113001051060000550600005906000000000000CB
S11300200000000000000000180600005D0600004B
S1130030610600000000000065060000690600007B
S113004010B57649764A01E021B1491E1369DC07EF
S1130050FAD411B96FF0020010BD50600120106095
S11300601169480702D54FF0FF3010BD002010BDC4
S11300702DE9F041044610460B460022002B41D0E6
S11300806FF001056FF002086449654FA8B9944602
S11300909C4537D254F8040BF8600CF1010C08208D
S11300A03860084601E080B3401E3E69F607FAD482
S11300B058B338698007EBD523E0EFF3108072B6AC
S11300C094460FE03E6906F01906102E08BF3E6004
S11300D03E693607F6D554F8046BFE600CF1010C4A
S11300E010263E609C45F3D318B962B601E021B1F5
S11300F0491E3869C307FAD401B9424638698107F1
S113010000D52A461046BDE8F0814246FAE72DE9BB
S1130110F84F414CA56B064600202D0418BF6FF024
S113012001003AD10D46216841F0010121604FEAF6
S113013092088146AA469B4613E0C7F30A07C7F50F
S11301400067BF08A8EB0900B84238BF07465A4603
S113015039465046FFF78CFF01000CD1B9440AEB35
S1130160870AC14507D206EB89073846FFF768FFBF
S11301700100E2D011E031682A68914209D030468A
S1130180FFF75EFF010004D15A4601212846FFF71C
S11301906FFF2168490849002160BDE8F28F30B53E
S11301A01D4B9C6B024625041C486FF0010129D1AC
S11301B01C6844F001041C609A6001225A605C6966
S11301C0620704D500F020F84FF0FF3030BD022262
S11301D05A605A69D40710D5002818BF401EF8D1B8
S11301E00BE00028186804D100F00FF86FF002004B
S11301F030BD00F00AF8002030BD5A699407F0D5EC
S113020000F002F8084630BD186840084000186045
S1130210704700237BE7000008000E40809698009A
S11302200C000E4010B53B4C41F67131A1632268BD
S1130230520852002260FFF7B2FF226852080146BA
S1130240520022600020A063481E8041C00F10BDF0
S113025038B58308800705D54FF6FF7242EA01429C
S1130260009204E041F07F4141F47F01009141F6A6
S11302707130284CA063042225686D086D00256048
S113028069469800FFF7C5FF2268520852002260B1
S11302900021A16332BD2DE9F0410546884614468C
S11302A005F0010104F00100014330D16CB3AA0749
S11302B007D538F8021B2846FFF7CAFF38BBAD1C28
S11302C0A41E042C1AD3134E41F67130B063A70850
S11302D03168490849003160BF003A464146284622
S11302E0FFF797FF31684908490031600022790817
S11302F0B26308EB41087D19E41B40B92CB1B8F88E
S113030000102846FFF7A4FF08B9012000E00020F0
S1130310BDE8F08108000E40F8B52820016808699E
S1130320CD68846AAC4225D305F560518C4221D254
S1130330641B0419264E2168B1421BD1E168254F84
S11303404FF0FF3200F050F8B84213D100F044F8F7
S11303500ED20268B2420BD18168A268914207D3DF
S1130360C1684FF0FF32284600F03EF8B84201D091
S11303700120F2BD0020F2BDF8B52820006805690F
S1130380C468AE6A361BAE19274604E03846FFF748
S113039049FF07F50067F26810198742F6D329462A
S11303A02046FFF778FF90B100F016F80CD20268EF
S11303B007498A4208D1C1684FF0FF32204600F055
S11303C013F80449884201D00020F2BD0120F2BD97
S11303D007B0CD5EE320BBDE40F628000068A0F540
S11303E00061B1F5605F704730B50A4B1C6844F09A
S11303F020041C600125084B1D609A605D6002E0CA
S113040010F8014B9C610A46511E002AF8D1D869A4
S113041030BD00BFB0400E4000C001401748184A2C
S113042001681160FFF7A8FF0028FBD040F202200A
S113043000F02CF800BF10B5124C0020206000F032
S113044045F811490A68B2F5803F0AD040F2092103
S1130450884218BFB0F5007F03D1FFF75DFF00B1FC
S113046010BD4FF400602060016881F3088881F3B7
S113047009884FF4006148688047FEE7880000203F
S11304808C00002008ED00E004500E404FF00051B5
S113049008804FF20F0048800948016821F4E061A8
S11304A041F480610160BFF34F8F064906480A6832
S11304B002F4E06202430A60BFF34F8F00BFFDE71E
S11304C000500E400CED00E00400FA054FF000511E
S11304D04FF20F024888904201D1088870470028E3
S11304E004BF0888012802D140F2022070474FF46B
S11304F0007070470C490D4808600D48026842F4CA
S1130500700202600B48416941F400514161026884
S1130510920892000260416B490849004163016AF4
S113052021F080510162704708ED00E000000000F6
S113053088ED00E040300E4030B450F8041B79B12F
S11305400268436802440830DC0744BFA9F101048F
S1130550E31852F8045B43F8045B091FF9D1ECE794
S113056030BC704710B5074979441831064C7C44B7
S1130570163404E00A68081D114488470146A14264
S1130580F8D110BD2C0000003C0000004EF688514C
S1130590CEF20001086840F470000860BFF34F8F8A
S11305A0BFF36F8F4FF00070E1EE100A7047000048
S11305B089FFFFFF1000000074000000800000208D
S11305C0000000000120C046002801D0FFF7CAFF48
S11305D0AFF300800020AFF30080FFF71FFF00F0AF
S11305E000F800F001B800000746384600F002F8B1
S11305F0FBE700002021090326311820ABBEF9E7F0
S1130600024880470248804702480047F50400003A
S1130610370400003D060000AD1007B001000000E3
S113062000000701000800000080000000F04902FB
S113063000800000C0EA2101C0EA2101AFF300807C
S1130640FFF7A4FFFFF7BEFFFFF7FEBFFFF7FEBFF4
S1130650FFF7FEBFFFF7FEBFFFF7FEBFFFF7FEBFCA
S10F0660FFF7FEBFFFF7FEBFFFF7FEBF71
S903063DB9
