S01D00002E2F6275696C642F64656D6F5F51494F5F312E302E302E73333702
S31500000000402200204587030091170300951703003F
S31500000010A70A0A010002000004180FAC006481015F
S3150000002000000000000000000000000000000000CA
S3150000003000000000B8EA0300000000000000000015
S315000000400000000000000000FFFFFFFFFFFFFFFFB2
S31500000050FFFFFFFF0070070001000000000008001E
S31500000060FFFFFFFFFFFFFFFF28000000000000006A
S31500000070000000000000000000000000000000007A
S31500000080A8A00020A8940020A8940020A8940020EE
S315000000904022002022180400F0D80300E0180020B7
S311000000A0AC18002000000800A8A00020FA
S31500000200402200204587030091170300951703003D
S315000002109D17030099170300A117030041870300E8
S31500000220418703004187030041870300418703009C
S31500000230A5170300418703004187030055160300F5
S31500000240198C0300C96E0300DD31020041870300EB
S3150000025089690300356F0300D56E0300ED6E030058
S31500000260CD6E030041870300C18A030099C40100D3
S315000002701DF3020041870300418703004187030005
S315000002804187030041870300E98A03000116030042
S3150000029095F302004187030041870300418703006D
S315000002A0418703004187030041870300418703001C
S315000002B0396F0300D16E03009D580100B1BC0100E7
S315000002C0796F0300418703008D58010041870300C1
S315000002D041870300418703004187030041870300EC
S315000002E041870300418703004187030041870300DC
S315000002F0418703004187030041870300F8B500BF2B
S31500000300F8BC08BC9E467047F8B500BFF8BC08BCF0
S315000003109E46704710B5054C237833B9044B13B18C
S315000003200448AFF300800123237010BDE8270020A6
S315000003300000000074120400084B10B51BB10849F8
S315000003400848AFF300800848036803B910BD074B9F
S31500000350002BFBD0BDE81040184700BF000000008E
S31500000360EC27002074120400E8270020000000009B
S31500000370154B002B08BF134B9D46A3F5803A002171
S315000003808B460F461348144A121A00F065F80F4BB5
S31500000390002B00D098470E4B002B00D0984700202A
S315000003A0002104000D000D48002802D00C48AFF3D0
S315000003B0008000F02BF82000290004F093F800F0EC
S315000003C011F800BF000008004022002000000000D5
S315000003D000000000E6270020A8940020000000008E
S315000003E00000000008B5074B044613B10021AFF327
S315000003F00080054B1868836A03B19847204601F0D0
S315000004004BFF00BF0000000040DD030070B50E4B3F
S315000004100E4CE41AA41000251E46A54204D056F838
S31500000420253098470135F8E7FFF768FF084C094B78
S31500000430E41AA41000251E46A54204D056F825301D
S3150000044098470135F8E770BD402200204022002081
S31500000450442200204022002002440346934202D058
S3150000046003F8011BFAE770472DE9F04788B0002B27
S31500000470149F1299109EDDF84CA01D4627F0200708
S31500000480BBBF03F100431D4600232D231446B8BF0E
S315000004901446462F0B7003D0452F03D1013601E0D9
S315000004A0032300E0022307AA049206AA03928DE81A
S315000004B0480422462B4600F0E3FC472F804602D133
S315000004C0119BDB0728D5462F08EB060911D198F8B2
S315000004D00030302B0AD1002200232046294602F0A4
S315000004E0FDFA18B9C6F10106CAF80060DAF800305C
S315000004F09944002200232046294602F0EFFA08B963
S31500000500302202E0CDF81C9006E0079B994503D9FE
S31500000510591C07911A70F8E7079B159AC8EB030355
S315000005204046136008B0BDE8F08773B5034600295E
S31500000530B8BF494203F8022BB4BF2D222B2209294A
S31500000540427019DD0DF1070216460A2591FBF5F4F6
S3150000055005FB14113031092C02F8011D2146F5DC8A
S315000005603031541E02F8011CB4421A460AD214F85D
S31500000570012B03F8012BF7E730241A46214402F831
S31500000580024B5970101A02B070BD00002DE9F04FF1
S3150000059091B00C46DDF8688016461F46054601F008
S315000005A00BFA03680893184600F0D0FB00230E935D
S315000005B0D8F800300990073323F0070303F1080247
S315000005C094F818A0D4F800B0C8F80020D3E90023A6
S315000005D0C4E91223D4E9128929F000430B93CDF81C
S315000005E028804FF0FF32A74BDDE90A0102F0A8FA96
S315000005F0A0B94FF0FF32A34BDDE90A0102F082FAFF
S3150000060060B9002200234046494602F071FA10B153
S315000006102D2384F843309C4B9C4A0AE042464B46C5
S315000006204046494602F08CFA002800F09281984B29
S31500000630984ABAF1470F8CBF904698460323236128
S315000006402BF0040323604FF000093DE0BAF1670F79
S3150000065000F08A81BAF1470F00F0868123600021FD
S315000006600DF13302019363680590029200934246AE
S315000006704B460691CDF810A0CDF80CE02846FFF7C2
S31500000680F3FE0AF0DF03472B804600F08481BAF1BF
S31500000690650F0D9900F28D810139524604F1500023
S315000006A00D91FFF742FF0E9A8318012A81462361B6
S315000006B000F37C812268D10700F178819DF8333000
S315000006C013B12D2384F84330009733460FAA2146F1
S315000006D0284600F09FF9013002D14FF0FF3096E135
S315000006E023685A0501D4236965E0BAF1650F40F223
S315000006F0D58000220023D4E9120102F0EFF978B385
S315000007000123654A31462846B8470130E5D00E9B9D
S315000007100D9A9A420BDB2368D80708D423689B07F7
S3150000072040F111814FF0000804F1190906E1099B17
S31500000730089A31462846B8470130CED04FF0000817
S3150000074004F11A090E9B013B9845E7DA01234A4654
S3150000075031462846B8470130BFD008F10108F1E715
S315000007600D9B002B29DC01234B4A31462846B8470E
S315000007700130B2D00D9B23B90E9B13B92368D9075C
S31500000780CCD5099B089A31462846B8470130A4D0F3
S315000007904FF0000904F11A0A0D9B5B42994509DAEC
S315000007A00123524631462846B847013095D009F113
S315000007B00109F1E70E9B4246A7E00E9AA36D9A4205
S315000007C0A8BF1A46002A914606DC4FF0000A29EA1D
S315000007D0E97904F11A0B11E01346314642462846E0
S315000007E0B8470130F1D178E701235A463146284609
S315000007F0B84701303FF471AF0AF1010AA36DC9EBA6
S3150000080003029245F0DB08EB03090D9A0E9B9A4210
S315000008100FDB2368DA070CD40E9B0D9A9844C9EBBC
S3150000082008089B1A9845A8BF9846B8F1000F08DC3F
S315000008300FE0099B089A31462846B8470130EBD1AC
S315000008404BE743464A4631462846B84701303FF40F
S3150000085044AF4FF0000928EAE87804F11A0A09E0E3
S315000008600123524631462846B84701303FF435AF9A
S3150000087009F101090D9A0E9B9B1AC8EB03039945D2
S31500000880EEDB4BE7FFFFEF7F44DD030048DD0300AF
S315000008904CDD030050DD030054DD03000E9A012AEF
S315000008A001DCDB0738D50123424631462846B847E6
S315000008B001303FF412AF099B089A31462846B847E3
S315000008C001303FF40AAF00220023D4E9120102F0FE
S315000008D005F920B14FF0000804F11A0A0EE00E9B4C
S315000008E008F10102013B19E0012352463146284630
S315000008F0B84701303FF4F1AE08F101080E9B013B09
S315000009009845F1DB4B4604F1500231462846B8477C
S3150000091001307FF403AFE0E6012342463146284624
S31500000920B8470130EED1D8E601234A46314628467B
S31500000930B84701303FF4D1AE08F10108E3680F9AD9
S315000009409B1A9845F0DBE0680F9B9842B8BF1846A3
S315000009505DE06268531C0EA84BF480630DF1340E03
S315000009607FF474AE062201E012B90122626075E6D8
S31500000970002106910DF133018DE80C0023600590EE
S315000009804246CDF810A0CDF80CE002914B46284621
S31500000990FFF76AFD80460D9BD81C02DB6268934216
S315000009A01DDDAAF1020A5FFA8AFA70E601332361B5
S315000009B084E6BAF1660F14D10029636807DD216168
S315000009C013B92268D2071DD501330B4419E013B9B8
S315000009D02268D00701D5023313E0012311E04FF05E
S315000009E0670A0D9B0E9A934205DB22682361D107A5
S315000009F008D5013305E0002BD4BFC3F10203012360
S31500000A00134423610D9BA3654FF0000956E611B010
S31500000A10BDE8F08F2DE9F04791461F460A698B68BD
S31500000A20DDF820809342B8BF1346C9F8003091F82C
S31500000A30432006460C4612B10133C9F8003023683C
S31500000A40990642BFD9F800300233C9F8003025684C
S31500000A5015F0060510D104F1190A07E001235246E4
S31500000A6039463046C04701301AD00135E368D9F817
S31500000A7000209B1A9D42F1DB94F843302268003334
S31500000A8018BF012392060FD5E1185A1C302081F8B1
S31500000A904300224494F8451082F84310023303E0E1
S31500000AA04FF0FF30BDE8F08704F143023946304687
S31500000AB0C0470130F4D02268D9F80050E36802F04C
S31500000AC00602042A08BF5D1B2269A3680CBF25EA3B
S31500000AD0E57500259342C4BF9B1AED184FF0000937
S31500000AE01A344D4509D00123224639463046C047BF
S31500000AF00130D5D009F10109F3E70020BDE8F08700
S31500000B002DE9F04317460A7E85B06E2A98460646BA
S31500000B100C460C9B01F1430E00F0AE8011D8632AFF
S31500000B2022D009D8002A00F0BB80582A40F0CA809B
S31500000B3081F84520834955E0642A1ED0692A1CD0D5
S31500000B40C0E0732A00F0B08009D86F2A2ED0702A30
S31500000B5040F0B8800A6842F020020A603EE0752A3A
S31500000B6024D0782A3AD0ADE01A6801F14205111D69
S31500000B701960136884F84230A8E021681A6811F0F9
S31500000B80800F02D0111D196008E011F0400F02F12C
S31500000B900401196002D0B2F9003000E01368002B9E
S31500000BA03CDA2D225B4284F8432037E021681A683C
S31500000BB011F0800F02D0111D196007E011F0400FEF
S31500000BC002F10401196001D0138800E01368227E47
S31500000BD05C496F2A14BF0A2208221BE078225A4970
S31500000BE084F845202268186812F0800F00F1040589
S31500000BF01D6003D1550601D5038800E00368D007C0
S31500000C0044BF42F0200222601BB9226822F0200273
S31500000C1022601022002084F8430001E049490A229C
S31500000C206568A560002D08DB206820F004002060C0
S31500000C302BB9002D7DD175460CE0002B79D0754679
S31500000C40B3FBF2F002FB1033CB5C05F8013D034623
S31500000C500028F5D1082A0BD12368DA0708D52369BD
S31500000C6062689A42DEBF302305F8013C05F1FF3584
S31500000C70C5EB0E0323612EE008681A68496910F077
S31500000C80800F03D0101D1860136808E010F0400FA5
S31500000C9002F104001860136801D0198000E01960A1
S31500000CA000232361754616E01A68111D1960156840
S31500000CB062680021284600F0A3FE08B1401B606070
S31500000CC0636804E004F1420584F8422001232361AD
S31500000CD0002384F84330CDF800803B4603AA214622
S31500000CE03046FFF797FE013002D14FF0FF3026E085
S31500000CF023692A4639463046C0470130F5D0236875
S31500000D009B0710D5002504F1190907E001234A467F
S31500000D1039463046C0470130E7D00135E368039ACB
S31500000D209B1A9D42F2DBE068039B9842B8BF1846C7
S31500000D3005E00B7884F8423004F142058AE705B0F5
S31500000D40BDE8F08356DD030067DD0300034613F8B4
S31500000D50012B002AFBD1181A013870472DE9F74FED
S31500000D6003690C699C42804600F38380013C01F1D3
S31500000D7014074FEA840E00F1140657F8245006EBC8
S31500000D800E030193013556F82430B3FBF5F507EB56
S31500000D900E09002D39D04FF0000A3846B446D34626
S31500000DA050F8042B93B205FB03A34FEA134A9BB2F8
S31500000DB0C3EB0B03120CBCF800B005FB02A213FA3E
S31500000DC08BF34FEA124A1FFA82FBDCF80020CBEBCA
S31500000DD0124202EB23429BB243EA024381454FEAA9
S31500000DE0224B4CF8043BDBD256F80E306BB9019B14
S31500000DF0043B9E421A4602D3C8F8104005E012682A
S31500000E00043B002AF8D1013CF3E7404601F061F8C3
S31500000E1000282CDB013530464FF0000E57F8041B36
S31500000E20D0F800C08AB2C2EB0E03090C13FA8CF399
S31500000E30C1EB1C4202EB23429BB243EA0243B94593
S31500000E404FEA224E40F8043BE8D256F8242006EB3F
S31500000E50840362B9043B9E421A4602D3C8F8104086
S31500000E6005E01268043B002AF8D1013CF3E7284666
S31500000E7000E0002003B0BDE8F08F00000000000095
S31500000E802DE9F04F456A97B08246239CCDE90223AF
S31500000E9045B9102000F09EFDCAF824004560856023
S31500000EA00560C560DAF82430196859B15A684A6095
S31500000EB0012393408B60504600F032FEDAF824306E
S31500000EC000221A60039BA04A002BBFBF01232360A8
S31500000ED0039B23F00043B8BF0393DDF80C80A4BF47
S31500000EE00023236028F000431B0D1B0593421DD1F0
S31500000EF0229A42F20F731360029B43B9934A944BB2
S31500000F00C8F31300002814BF1846104600E09048A6
S31500000F10249B002B00F04A85C37813B100F1080327
S31500000F2000E0C31C249A136000F040BDDDE90245D1
S31500000F30002200232046294601F0D0FD074658B17D
S31500000F40229A01231360249B002B00F022858148FE
S31500000F501860013800F02ABD14AB019315AB00935D
S31500000F6022462B46504601F02FF8C8F30A56059044
S31500000F7056B1C5F3130343F07F51204641F44011A7
S31500000F80A6F2FF3611971DE0159B149E1E4406F22D
S31500000F903243202B0ADD029A06F21240C3F14003C7
S31500000FA022FA00F008FA03F3184304E0C3F1200024
S31500000FB0029B03FA00F001F0B3FA0123A1F1F871E4
S31500000FC0013E11930022644B01F06CF958A3D3E95A
S31500000FD0002301F01BFB58A3D3E9002301F064F9B9
S31500000FE0044630460D4601F0ABFA55A3D3E900237B
S31500000FF001F00CFB02460B462046294601F054F947
S3150000100004460D4601F0B2FD002283460023204629
S31500001010294601F06DFD58B1584601F091FA024695
S315000010200B462046294601F059FD08B90BF1FF3B56
S31500001030BBF1160F0DD8494901EBCB01DDE90223BF
S31500001040D1E9000101F072FD30B10BF1FF3B002345
S3150000105000E00123109300E01090149B9E1B731E6A
S31500001060089343BFC3F10009002308934FF000091A
S31500001070BBF1000F07DB089BCDF834B05B44089347
S315000010800023099306E0CBF1000309930023CBEB81
S3150000109009090D93209B092B27D8052BC4BF043BB8
S315000010A02093209BA3F10203CCBF00250125032B2F
S315000010B020D8DFE803F0060E0204012302E0012334
S315000010C008E000230C93219B002B1CDD0693984619
S315000010D01EE000230C93219B5B4403F10108069359
S315000010E04346012BB8BF012312E0012500232093BC
S315000010F00C9501E001230C934FF0FF3306939846BD
S315000011000022122303E00123069398461A462192F1
S31500001110DAF8244000226260042101F114029A42A6
S315000011201ED86268013262604900F6E7AFF30080BC
S3150000113061436F63A787D23FB3C8608B288AC63FD7
S31500001140FB799F501344D33F0000F07F78DD030006
S3150000115081DD030055DD03000000F83F88DD030054
S315000011606168504600F0A7FCDAF8243020601B685E
S315000011700793B8F10E0F00F25D81002D00F05A8141
S315000011809DED027BBBF1000F8DED0E7B31DDA04A9C
S315000011900BF00F0302EBC30393ED007B4FEA2B1416
S315000011A0E2068DED0A7B0CD59A4BDDE90E01D3E9FB
S315000011B0082301F055FB04F00F04CDE902010326D4
S315000011C000E00226934D6CB1E30708D5DDE90A017C
S315000011D0D5E9002301F01AFACDE90A0101366410B7
S315000011E00835F0E7DDE90A23DDE9020101F038FB05
S315000011F020E0CBF1000404B3854B864D04F00F02CA
S3150000120003EBC203D3E90023DDE90E0101F0FEF989
S31500001210CDE9020124110023022654B1E70705D5C2
S31500001220D5E9002301F0F2F90136012364100835EF
S31500001230F3E71BB1CDE9020100E00226109BEBB1FA
S31500001240DDE902450022744B2046294601F050FC98
S31500001250A0B1B8F1000F11D0069B002B40F3E68039
S315000012600BF1FF330A9300226C4B2046294601F00E
S31500001270CDF90136CDE90201069F02E0CDF828B08E
S315000012804746304601F05CF9DDE9022301F0BEF97C
S315000012900022634B01F008F80446A1F15075CFB95E
S315000012A00022604BDDE9020100F0FCFF22462B46DE
S315000012B0CDE9020101F03AFC002840F041822246C5
S315000012C005F10043DDE9020101F012FC002840F0BF
S315000012D02E82ABE00C9A4E4B791E002A4AD003EBC5
S315000012E0C103D3E9002300204F4901F0B9FA224691
S315000012F02B4600F0D7FF079C05460E46DDE90201A6
S3150000130001F034FC129001F01BF902460B46DDE9B0
S31500001310020100F0C7FF129B303304F8013B2A4656
S315000013203346CDE9020101F0E3FB002840F02183BA
S31500001330DDE902230020384900F0B4FF2A4633468F
S3150000134001F0D6FB002840F0D280079BE31ABB428F
S315000013506CDA0022314B2846314601F057F900225B
S3150000136005460E462D4BDDE9020101F04FF9CDE9A8
S315000013700201C3E703EBC10122462B46D1E9000176
S3150000138001F044F9079BCDE91201DC191D46DDE9A0
S31500001390020101F0EBFB064601F0D2F830360246B8
S315000013A00B46DDE9020100F07DFF05F8016BAC425A
S315000013B0CDE902014FF0000223D11B4BDDE91201FA
S315000013C000F072FF02460B46DDE9020101F0AEFBBA
S315000013D0002840F08C80DDE912230020124900F03D
S315000013E061FF02460B46DDE9020101F081FBE8B12F
S315000013F014F8013C302B04F1FF3240F0BA82144657
S31500001400F6E7064B01F002F9CDE90201BFE700BF9E
S3150000141088DD030050DE03000000F03F000024409A
S3150000142000001C40000014400000E03FDDE90E34DF
S31500001430CDE90234159B002B7CDBBBF10E0F79DC6A
S315000014408F4B03EBCB03D3E90067219B002B14DA08
S31500001450B8F1000F11DC40F06C810022894B304658
S31500001460394601F0D3F8DDE9022301F055FB454684
S315000014704646002840F05F8166E1079C32463B46BF
S31500001480DDE9020101F0ECF901F070FB054601F01F
S3150000149057F832463B4601F0B9F80B460246DDE9FD
S315000014A0020100F0FFFE05F1300E04F801EB079B88
S315000014B0C3EB040EF045CDE902012ED102460B46E0
S315000014C000F0F2FE8046894602460B463046394613
S315000014D001F00EFB78B942464B463046394601F0DC
S315000014E0FDFA002800F04782E90704D443E2DDF85C
S315000014F028B000E01C4614F8012C392A04F1FF3309
S3150000150007D1079A9A42F5D1079930220BF1010BC0
S315000015100A701A7801321A702DE200225A4B01F035
S3150000152075F800220023CDE9020101F0D7FA002860
S31500001530A4D020E20C9A002A2DD0209A012A0ADC97
S31500001540119A12B103F2334302E0149BC3F136033E
S31500001550099D4C4615E0099B08F1FF35AB42BFBF1C
S31500001560099B0995EA1A0D9BB7BF9B185D1B0D9346
S315000015700025B8F1000FB9BFC8EB090400234C469B
S315000015804346089A01211A4450469944089200F0AD
S3150000159066FB064602E0099D0C9E4C465CB1089B24
S315000015A0002B08DDA342089AA8BF2346C3EB09090E
S315000015B0E41AD31A0893099B002B1DDD0C9BABB1D3
S315000015C085B131462A46504600F0E4FB059A0146AD
S315000015D00646504600F04CFB05990746504600F07B
S315000015E09FFA0597099B5A1B06D000E0099A0599B0
S315000015F0504600F0CFFB05900121504600F02FFB2E
S315000016000D9B05465BB31A460146504600F0C2FBE9
S31500001610209B012B054618DC029B83B9039BC3F371
S31500001620130373B9039B23F000473F0D3F054FB1EA
S31500001630089B013309F101090893012702E00027FD
S3150000164000E0029F0D9B73B100E000272B6905EBBC
S315000016508303186900F0B6FAC0F1200004E0209B6D
S31500001660012BD9DD0D9F0120089B184410F01F00A7
S315000016700ED0C0F12003042B08DDC0F11C0008E0E9
S3150000168088DD0300000014400000244006D0184600
S315000016901C30089B0344814404440893B9F1000FAD
S315000016A005DD4A460599504600F0C2FB0590089BA9
S315000016B0002B05DD29461A46504600F0B9FB0546C3
S315000016C0109BEBB12946059800F003FC002817DAB9
S315000016D000230A220599504600F039FA0C9B059022
S315000016E00BF1FF3B002B00F05881002331460A2204
S315000016F0504600F02CFA069B002B064637DC33E0FA
S31500001700B8F1000F2ADC209B022B27DDCDF81880CC
S31500001710069B83B929460522504600F018FA014671
S315000017200546059800F0D5FB00280DDC03E03D4694
S3150000173000E000252E46219B079C6FEA030B0AE07A
S31500001740DDF828B03D463E46079B079A5C1C3123D0
S3150000175013700BF1010BB0460026F7E00C9BCDF899
S31500001760188023B9079CB1E0209B022BD0DC002C0B
S3150000177005DD31462246504600F05AFB06469FB12B
S315000017807168504600F097F93269023204469200B9
S3150000179006F10C010C3000F083F901222146504677
S315000017A000F046FB804600E0B046029BDDF81C9048
S315000017B003F00103089329460598FFF7CFFA31464F
S315000017C0044600F13007059800F083FB424602907C
S315000017D02946504600F099FBC36802463BB90146CC
S315000017E00990059800F075FB099A034600E001236D
S315000017F011465046099300F093F9099B4BB9209A7C
S315000018003AB9089A2AB9392F28D0029B002B1ADC3C
S315000018101BE0029A002A04DB1AD1209AC2B9089A60
S31500001820B2B9002B11DD01220599504600F000FBEC
S315000018302946059000F04DFB002802DC05D1FA0789
S3150000184003D5392F0AD004F1310709F101040CE060
S31500001850002B09F101040BDD392F05D1392389F855
S31500001860003009F1010954E0013789F800706DE094
S31500001870079B069A04F8017CE31A9342A1463AD0E4
S3150000188000230A220599504600F061F94645059065
S315000018904FF000034FF00A023146504604D100F0E3
S315000018A056F90646804686E700F051F94146064657
S315000018B000230A22504600F04AF980467BE70023BF
S315000018C00A220599504600F042F9059029460598E6
S315000018D0FFF744FA00F1300704F8017B079B069AEC
S315000018E0E31A9342EBDB079B012AACBF9B1801333B
S315000018F0B0469946002601220599504600F098FA0E
S315000019002946059000F0E5FA002802DC15D1FB0710
S3150000191013D54C4614F8013C392B04F1FF3209D19A
S31500001920079B934204D10BF1010B3123079A02E086
S315000019301446EFE70133137008E04C4614F8013CF7
S31500001940302B04F1FF3201D11446F7E72946504601
S3150000195000F0E6F8B8F1000F0DD02EB1464503D0E1
S315000019603146504600F0DCF84146504600F0D8F8C3
S3150000197001E0DDF828B00599504600F0D1F80023C3
S31500001980229A23700BF101031360249B1BB11C6088
S3150000199001E008480AE0079808E0069B002B3FF79D
S315000019A0E1AE209B022B7FF7DDAEB1E617B0BDE8B6
S315000019B0F08F00BF54DD0300044B1B68186A044B0C
S315000019C0002808BF1846F030704700BFA822002044
S315000019D0AC220020024B0146186800F09FBB00BFF6
S315000019E0A8220020024B0146186800F049BB00BF40
S315000019F0A8220020000000000000000000000000F7
S31500001A0001F0FF01102A2BDB10F0070F08D010F8A9
S31500001A10013B013A8B422DD010F0070F42B3F6D1AD
S31500001A20F0B441EA012141EA014122F007047FF0C6
S31500001A3000070023F0E80256083C85EA010586EA1D
S31500001A40010685FA47F5A3FA87F586FA47F6A5FA59
S31500001A5087F68EB9EED1F0BC01F0FF0102F0070265
S31500001A6032B110F8013B013A83EA010313B1F8D110
S31500001A700020704701387047002D06BF35460338F1
S31500001A80073815F0010F07D1013015F4807F02BF2A
S31500001A90013015F4C03F0130F0BC0138704700BF7B
S31500001AA010B5431E0A44914204D011F8014B03F8C5
S31500001AB0014FF8E710BD70B5456A04460E463DB9BC
S31500001AC01020FFF787FF6062456085600560C5608E
S31500001AD0656AEB6843B1636ADB6853F8260078B140
S31500001AE0026843F8262017E021220421204600F050
S31500001AF0B9FA636AE860DB68002BECD1002070BDA0
S31500001B00012101FA06F56A1D9200204600F0AAFAA4
S31500001B100028F3D04660856000230361C36070BD72
S31500001B2070B5446A06460D463CB91020FFF752FFD1
S31500001B307062446084600460C4603DB1736A6A6820
S31500001B40DB6853F82210296043F8225070BD2DE956
S31500001B50F0410D691F4606460C4601F1140E00239E
S31500001B60DEF8000081B202FB01710F0C000C02FBD3
S31500001B70007089B2013301EB00419D424FEA1047E4
S31500001B804EF8041BECDCD7B1A3689D4212DB6168FA
S31500001B9030460131FFF78FFF2269023204F10C0152
S31500001BA0804692000C30FFF77BFF21463046FFF758
S31500001BB0B7FF444604EB850301355F612561204686
S31500001BC0BDE8F081030C1B0413B90004102300E0E8
S31500001BD0002310F07F4F04BF0002083310F0704F4F
S31500001BE004BF0001043310F0404F04BF80000233ED
S31500001BF0002803DB420003D5581C7047184670477F
S31500001C0020207047036813F007020BD0D90722D4AF
S31500001C109A074BBF5B089B08036003604CBF01201B
S31500001C200220704799B209B91B0C102213F0FF0F5E
S31500001C3004BF1B0A0832190704BF1B09043299079F
S31500001C4004BF9B080232D90702D45B0805D00132D3
S31500001C50036010467047002070472020704710B57B
S31500001C600C460121FFF727FF01224461026110BDE6
S31500001C702DE9F74F14460A6923699A42B8BF0B4605
S31500001C808846BCBFA0461C46D8F81070D4F8109001
S31500001C90D8F80830D8F8041007EB09069E42C8BFEA
S31500001CA00131FFF708FF00F1140505EB860C2B4602
S31500001CB00022634502D243F8042BFAE704F114022A
S31500001CC008F1140102EB890301EB87070093009BDF
S31500001CD00192934257D9B2F800B0BBF1000F23D05E
S31500001CE08946AE464FF0000859F8044BBEF800A0EE
S31500001CF0A3B20BFB03A34FEA144ADEF800404344A9
S31500001D004FEA14480BFB0A8404EB1344F2469BB2D9
S31500001D1043EA04434F454FEA14484AF8043B01D9C5
S31500001D20D646E1E7CEF80480019BB3F802A0043260
S31500001D30BAF1000F21D02B682C4689464FF00008D7
S31500001D40B9F800E0B4F802B00AFB0EBEF044A346B0
S31500001D509BB243EA08434BF8043B59F8043BB4F8FA
S31500001D6004E01B0C0AFB03E303EB18434F454FEA61
S31500001D70134801D95C46E3E763600435A7E75CF8DE
S31500001D80043D13B9013E002EF9DC066103B0BDE83F
S31500001D90F08F00002DE9F843154612F003020646BF
S31500001DA00F4607D0013A214C002354F82220FFF7B2
S31500001DB0CEFE0746AD1036D0746A3CB91020FFF748
S31500001DC009FE7062446084600460C460D6F82480B2
S31500001DD0D8F808404CB940F271213046FFF73FFF72
S31500001DE00023C8F80800044603604FF00008EB071C
S31500001DF00AD5394622463046FFF73AFF394681462C
S31500001E003046FFF78DFE4F466D100CD0206808B1A6
S31500001E100446ECE7224621463046FFF729FF2060BC
S31500001E20C0F80080F4E73846BDE8F88378DE0300A2
S31500001E302DE9F0470C464FEA621A26694968A368FD
S31500001E40564407469146751CAB4202DA01315B00E7
S31500001E50FAE73846FFF72FFE0023804600F114010B
S31500001E601A46534503DA41F823200133F9E72AEAF3
S31500001E70EA73206901EB830319F01F0904F11401C9
S31500001E8001EB800E14D0C9F1200C0022086800FA7C
S31500001E9009F002439A4643F8042B51F8042B8E4569
S31500001EA022FA0CF2F2D8CAF8042042B1B51C06E0B8
S31500001EB0043B51F8042B43F8042F8E45F9D8013D15
S31500001EC03846C8F810502146FFF72AFE4046BDE8BE
S31500001ED0F08703690A699B1A10B511D19200143074
S31500001EE0143183180A4453F8044D52F8041D8C42E9
S31500001EF002D007D3012010BD9842F4D3002010BDB4
S31500001F00184610BD4FF0FF3010BD2DE9F8430C46C2
S31500001F100746114620461546FFF7DBFF061E08D189
S31500001F2031463846FFF7C7FD012303614661BDE828
S31500001F30F883BCBF23462C4638466168BABF1D46A7
S31500001F4001260026FFF7B7FD2B69C660266905F155
S31500001F501409143404EB860709EB830800F1140511
S31500001F604FF0000C54F8043B59F8042B1CFA83F18B
S31500001F701FFA82FE120CCEEB0101C2EB134303EBF8
S31500001F80214389B24FEA234CC84541EA0343A6469A
S31500001F9045F8043BE6D8BE450ED25EF8041B1CFA93
S31500001FA081F2131403EB114392B242EA03424FEA61
S31500001FB0234C45F8042BEEE755F8043D0BB9013EDA
S31500001FC0FAE70661BDE8F8832DE9F34101211C46D5
S31500001FD0089E099D9046FFF76EFDC4F31303C4F3F4
S31500001FE00A5407460CB143F480130193B8F1000F6D
S31500001FF019D002A840F8088DFFF704FE009B48B1EF
S31500002000019AC0F1200102FA01F10B43C2407B6143
S31500002010019200E07B61019BBB61002B14BF022192
S315000020200121396107E001A8FFF7ECFD019B7B6107
S3150000203001213961203034B1A4F2334404443460C0
S31500002040C0F1350009E007EB8103A0F232403060B1
S315000020501869FFF7B7FDC0EB41102860384602B09B
S31500002060BDE8F08138B502FB01F4214600F056F8D0
S31500002070054618B122460021FEF7EEF9284638BD7E
S3150000208038B50546002946D051F8043C0C1F002BF4
S31500002090B8BFE41800F0D8F81F4A1368114613B900
S315000020A06360146032E0A3420ED92268A01883420E
S315000020B004BF18685B68636004BF121822600C6076
S315000020C024E0A24203D813465A68002AF9D11868B8
S315000020D01918A1420BD1216801445818824219608F
S315000020E014D1106852685A60014419600EE002D992
S315000020F00C232B600AE021686018824204BF106836
S315000021005268626004BF091821605C602846BDE819
S31500002110384000F09AB838BD0828002070B5CD1CAC
S3150000212025F0030508350C2D38BF0C25002D064675
S3150000213001DBA94202D90C23336046E000F084F8A3
S31500002140234B1C681A462146A1B10B685B1B0ED4B3
S315000021500B2B03D90B60CC18CD501EE08C420DBF63
S3150000216063684B686360136018BF0C4615E00C4645
S315000021704968E9E7174C23681BB9304600F02CF88C
S3150000218020602946304600F027F8431C18D0C41CAE
S3150000219024F00304A0420DD12560304600F055F826
S315000021A004F10B00231D20F00700C31A0ED05A427B
S315000021B0E25070BD211A304600F00EF80130EBD126
S315000021C00C233360304600F040F8002070BD00BF9D
S315000021D0082800200428002038B5064C00230546B0
S315000021E00846236000F04AF8431C02D1236803B175
S315000021F02B6038BD18870020034B1B68186A034BF9
S31500002200002808BF18467047A8220020AC220020EC
S3150000221008B5034B1868FFF7EFFFD0F8EC0008BDD0
S31500002220A822002082B001B901A93AB143B11378BE
S315000022300B601278101C18BF012003E0104601E065
S315000022406FF0010002B070477047704710F8012B1D
S3150000225011F8013B012A28BF9A42F7D0D01A7047DD
S3150000226049B1FF2A85BF8A2303600A704FF0FF3009
S3150000227098BF01207047084670470000044A054988
S315000022801368002B08BF0B461844106018467047A9
S315000022900C280020FFFF0020FEE700BF81F0004170
S315000022A002E000BF83F0004330B54FEA41044FEA35
S315000022B0430594EA050F08BF90EA020F1FBF54EAD0
S315000022C0000C55EA020C7FEA645C7FEA655C00F06C
S315000022D0E2804FEA5454D4EB5555B8BF6D420CDD3D
S315000022E02C4480EA020281EA030382EA000083EAC0
S315000022F0010180EA020281EA0303362D88BF30BD60
S3150000230011F0004F4FEA01314FF4801C4CEA1131B5
S3150000231002D0404261EB410113F0004F4FEA033314
S315000023204CEA133302D0524263EB430394EA050F9F
S3150000233000F0A780A4F10104D5F1200E0DDB02FA0E
S315000023400EFC22FA05F2801841F1000103FA0EF2A2
S31500002350801843FA05F359410EE0A5F120050EF168
S31500002360200E012A03FA0EFC28BF4CF0020C43FA99
S3150000237005F3C01851EBE37101F0004507D54FF0A6
S31500002380000EDCF1000C7EEB00006EEB0101B1F5F6
S31500002390801F1BD3B1F5001F0CD349085FEA30003C
S315000023A04FEA3C0C04F101044FEA445212F5800F47
S315000023B080F09A80BCF1004F08BF5FEA500C50F1E4
S315000023C0000041EB045141EA050130BD5FEA4C0CC7
S315000023D0404141EB010111F4801FA4F10104E9D150
S315000023E091F0000F04BF01460020B1FA81F308BF47
S315000023F02033A3F10B03B3F120020CDA0C3208DD13
S3150000240002F1140CC2F10C0201FA0CF021FA02F1ED
S315000024100CE002F11402D8BFC2F1200C01FA02F15D
S3150000242020FA0CFCDCBF41EA0C019040E41AA2BF82
S3150000243001EB0451294330BD6FEA04041F3C1CDA4A
S315000024400C340EDC04F11404C4F1200220FA04F06A
S3150000245001FA02F340EA030021FA04F345EA030114
S3150000246030BDC4F10C04C4F1200220FA02F001FAD6
S3150000247004F340EA0300294630BD21FA04F0294658
S3150000248030BD94F0000F83F4801306BF81F48011F1
S315000024900134013D4EE77FEA645C18BF7FEA655C64
S315000024A029D094EA050F08BF90EA020F05D054EA36
S315000024B0000C04BF1946104630BD91EA030F1EBF3B
S315000024C00021002030BD5FEA545C05D1400049413F
S315000024D028BF41F0004130BD14F580043CBF01F532
S315000024E0801130BD01F0004545F0FE4141F4700118
S315000024F04FF0000030BD7FEA645C1ABF19461046F3
S315000025007FEA655C1CBF0B46024650EA013406BFF3
S3150000251052EA033591EA030F41F4002130BD00BFB2
S3150000252090F0000F04BF0021704730B54FF480646F
S3150000253004F132044FF000054FF0000150E700BFF0
S3150000254090F0000F04BF0021704730B54FF480644F
S3150000255004F1320410F0004548BF40424FF000013C
S315000025603EE700BF42004FEAE2014FEA31014FEA7F
S3150000257002701FBF12F07F4393F07F4F81F06051CE
S31500002580704792F0000F14BF93F07F4F704730B53D
S315000025904FF4607401F0004521F0004120E700BFD0
S315000025A050EA010208BF704730B54FF000050AE057
S315000025B050EA010208BF704730B511F0004502D558
S315000025C0404261EB41014FF4806404F132045FEA5A
S315000025D0915C3FF4DCAE4FF003025FEADC0C18BFFF
S315000025E003325FEADC0C18BF033202EBDC02C2F1F5
S315000025F0200300FA03FC20FA02F001FA03FE40EA87
S315000026000E0021FA02F11444C1E600BF70B54FF086
S31500002610FF0C4CF4E06C1CEA11541DBF1CEA135568
S3150000262094EA0C0F95EA0C0F00F0DEF82C4481EAD0
S31500002630030621EA4C5123EA4C5350EA013518BFF0
S3150000264052EA033541F4801143F4801338D0A0FBDD
S3150000265002CE4FF00005E1FB02E506F00042E0FB8A
S3150000266003E54FF00006E1FB03569CF0000F18BF90
S315000026704EF0010EA4F1FF04B6F5007F64F5407438
S3150000268004D25FEA4E0E6D4146EB060642EAC621CB
S3150000269041EA55514FEAC52040EA5E504FEACE2E38
S315000026A0B4F1FD0C88BFBCF5E06F1ED8BEF1004F3B
S315000026B008BF5FEA500E50F1000041EB045170BDB7
S315000026C006F0004646EA010140EA020081EA0301FB
S315000026D0B4EB5C04C2BFD4EB0C0541EA045170BDF7
S315000026E041F480114FF0000E013C00F3AB8014F171
S315000026F0360FDEBF002001F0004170BDC4F10004BA
S31500002700203C35DA0C341BDC04F11404C4F120053A
S3150000271000FA05F320FA04F001FA05F240EA020095
S3150000272001F0004221F0004110EBD37021FA04F6CB
S3150000273042EB06015EEA430E08BF20EAD37070BD85
S31500002740C4F10C04C4F1200500FA04F320FA05F0E4
S3150000275001FA04F240EA020001F0004110EBD370E6
S3150000276041F100015EEA430E08BF20EAD37070BD56
S31500002770C4F1200500FA05F24EEA020E20FA04F32F
S3150000278001FA05F243EA020321FA04F001F00041DE
S3150000279021FA04F220EA020000EBD3705EEA430E4F
S315000027A008BF20EAD37070BD94F0000F0FD101F07E
S315000027B00046400041EB010111F4801F08BF013CB7
S315000027C0F7D041EA060195F0000F18BF704703F0F5
S315000027D00046520043EB030313F4801F08BF013D7C
S315000027E0F7D043EA0603704794EA0C0F0CEA135538
S315000027F018BF95EA0C0F0CD050EA410618BF52EAF2
S315000028004306D1D181EA030101F000414FF00000F7
S3150000281070BD50EA410606BF1046194652EA430605
S3150000282019D094EA0C0F02D150EA013613D195EA79
S315000028300C0F05D152EA03361CBF104619460AD1C1
S3150000284081EA030101F0004141F0FE4141F47001CB
S315000028504FF0000070BD41F0FE4141F4780170BDBB
S3150000286070B54FF0FF0C4CF4E06C1CEA11541DBF20
S315000028701CEA135594EA0C0F95EA0C0F00F0A7F822
S31500002880A4EB050481EA030E52EA03354FEA01314F
S3150000289000F088804FEA03334FF0805545EA131362
S315000028A043EA12634FEA022245EA111545EA10652A
S315000028B04FEA00260EF000419D4208BF964244F1C1
S315000028C0FD0404F5407402D25B084FEA3202B61AE0
S315000028D065EB03055B084FEA32024FF480104FF4B4
S315000028E0002CB6EB020E75EB030E22BFB61A754628
S315000028F040EA0C005B084FEA3202B6EB020E75EBBB
S31500002900030E22BFB61A754640EA5C005B084FEA22
S315000029103202B6EB020E75EB030E22BFB61A7546EF
S3150000292040EA9C005B084FEA3202B6EB020E75EBFA
S31500002930030E22BFB61A754640EADC0055EA060EBB
S3150000294018D04FEA051545EA16754FEA06164FEAFE
S31500002950C30343EA52734FEAC2025FEA1C1CC0D1AA
S3150000296011F4801F0BD141EA00014FF000004FF037
S31500002970004CB6E711F4801F04BF01430020B4F1F8
S31500002980FD0C88BFBCF5E06F3FF6AFAEB5EB030CB0
S3150000299004BFB6EB020C5FEA500C50F1000041EBAD
S315000029A0045170BD0EF0004E4EEA113114EB5C047A
S315000029B0C2BFD4EB0C0541EA045170BD41F480114D
S315000029C04FF0000E013C90E645EA060E8DE60CEA55
S315000029D0135594EA0C0F08BF95EA0C0F3FF43BAF72
S315000029E094EA0C0F0AD150EA01347FF434AF95EA29
S315000029F00C0F7FF425AF104619462CE795EA0C0F0D
S31500002A0006D152EA03353FF4FDAE1046194622E7D9
S31500002A1050EA410618BF52EA43067FF4C5AE50EAB3
S31500002A2041047FF40DAF52EA43057FF4EBAE12E7A3
S31500002A304FF0FF3C06E000BF4FF0010C02E000BF84
S31500002A404FF0010C4DF804CD4FEA410C7FEA6C5C67
S31500002A504FEA430C18BF7FEA6C5C1BD001B050EA0A
S31500002A60410C0CBF52EA430C91EA030F02BF90EAF5
S31500002A70020F0020704710F1000F91EA030F58BFB4
S31500002A80994208BF90422CBFD8176FEAE37040F016
S31500002A90010070474FEA410C7FEA6C5C02D150EAB4
S31500002AA0013C07D14FEA430C7FEA6C5CD6D152EA6F
S31500002AB0033CD3D05DF8040B704700BF8446104634
S31500002AC062468C461946634600E000BF01B5FFF733
S31500002AD0B7FF002848BF10F1000F01BD4DF808ED03
S31500002AE0FFF7F4FF0CBF012000205DF808FB00BFD4
S31500002AF04DF808EDFFF7EAFF34BF012000205DF82E
S31500002B0008FB00BF4DF808EDFFF7E0FF94BF01207A
S31500002B1000205DF808FB00BF4DF808EDFFF7CEFF7B
S31500002B2094BF012000205DF808FB00BF4DF808EDBA
S31500002B30FFF7C4FF34BF012000205DF808FB00BF8B
S31500002B404FEA410C7FEA6C5C02D150EA013C0AD1A3
S31500002B504FEA430C7FEA6C5C02D152EA033C02D195
S31500002B604FF0000070474FF0010070474FEA4102F6
S31500002B7012F5001215D211D56FF47873B3EB6252C9
S31500002B8012D94FEAC12343F0004343EA505311F0F0
S31500002B90004F23FA02F018BF404270474FF0000082
S31500002BA0704750EA013005D111F0004008BF6FF0C0
S31500002BB0004070474FF00000704700BF024A0349CB
S31500002BC0034800F0CBB800BF8FDF030098DF030097
S31500002BD0A1DF0300704770477047002070477047B9
S31500002BE07047704700207047704770477047000075
S31500002BF0F0B5074C074E0FCC87B001AD0FC501AD40
S31500002C000FCD276834460FC43046276007B0F0BDA5
S31500002C10B0DF03001C87002080B483B000AF0346FA
S31500002C20FB71044AFB79137000BF0C37BD465DF893
S31500002C30047B70471028002090B585B000AFF8607F
S31500002C40B9607A603B60142002F010FB0246424BEA
S31500002C501A60414B1B68002B79D0FB68002B19D0FA
S31500002C603D4B1C68F868FEF771F803469BB20133CA
S31500002C709BB2184602F0FAFA03462360364B1B68ED
S31500002C801B68002B06D0344B1B681B68F968184676
S31500002C903AF048FCBB68002B19D02F4B1C68B8686B
S31500002CA0FEF754F803469BB201339BB2184602F076
S31500002CB0DDFA03466360284B1B685B68002B06D071
S31500002CC0254B1B685B68B96818463AF02BFC7B6895
S31500002CD0002B19D0204B1C687868FEF737F803469E
S31500002CE09BB201339BB2184602F0C0FA0346A360BA
S31500002CF0194B1B689B68002B06D0174B1B689B68FB
S31500002D00796818463AF00EFC3B68002B19D0124B36
S31500002D101C683868FEF71AF803469BB201339BB26B
S31500002D20184602F0A3FA0346E3600B4B1B68DB6808
S31500002D30002B06D0084B1B68DB68396818463AF04A
S31500002D40F1FB054B1B6897F820201A7400E000BFC2
S31500002D501437BD4690BD00BF3087002080B586B0D1
S31500002D6002AFF860B9607A60074B1A68074B1B78A8
S31500002D70009313467A68B968F868FFF75DFF00BFED
S31500002D801037BD4680BD00BF1C240020182400203B
S31500002D9080B588B000AFF860B9607A600123FB7730
S31500002DA07A68B968F86800F003FBB861BB69002B64
S31500002DB002D10223FB7718E0144B1B68B969184649
S31500002DC000F07AFF0346FB75FB7D012B02D103233E
S31500002DD0FB770AE00D4B1B68184600F0F3FF03462D
S31500002DE0012B0ED100F050FB0BE0B86900F022FB7E
S31500002DF0BB68002B06D0FA7FBB68F9681046984777
S31500002E0000E000BF2037BD4680BD00BF38870020E8
S31500002E1080B500AF2BF082FAFFF7D0FEFFF7DAFE9F
S31500002E20282000F015FF0246014B1A6000BF80BD46
S31500002E303887002080B500AF0D4B1B681B78022B2E
S31500002E4002D1002025F0CCFB0A4B00225A70FFF776
S31500002E50C2FE00F0C5FF4FF47A71022001F04CF972
S31500002E600120FFF7D9FE03F08DFE00BF80BD00BF35
S31500002E70348700203C87002080B582B000AF03462F
S31500002E800A46FB711346BB7197F90730184608F0DE
S31500002E903DFE054AFB79D370034ABB79137100BF27
S31500002EA00837BD4680BD00BF3C87002080B500AF17
S31500002EB029F074FF13210B20FFF7DEFF012100200C
S31500002EC02BF01EFC00F058FD012025F089FB0D4B70
S31500002ED001225A7003F032FE0B490C482DF06AFFAE
S31500002EE00020FFF799FE03F003FD094A1421012093
S31500002EF02EF0F8FA064A142100202EF0F3FA00BF4D
S31500002F0080BD00BF3C870020DB2B0000352E000073
S31500002F10252F000080B400AF00BFBD465DF8047BDE
S31500002F20704700BF80B584B000AF0346FB71FB79E4
S31500002F300D2B47D801A252F823F000BF7B2F0000CB
S31500002F40872F0000932F0000A72F0000752F000089
S31500002F50C52F0000C52F0000C52F0000C52F00009B
S31500002F60C52F0000C52F0000C52F0000A12F0000AF
S31500002F70BF2F000000F088FA27E0FB7914211846DD
S31500002F802BF006FC21E0FB79142118462BF0B6FD48
S31500002F901BE0FB794FF47A71184601F0ADF814E0A6
S31500002FA001F00EF811E01CF095FE0346FB73FB7B67
S31500002FB0022B09D101F03CF9FFF712FE04E001F003
S31500002FC01FFA02E000BF00E000BF00BF1037BD4699
S31500002FD080BD00BF80B483B000AF0346FB710B46D3
S31500002FE0BB7113467B71FB79002B01D000230AE0ED
S31500002FF07B79002B01D0832305E0BB79002B01D020
S31500003000812300E0C32318460C37BD465DF8047BD8
S31500003010704700BF80B584B000AF0346FB710B4616
S31500003020BB711346BB80374B1B68184600F0AEFEDB
S31500003030F860FB68002B5BD0FB681B79FA799A4233
S3150000304058D1FB689B7A002B02D0022B28D056E081
S31500003050FB68DB89BA889A424ED1FB681B7BBA793A
S315000030609A4249D1FB685B6F002B0AD0FB6893F844
S315000030708420FB681A71FB685B6FFA6811460020B2
S315000030809847204B1B68184600F04CFEF860F8681D
S3150000309000F0D0F91C4A0A2104202EF023FA2BE076
S315000030A0FB68DB89BA889A4228D1FB681B7BBA7910
S315000030B09A4223D1FB685B6F002B0AD0FB6893F81A
S315000030C08420FB681A71FB685B6FFA681146002062
S315000030D098470C4B1B68184600F024FEF860F86809
S315000030E000F0A8F9084A0A2104202EF0FBF905E0B1
S315000030F000BF04E000BF02E000BF00E000BF1037E1
S31500003100BD4680BD38870020252F000080B5A0B0C1
S3150000311000AF0346FB71FFF764FD07F10C03742251
S3150000312000211846FDF798F96423BB816423FB81CF
S3150000313001233B7401233B750023BB740123FB74FD
S315000031400A237B740023BB7501233B7600237B8314
S315000031500123BB774FF6FE733B84302387F822307A
S31500003160012387F82330002387F8243007F10C0366
S3150000317040F6B83200211846FFF70AFEFB79012B0C
S3150000318003D141F2883000F031FF00BF8037BD46E1
S3150000319080BD00BF80B584B000AF78607B68DB7B04
S315000031A01A4600210020FFF715FF0346FB737B68D4
S315000031B05B7D012B35D17B681B685A797B681B6860
S315000031C05B88194610461DF059FE0346002B28D091
S315000031D07B681B685B880A2B0ED0192B16D0032B35
S315000031E000D01DE07B68DB7B1A4601210020FFF73B
S315000031F0F1FE0346FB7313E07B68DB7B1A46012175
S315000032000020FFF7E7FE0346FB7309E07B68DB7BE4
S315000032101A4601210020FFF7DDFE0346FB7300BFBF
S31500003220BDE07B685B7D002B40F0B9807B681B6846
S315000032305A797B681B685B88194610461DF006FEA6
S315000032400346002B00F0AB807B681B685B88052B70
S315000032503FD801A252F823F071320000D3320000A9
S31500003260D3320000AF320000BB320000C73200008C
S315000032700023FB73002022F08DFA7B68DB7C002B99
S3150000328003D10120FFF742FF89E07B68DB7CF02B4E
S3150000329003D10020FFF73AFF81E07B68DB7B1A460B
S315000032A001210020FFF796FE0346FB7377E078685E
S315000032B002F000FA0346FB7371E0786802F03CFA0C
S315000032C00346FB736BE0786802F048FB0346FB732A
S315000032D065E07B681B685A79334B5A717B681B68BB
S315000032E05A88314B5A807B689A7C2F4B1A717B68BF
S315000032F01B79042B03D12C4B01221A7002E02A4BB6
S3150000330000221A707B681B685B88B3F56F4F14D177
S315000033107B68DA7C244B1A727B689B687A68127D1C
S315000033201344214AD3607B689B89DAB27B681B7D94
S31500003330D31ADAB21C4B5A7221E01B4B01221A72C5
S31500003340194B1A4ADA607B689B89DAB27B681B7D67
S31500003350D31ADAB2154BDA707B68DA7C134B9A70A3
S31500003360124BDB78002B07D07B689B687A68127D4E
S3150000337013440E4A536002E00C4B00225A600A487E
S31500003380FFF730FC0346012B02D18123FB7301E0DA
S315000033900023FB73FB7B184622F0FCF900BFFB7B86
S315000033A018461037BD4680BD14280020242800206A
S315000033B090B587B000AFF860B9607A608820FEF7F4
S315000033C009FB03467B617B69002B2ED07B69742247
S315000033D0F9681846FEF764FB2EF034F90246FB68DE
S315000033E01B8813441C46FB685B8818462CF074FB4C
S315000033F00346E2187B699A677B699A6F7B681A4471
S315000034007B69DA677B69BA685A67FB681A797B69F0
S3150000341083F8842022F08AF803461A467B691A71DB
S315000034207B699A6F7B69C3F880207B6918461C37D5
S31500003430BD4690BD80B582B000AF78607B68002B3A
S3150000344002D07868FEF7CEFA00BF0837BD4680BDC9
S3150000345080B400AF0B4B1B681B78022B01D0C8232E
S315000034600AE0084B1B689B88C72B01D8C82303E0DA
S31500003470044B1B689B880A331846BD465DF8047BDF
S31500003480704700BF3487002080B582B000AF374B4D
S315000034901B68184600F07AFC78607B68002B50D0D9
S315000034A02EF0D0F803463B607B68DA6F3B689A42A1
S315000034B033D87B68D3F880207B689B6F9A4218D1FB
S315000034C07B68DA6F7B689B6FD21A3B681A447B680D
S315000034D0DA677B683A689A67FFF7BAFF02463B6885
S315000034E01A447B68C3F880207B68184600F042F8CF
S315000034F027E07B685B6F002B05D07B685B6F7A6883
S31500003500114601209847194B1B68184600F00AFC23
S3150000351078607868FFF78EFF13E07B68D3F8802029
S315000035203B689A420DD8FFF793FF02467B68D3F8B3
S3150000353080301A447B68C3F880207B68184600F008
S3150000354019F80A4B1B68184600F020FC78607B6867
S31500003550002B07D0FFF77CFF0346054A19460420D7
S315000035602DF0C0FF00BF0837BD4680BD388700205C
S31500003570252F000090B5ADB004AF786007F10C03BD
S31500003580802200211846FCF767FF002387F89F304A
S31500003590002387F89E30012387F89530002387F8AB
S315000035A09C300023C7F89830002387F89730002313
S315000035B087F89430002387F89330002387F89630F5
S315000035C00023A7F890307B685B7987F894307B6896
S315000035D0DB89A7F89030A34B9B78002B01D04023C2
S315000035E0C3E17B689B79002B03D1002387F89630D3
S315000035F002E0012387F896307B68DB79012B03D143
S31500003600082387F8973006E07B68DB79002B02D128
S31500003610002387F89730B7F89030B3F56F4F0FD186
S315000036207B6803F113017B689B7C1A4607F10C0348
S315000036301846FEF735FA7B689B7C87F89F3063E077
S315000036407B689B7C87F89C307B681433C7F898307E
S3150000365053E097F89F305A1C87F89F201946D7F8F1
S3150000366098301B88DAB207F1A0030B4403F8942CB8
S3150000367097F89F305A1C87F89F201946D7F898303C
S315000036801B881B0A9BB2DAB207F1A0030B4403F8AE
S31500003690942C97F89F305A1C87F89F201946D7F824
S315000036A098309A7807F1A0030B4403F8942C002372
S315000036B087F89E3015E097F89F305A1C87F89F20B0
S315000036C0194697F89E30D7F8982013441A7907F1CF
S315000036D0A0030B4403F8942C97F89E30013387F827
S315000036E09E30D7F89830DB7897F89E209A42E2D33E
S315000036F0D7F898300C33C7F8983097F89C305A1E94
S3150000370087F89C20002BA4D197F8973023F010035C
S31500003710DAB297F89630134387F893307B689B7A32
S31500003720012B5FD0022B00F0A180002B00D017E107
S315000037307B68DB89A7F890307B681B791C4697F875
S315000037409310B7F8900097F8943097F89F2003925B
S3150000375007F10C020292444A0192009303460A467C
S3150000376021464FF488501EF091FE7B681B7B97F82C
S315000037709520114618461EF069FF21F047FF0346C3
S3150000378087F88F3021F0F6FE034687F88E3000204A
S3150000379021F024FF002021F0DDFE002100201EF094
S315000037A041FF034687F89D3097F88F30184621F081
S315000037B015FF97F88E30184621F0CCFE7B681B7AF1
S315000037C0002B40F0CA8097F89D30002B40F0C58052
S315000037D07B6818797B681B7BB7F890201946FFF742
S315000037E019FCBAE07B681B8AA7F890307B681B79C6
S315000037F0184697F8973043F01003DBB21C46B7F82B
S31500003800901097F8943097F89F20039207F10C02D6
S315000038100292154A019200930B46224601464FF446
S315000038208A501EF033FE7B689A7B7B68DB7B1946E9
S3150000383010461EF00BFF7B689B8918461EF0A8FEFB
S31500003840034687F89D3097F89D30002B40F087801F
S315000038507B6818797B689B7BB7F890201946FFF741
S31500003860D9FB7CE03C870020C4DF03007B68DB8952
S31500003870A7F890307B681B79184697F8973043F085
S315000038801003DBB21C46B7F8901097F8943097F8FF
S315000038909F20039207F10C020292364A019200938E
S315000038A00B46224601464FF48A501EF0EFFD7B6818
S315000038B01B7B97F89520114618461EF0C7FE21F08F
S315000038C0A5FE034687F88D3021F054FE034687F89F
S315000038D08C30002021F082FE002021F03BFE1EF0FD
S315000038E031FE034687F89D3097F89D30002B13D1A3
S315000038F07B681B7A002B0CD197F89D30002B08D1E2
S315000039007B6818797B681B7BB7F890201946FFF710
S3150000391081FB1EF04DFE15E097F89D306C2B11D102
S315000039201EF046FE034687F89D3097F89D30002B23
S3150000393008D17B6818797B681B7BB7F890201946FD
S31500003940FFF768FB97F88D30184621F047FE97F889
S315000039508C30184621F0FEFD02E000BF00E000BFFB
S31500003960032002F0E3FC97F89D301846A437BD46C5
S3150000397090BD00BFC4DF030090B5A1B004AF07F14E
S315000039804C03212200211846FCF766FD012387F827
S315000039904B30012387F84A302023019307F14B036C
S315000039A0009340230322002101201DF065FD0346FC
S315000039B087F86F303023019307F14A0300934023C1
S315000039C00722002101201DF057FD034687F86F30BE
S315000039D0524B1B689B68002B65D03B1D21220021A2
S315000039E01846FCF739FD00230293202301933B1D63
S315000039F0009340230422002101201DF0A9FD034667
S31500003A0087F86E30454B1B689B681846FDF79EF994
S31500003A100346DCB2414B1B685B681846FDF796F916
S31500003A200346DBB2234487F86D3097F86D30202BC0
S31500003A3039D83B79002B36D107F128032122002102
S31500003A401846FCF709FD97F86D3087F8283007F11E
S31500003A5028000130314B1B685A68304B1B689B6845
S31500003A602F4939F02DFD97F828203B799A420CD141
S31500003A7007F128030133391D013197F8282018462C
S31500003A8039F07AFC0346002B0DD04223019307F14F
S31500003A902803009340230422002101201DF0ECFCA2
S31500003AA0034687F86E301D4B1B681B68002B21D020
S31500003AB01A4B1B681B681846FDF748F90346DBB22C
S31500003AC087F84C3007F14C030133144A1268126828
S31500003AD01146184639F026FD4223019307F14C039F
S31500003AE0009340230522002101201DF0C5FC03465A
S31500003AF087F86F30094B1B68103320220192009320
S31500003B0040230122002101201DF0B6FC034687F860
S31500003B106F3000BF7437BD4690BD00BF30870020B0
S31500003B20C8DF030080B582B000AF03463960FB7181
S31500003B303B681B78002B0ED0012B00D014E03B68AD
S31500003B4020225A703B68991C3B685A1CFB79184620
S31500003B50FFF74BF808E03B68991C3B685A1CFB7959
S31500003B601846FFF742F800BF00BF0837BD4680BDC4
S31500003B7080B5A4B000AF03463960FB713B685B7843
S31500003B807B733B68991C3B685B781A4607F10C030C
S31500003B9002331846FDF784FF3B681B78012B04D0DF
S31500003BA0022B16D0002B0AD01DE001233B7307F130
S31500003BB00C02FB7911461846FFF716F813E00023AE
S31500003BC03B7307F10C02FB7911461846FFF70CF818
S31500003BD009E002233B7307F10C02FB7911461846F4
S31500003BE0FFF702F800BF00BF9037BD4680BD00BF9B
S31500003BF090B583B000AF0446084611461A462346E0
S31500003C00FB710346BB800B467B801346BB71074B9B
S31500003C101B78002B05D17A88B988FB791846FEF700
S31500003C20E5FF00BF0C37BD4690BD00BF3C870020B6
S31500003C3080B483B000AF0346FB71044B93F90330A5
S31500003C4018460C37BD465DF8047B70473C8700205C
S31500003C5080B584B000AF0346FB710C2001F006FB73
S31500003C60F860FB68002B01D1002320E0FB799BB2B2
S31500003C709B009BB2184601F0F9FA0246FB681A60EF
S31500003C80FB681B68002B11D0FB68FA791A71FB6878
S31500003C9000225A71FB6800229A71FB681A79FB6848
S31500003CA0DA71FB6800221A72FB6800E000231846EE
S31500003CB01037BD4680BD00BF80B485B000AF7860C8
S31500003CC039607B68FB60FB68DB79002B22D0FB68E0
S31500003CD01A68FB689B799B0013443A681A60FB6874
S31500003CE09B790133FA68127993FBF2F102FB01F238
S31500003CF09B1ADAB2FB689A71FB68DB79013BDAB290
S31500003D00FB68DA71FB681B7A0133DAB2FB681A7258
S31500003D10002300E0012318461437BD465DF8047BF6
S31500003D20704700BF80B485B000AF78607B68BB6029
S31500003D300023FB60BB681B7A002B20D0BB681A6887
S31500003D40BB685B799B0013441B68FB60BB685B79AF
S31500003D500133BA68127993FBF2F102FB01F29B1A66
S31500003D60DAB2BB685A71BB68DB790133DAB2BB6879
S31500003D70DA71BB681B7A013BDAB2BB681A72FB6860
S31500003D8018461437BD465DF8047B704780B485B08D
S31500003D9000AF78607B68BB600023FB60BB681B7A62
S31500003DA0002B07D0BB681A68BB685B799B0013447D
S31500003DB01B68FB60FB6818461437BD465DF8047B3C
S31500003DC0704700BF80B485B000AF78607B68FB6049
S31500003DD0FB681B7A18461437BD465DF8047B7047AE
S31500003DE080B582B000AF1D4B01221A701BF072FF26
S31500003DF00346FB71FB79023B012B15D8184B0122B8
S31500003E009A73174B9B7B184600F03AF84FF4FA600A
S31500003E102BF062FE034603F56A531833114A19461E
S31500003E2003202DF05FFB11E00D4B00229A730C4B23
S31500003E301B78002B04D00A4B5B68184600F0F2F89A
S31500003E40074B9B7B184600F01BF800BF044AFB7922
S31500003E50537200BF0837BD4680BD00BF4C28002006
S31500003E602C280020252F000080B400AF034B9B7B3D
S31500003E701846BD465DF8047B704700BF2C2800201D
S31500003E8080B582B000AF0346FB71FFF7EDFF034636
S31500003E901A46FB79934205D1FB79002B02D0FB79B8
S31500003EA0012B07D1054AFB799373044B9B7B18467C
S31500003EB0FEF792FE00BF0837BD4680BD2C280020C5
S31500003EC080B584B000AF0023FB7311E03A46FB7B5C
S31500003ED01146184605F0E0FF0346002B05D1FB7B93
S31500003EE0184606F00DF80346BB73FB7B0133FB73E4
S31500003EF0FB7B3B2BEAD906F0ABF900BF1037BD467A
S31500003F0080BD00BF90B58DB000AF002387F82F307D
S31500003F1014E097F82F2038462C23262120F082FD26
S31500003F2000233B703A4697F82F102C23262020F0CA
S31500003F30A1FD97F82F30013387F82F3097F82F30EF
S31500003F403B2BE6D91B4B00221A700123194A7F210D
S31500003F50252020F08FFD002387F82F3020E0164B18
S31500003F601A6897F82F301B0113441B78002B12D0C8
S31500003F70114B1A6897F82F301B0113441C78012344
S31500003F807F2225210B4820F04DFD0A4B1B78194650
S31500003F90204628F0CDF897F82F30013387F82F30D8
S31500003FA0064B1B7897F82F209A42D8D300BF343798
S31500003FB0BD4690BDB84C0020A8480020AC48002063
S31500003FC080B500AF00F002F800BF80BD80B582B0BA
S31500003FD000AFFFF775FFFFF795FF08F057F80346A8
S31500003FE0FB71002318460837BD4680BD80B582B0F8
S31500003FF000AF7860044A79680C202DF073FA00BF90
S315000040000837BD4680BD00BF252F000080B500AF34
S3150000401002202DF091FA40F6B830FFF7E7FF00BF17
S3150000402080BD00BF80B582B000AF7860FFF71CFF8F
S315000040300346022B01D100231FE07B68002B03D12E
S31500004040104B114A1A6102E00E4A7B68136113F0A5
S31500004050D7FC02460B4B5A610A4B01221A724FF4E7
S31500004060FA70FFF7C3FF094A4FF47A7102202DF068
S3150000407039FA0220FFF704FF012318460837BD4628
S3150000408080BD00BF2C28002020BF0200252F000085
S3150000409080B582B000AF03463960FB71082200216B
S315000040A01248FCF7D9F9114B1B78104B1B78DBB281
S315000040B0012B01D9002315E03B68002B01D10C4BE5
S315000040C03B600A4AFB791370084A3B68536047F223
S315000040D030502BF001FD0346064A19460D202DF0FF
S315000040E001FA012318460837BD4680BD4428002042
S315000040F0F0490200252F000080B584B000AF0346CA
S315000041003960FB710023FB601BF0E4FD0346FB7284
S31500004110FB7A022B33D102202DF024FA414B0022E8
S315000041201A6107F0FFFC03469AB23E4B9A8117F0DC
S3150000413021F90346DAB23B4B9A723A4B1B7A012BB2
S3150000414006D1012002F0F2F80420FFF799FE09E0FB
S31500004150022002F0EBF8334B9B7B052B02D10620A5
S31500004160FFF78EFE304B1B78DAB22F4B5B68194691
S315000041701046FFF78DFF2B4B00221A724BE0FB7A9D
S31500004180002B33D1274B1B7A002B16D013F038FCAB
S31500004190F860244B5B69FA68D21A224B1B699A4273
S315000041A008D30320FFF76CFE24F024FF1D4B0022EA
S315000041B01A7230E024F0E6FE2DE01A4B9B7B012BB1
S315000041C007D0184B9B7B042B03D0164B9B7B052BF0
S315000041D021D1144B5B78002B04D0124B5B68184638
S315000041E0FFF720FF0720FFF74BFE14E0FB7A032BB7
S315000041F006D1052002F09AF80520FFF741FE0AE0F5
S31500004200FB7A042B07D1042002F090F8074AC82154
S3150000421002202DF067F9034AFB7A537200BF10376C
S31500004220BD4680BD2C28002044280020252F0000F4
S3150000423080B5A0B002AF2C4B1B78DBB2002B06D0AA
S31500004240294B00221A70FF2387F876300CE007F11D
S3150000425076020123009313460122002101201DF05E
S315000042609DF9034687F8773097F87730002B37D1DA
S315000042703B46742200211846FCF7EEF801233B71F9
S3150000428000233B720023BB720023FB810023BB711A
S315000042900123FB710A237B7101233B7300233B80BF
S315000042A000237B800223BB740123BB822023BB75C2
S315000042B00123FB7597F876303B764FF6E2733B8425
S315000042C0202387F82230012387F82330132387F829
S315000042D024303B464FF47A7200211846FEF758FD0B
S315000042E000BF7837BD4680BD4C28002080B5A2B0FF
S315000042F004AF002387F8743000230293012301934F
S3150000430007F17403009340232022012101201DF0B0
S315000043101FF9034687F8773097F87730002B2BD1B3
S315000043203B46742200211846FCF796F801233B71A0
S3150000433000233B720023BB720123FB8101233B73E5
S315000043400023BB710123FB710A237B7100233B8091
S3150000435000237B800123BB742023BB822023BB75F3
S315000043600123FB7597F874303B763B4640F6B8322E
S3150000437000211846FEF70CFD00BF7837BD4680BD0C
S3150000438090B587B000AF0023BB7500237B75002373
S31500004390FB7520E03A1DFB7D1146184609F04AFDE3
S315000043A003463B753B7D002B11D1BB884FF6FF7250
S315000043B093420CD0BB7D0133BB753B7A002B07D1F2
S315000043C07B7A072B04D17B7D01337B7500E000BF30
S315000043D0FB7D0133FB75FC7D1BF074FF03469C429D
S315000043E0D8DBBB7D002B05D0BA7D7B7D9A4201D1FF
S315000043F0012300E0002318461C37BD4690BD00BFD0
S3150000440090B583B000AF0023FB710023BB711BF096
S3150000441061FC0346022B1BD1144B1B78DBB2002B2D
S3150000442002D1FFF705FF06E0104B1B78DBB2012B2C
S3150000443001D1FFF75BFF0D4B5C6847F230502BF064
S315000044404BFB034623440A4A19460D202DF04AF831
S315000044501BF040FF0346092B01DC0BF0CBFDFFF7F9
S315000044608FFF00BF0C37BD4690BD00BF442800201B
S31500004470252F000080B582B000AF0346FB71FB79A3
S31500004480902B05D1094AC82102202DF02BF807E010
S31500004490FB79912B04D1054AC82102202DF022F880
S315000044A0002318460837BD4680BD00BF252F0000F3
S315000044B090B583B000AF0446084611461A46234617
S315000044C0FB710346BB710B467B7113463B71044A75
S315000044D0C82102202DF006F800BF0C37BD4690BD5E
S315000044E0252F000080B500AF1EF098FFFEF790FC68
S315000044F000F004F80346184680BD00BF80B582B0C0
S3150000450000AF3B4600220021184601F0D7FC0346C7
S31500004510002B01D03B683DE016F06AFD0346FB71B7
S31500004520FB79002B03D07B211C481DF0F1FA20F00B
S315000045306BFC1AF087FE1BF0D9FF01F015F802217B
S3150000454010201FF0E5FB1BF06DFB154B41F202023C
S315000045501A80144B4FF400721A80134B4FF40072FA
S315000045601A8001200CF014FBFEF7A0FC1EF074FE6E
S3150000457016F0E8FD1EF0BEF80346012B01D000F050
S31500004580FBFF1FF019FC1AF0B1FC20F085FCFEF7CA
S31500004590C1FCEBE718460837BD4680BDD0DF0300F7
S315000045A03C2600203E2600204026002080B582B012
S315000045B000AF786039601022002178681EF07CFB1D
S315000045C07B6841F202021A807B6841F202625A80DD
S315000045D0084B1B681B7C1A467B685A603B68002B9D
S315000045E003D03B684FF6FF721A8000BF0837BD46FE
S315000045F080BD00BF3087002080B586B000AF7860F0
S3150000460007F10C0307F110020021786826F05CFB25
S315000046100346002B0BD127F04DF978617B69B3F186
S31500004620FF3F05D10021786824F010FE00E000BFAE
S315000046301837BD4680BD00BFB0B596B004AFF86070
S31500004640084611461A4603467B810B467B72134683
S31500004650FB80FB68DB7C402B0CBF0123002387F823
S315000046604430FB689C89FB681B7D9DB2B86D20F0C9
S31500004670A1FB03469BB22B449BB2E31A9BB2063BBB
S31500004680A7F842300023A7F84030FB681B685B7927
S3150000469087F83F30FF2387F845307B89002B13D0FE
S315000046A07A8997F83F301146184623F03DFD0346B8
S315000046B083F00103DBB2002B06D097F83F307A89EE
S315000046C01146184623F0C6FD28F05CF90346002B78
S315000046D004D097F83F30184627F0E0FF002387F80C
S315000046E0463029E097F8462007F110002C232621B2
S315000046F020F098F93B7C97F83F209A420CD17B8AB0
S315000047007A899A4208D13B7D7A7A9A4204D197F8FF
S31500004710463087F8453013E097F84530FF2B06D131
S315000047203B7C002B03D197F8463087F8453097F845
S315000047304630013387F8463097F846303B2BD1D9BF
S3150000474097F84530FF2B03D1892387F847308EE051
S3150000475097F8452007F110002C23262120F062F956
S3150000476097F84430002B13D0FB88564AA2FB03234C
S31500004770DB089BB2FB82FB88DAB2FB8ADBB2194606
S3150000478089000B445B00DBB2D31ADBB23B7603E055
S31500004790FB88FB8200233B7601237B76B7F840201B
S315000047A0B7F842309A4218D20023BB76B7F84230A7
S315000047B0DBB2FB76B7F8422007F110030C33F96D34
S315000047C01846FDF76DF997F83F2007F110030A33F5
S315000047D019461046FFF7A6F90AE00123BB7697F8BB
S315000047E03F2007F110030A3319461046FFF79AF9DE
S315000047F097F8462097F845309A4226D097F83F30EA
S315000048003B747B897B827B7A3B7501237F22252142
S315000048102D4820F007F92C4B1B780133DAB22A4BCE
S315000048201A700123284A7F21252020F023F901232D
S315000048307F222521244820F0F5F8234B1A7897F893
S315000048403F301146184627F073FC07F1100297F81F
S3150000485045102C23262020F00DF97A7A798997F8CD
S315000048603F30184600F036F8002387F84730174BDC
S315000048701B681B79002B06D0144B1B681B79012B78
S3150000488001D0012319E097F84430002B01D04020D5
S3150000489000E0002097F847307A89797A02910192F0
S315000048A000930B4B0246052109201DF0B3FD20F0B5
S315000048B055FF034687F83E30012318464837BD4664
S315000048C0B0BD00BFCDCCCCCCB84C0020F88B0020BE
S315000048D0F8DF030080B58EB000AF0346FB710B46D0
S315000048E0BB801346BB71BB88002B0DD0BA88FB7901
S315000048F01146184623F018FC034683F00103DBB289
S31500004900002B01D0852331E0002387F8373028E0DB
S3150000491097F8372007F108002C23262120F082F88B
S315000049203B7AFA799A4217D17B89BA889A4213D18F
S315000049303B7BBA799A420FD1FA7907F108030A3319
S3150000494019461046FFF714F9BA88B979FB79184663
S3150000495027F008FC002309E097F83730013387F881
S31500004960373097F837303B2BD2D98B231846383758
S31500004970BD4680BD80B58EB000AF0346FB710B46C9
S31500004980BB801346BB71FF2387F83630BB88002BEC
S315000049900DD0BA88FB791146184623F0C5FB0346AD
S315000049A083F00103DBB2002B01D0852388E00023CE
S315000049B087F8373028E097F8372007F108002C23CE
S315000049C0262120F02FF83B7AFA799A420CD17B897E
S315000049D0BA889A4208D13B7BBA799A4204D197F8B1
S315000049E0373087F8363013E097F83630FF2B06D18C
S315000049F03B7A002B03D197F8373087F8363097F893
S31500004A003730013387F8373097F837303B2BD2D918
S31500004A1097F83630FF2B01D1892351E097F83620DD
S31500004A2007F108002C2326211FF0FCFF01237B74CD
S31500004A300123BB74FA7907F108030A3319461046B5
S31500004A40FFF770F897F8372097F836309A4228D053
S31500004A50FB793B72BB887B81BB793B730023FB816F
S31500004A6000233B7401237F22252117481FF0DAFF1C
S31500004A70154B1B780133DAB2134B1A700123124A15
S31500004A807F2125201FF0F6FF01237F2225210E48D6
S31500004A901FF0C8FF0C4B1A78FB791146184627F011
S31500004AA047FB07F1080297F836102C2326201FF043
S31500004AB0E1FFBA88B979FB79184627F053FB002342
S31500004AC018463837BD4680BDB84C0020F0B593B0C7
S31500004AD004AF78607B681B685B88BB857B68DB7C82
S31500004AE087F82B307B689B687B627B689B897B841D
S31500004AF07B681B7DBB867B685B7D002B01D14023D9
S31500004B0000E0802387F821307B681B685B791846B4
S31500004B1020F00AFA034683F00103DBB2002B18D01B
S31500004B2097F82B30002B14D097F82B30022B10D08F
S31500004B3097F82B30032B0CD097F82B30052B08D089
S31500004B40BB8D032B05D00121786820F0A1FE01233F
S31500004B5043E37B68DB7B002B04D07B681B8A002B3E
S31500004B6000F02883AD4B00221A807B685B7D002B0A
S31500004B7001D1182300E0102387F837307B68DB7BF0
S31500004B80002B05D097F8373043F0040387F8373009
S31500004B9097F8373018461FF0E1FF7B68DB7B002B68
S31500004BA004D07B681B8A184620F000F87B689B7C43
S31500004BB018461FF0D3FF97F82B30162B00F2FC8215
S31500004BC001A252F823F000BF254C0000AF4F0000B1
S31500004BD0C74D0000B14C00004F500000C74D00000B
S31500004BE08B4F00007D5000009D4F0000AB50000031
S31500004BF0D950000007510000D74E00005B5100005D
S31500004C00B9510000B9510000B9510000B951000076
S31500004C10B9510000B9510000B9510000D74E00004B
S31500004C205B51000001201FF099FF38E07A8CBB8EA3
S31500004C301946786A20F082F80346FB837B681B6876
S31500004C4058797B681B8A754A1288C2F5007292B23F
S31500004C5097F82150FC8BB98D019200932B46224682
S31500004C6000F0B6FC034683F00103DBB2002B13D041
S31500004C707B681B6858797B681B8A684A1288C2F56C
S31500004C80007292B297F82150FC8BB98D0192009375
S31500004C902B4622461CF040FDBB8E0233BB86BB8EE4
S31500004CA09A1C7B8C9A42C1DD20F058FD012394E2C8
S31500004CB0002387F8333004201FF050FF6AE07A8C17
S31500004CC0BB8E1946786A20F039F80346FB83BB8E03
S31500004CD002337A6A13441B787B777B7F18461BF076
S31500004CE033FC0346002B0AD0BB8E03337A6A134487
S31500004CF0184620F05FF803460133DBB204E07B7F01
S31500004D0018461BF0CFFB03463B777B7F18461BF00C
S31500004D101BFC0346002B0BD07A8CB98E3B7F0B44D1
S31500004D200333D31A002B03DA802387F8323018E0D6
S31500004D307B681B6858797B681B8ABA8E0332796A4E
S31500004D400A4497F82160FD8BBC8D797F0291019210
S31500004D50009333462A4621461CF0D4FB034687F8C7
S31500004D60323097F83230002B0DD097F833300133BC
S31500004D7087F8333097F8323018461FF0EFFEFB8B7A
S31500004D8018461FF013FF3B7F9AB2BB8E13449BB2AB
S31500004D900333BB867A8CBB8E03339A428FDA97F83D
S31500004DA03330002B03D020F0D9FC012315E27B68B9
S31500004DB01B7DBB867B68DB7B002B01D0042200E0D9
S31500004DC00222164B1A80002387F83130002387F819
S31500004DD0303004201FF0C2FE5DE07A8CBB8E19468F
S31500004DE0786A1FF0ABFF0346FB83BB8E02337A6AF9
S31500004DF013441B78FB76FB7E18461BF0A5FB034687
S31500004E00002B0DD0BB8E03337A6A134418461FF06D
S31500004E10D1FF03460133DBB207E000BFC48900209F
S31500004E20FB7E18461BF03EFB0346BB767B681B6881
S31500004E3058797B681B8ABA8E0332796A0A4497F8D6
S31500004E402160FD8BBC8DF97E029101920093334661
S31500004E502A4621461CF0C8FA03467B767B7E002B49
S31500004E6005D197F83030013387F830300CE097F8E9
S31500004E703130013387F831307B7E18461FF06EFEE5
S31500004E80FB8B18461FF092FEBB7E9AB2BB8E134474
S31500004E909BB20333BB867A8CBB8E03339A429CDC6F
S31500004EA097F82B30052B01D1012396E197F8313085
S31500004EB0002B0CD197F83030002B05D18021786873
S31500004EC020F0E6FC012388E100201FF047FE20F0D9
S31500004ED045FC012381E197F82B300C2B01D10D23E2
S31500004EE000E0162318461FF039FE7A8CBB8E194651
S31500004EF0786A1FF023FF0346FB82BB8E02337A6A71
S31500004F0013441B7887F82F3097F82B30162B07D1D0
S31500004F1097F82F30192B03D9192387F82F300AE079
S31500004F2097F82B30152B06D197F82F30132B02D973
S31500004F30132387F82F30AB4B1B881A46AA4B134412
S31500004F403B6100201FF00AFE7B681B6858797B686E
S31500004F501B8A97F82B20152A0CBF01220022D2B2F9
S31500004F6097F82150FC8AB98D029297F82F2001926A
S31500004F7000932B4622461CF031FB03461A463B693A
S31500004F801A7020F0EBFB012327E1786800F0E8FEB9
S31500004F900346002B00F0128101231EE1786801F020
S31500004FA0EFF80346002B00F00B81012315E1BB8DC2
S31500004FB00A2B35D18D4B1B78002B31D07B68DB7BE0
S31500004FC083F00103DBB2002B2AD07A8CBB8ED31A76
S31500004FD0082B25D17A8CBB8E1946786A1FF0AEFE57
S31500004FE00346002B1CD1BB8E02337A6A13441B780E
S31500004FF0002B15D1BB8E03337A6A13441B78E22B40
S315000050000ED1BB8E04339BB27A8C1946786A1FF098
S3150000501081FE034618461FF079FF744B00221A7072
S31500005020BB8E7A6AD1187A8CBB8ED31A9AB2BB8D94
S31500005030184600F0F7FA034683F00103DBB2002BB3
S3150000504003D00021786820F023FC0123C5E0BB8E45
S315000050507A6AD1187A8CBB8ED31A9AB2BB8D18464F
S3150000506001F034F9034683F00103DBB2002B03D0D1
S315000050700021786820F00CFC0123AEE0BB8E7A6A32
S31500005080D1187A8CBB8ED31A9AB2BB8D184600F013
S3150000509073FE034683F00103DBB2002B03D000212D
S315000050A0786820F0F5FB012397E0BB8E7A6AD11869
S315000050B07A8CBB8ED31A9AB2BB8D184601F06CF867
S315000050C0034683F00103DBB2002B03D0002178688E
S315000050D020F0DEFB012380E0BB8E7A6AD1187A8C41
S315000050E0BB8ED31A9AB2BB8D184600F0AFFA0346B0
S315000050F083F00103DBB2002B03D00021786820F097
S31500005100C7FB012369E0BB8E7A6A13441B78FB73E5
S31500005110BB8E0133BB86BB8E7A6A13441B78BB7386
S315000051207B681B685879BC7BFA7BB98D97F8213070
S31500005130009323461BF056FABA7BF97BBB8D1846C3
S3150000514000F02AFE7B68987C7B681B685B79BA8DC9
S315000051501946FDF75FFF01233FE0BB8E7A6A1344D1
S315000051601B78002B14BF012300237B73BB8E0133F6
S31500005170BB86BB8E7A6AD4187A8CBB8ED31A9AB247
S3150000518097F82B30162B0CBF01230023DBB2797B5B
S31500005190B88D00931346224600F00EFE034683F0B8
S315000051A00103DBB2002B03D00021786820F070FBEE
S315000051B0012312E000BF04E000BF02E000BF00E0F0
S315000051C000BF7B68DB7B002B01D0842300E08223B9
S315000051D01946786820F05CFB012318463C37BD462B
S315000051E0F0BD00BFC4890020D8890020C94A00202C
S315000051F080B584B000AF78607B681B685B79184621
S315000052001FF092FE034683F00103DBB2002B0AD0A7
S315000052107B681B685B88032B05D00121786820F02A
S3150000522037FB01231EE07B681B685B88192B0BD1BB
S315000052307B685B7D012B07D1786824F03FFC034631
S31500005240002B01D001230DE07868FDF7A3FF03468C
S31500005250FB73FB7B002B04D0FB7B1946786820F0A0
S3150000526017FB012318461037BD4680BD80B485B0B4
S3150000527000AF0346FB800F4B1B881A46FB8813447E
S31500005280B3F5805F0EDC0B4B1B881A460A4B1344A2
S31500005290FB60084B1A88FB8813449AB2054B1A80A8
S315000052A0FB6800E0FEE718461437BD465DF8047B50
S315000052B0704700BF543800205428002080B487B0BF
S315000052C000AF786000237B820023FB7552E0002349
S315000052D0BB7542E02F4B1A68FB7D1B0113449B688C
S315000052E01968BA7D13469B0013449B000B44FB6070
S315000052F000237B7528E0FB6859687A7D13465B00BE
S3150000530013449B000B44BB607A68BB689A420CD07E
S31500005310BB681B7903F02003002B12D0BB68DB7837
S315000053209AB27B8A13447B820BE01B4B1B78FB757E
S31500005330184B1A68FB7D1B0113449B681B79BB75D0
S3150000534008E07B7D01337B757B7D9AB2FB681B8908
S315000053509A42D0D3BB7D0133BB750E4B1A68FB7DD9
S315000053601B0113449B681B79BA7D9A42B2D3FB7D1D
S315000053700133FB75084B1B78FA7D9A42A7D3074B7E
S315000053801A687B8A134418461C37BD465DF8047BB1
S31500005390704700BFA8480020AC4800208489002040
S315000053A080B58EB002AF03460A46FB711346BB7149
S315000053B006F02BFA034687F827301BF09FF80346C2
S315000053C087F82630002387F82F30B3E0FB79FF2BD0
S315000053D00BD0FB7918461BF061FE034687F82F3089
S315000053E097F82F30FF2B00F0B9805E4B1A6897F8BC
S315000053F02F301B0113443B62FB79FF2B06D13B6A1E
S315000054001B7B97F827209A4240F08E80002387F86E
S315000054102E307DE03B6A9B68196897F82E2013466C
S315000054209B0013449B000B44FB61FB691B89B3F58E
S31500005430967F01D91DF010FF0023BB855EE0FB6956
S315000054405968BA8D13465B0013449B000B44BB613D
S31500005450BB691B7903F01003002B4CD13B6A1B7808
S315000054603B73FB691B88FB81BB691B7903F0400317
S31500005470002B01D0802300E040233B74BB691B88CE
S315000054807B82B969F8691BF0C5FA03469BB2BB82F9
S31500005490BB691B7903F00403002B0CD0BB69DB78D6
S315000054A0022B03D8BB699B68BB620FE0BB699B6894
S315000054B01B68BB620AE0BB69DB78022B03D8BB69B9
S315000054C00833BB6202E0BB699B68BB6207F10C0054
S315000054D0012300930023BA6A00211BF031FBBB793C
S315000054E0002B08D03B6A1B781946FB891A46BB6914
S315000054F0B86A1BF005FFBB8D0133BB85FB691B89B1
S31500005500BA8D9A429BD397F82E30013387F82E3006
S315000055103B6A9B681B7997F82E209A42FFF47AAF74
S31500005520FB79FF2B0ED100E000BF97F82F30013337
S3150000553087F82F3097F82F2097F826309A42FFF4F5
S3150000554045AF00E000BFBB7983F00103DBB2002B5F
S3150000555005D0FB7918461BF091FE00E000BF3037FE
S31500005560BD4680BDA848002080B500AF2CF008F9E4
S315000055701FF07EFD00BF80BD80B500AF00F0ACFC23
S315000055801FF0B4FD23F0F4F800BF80BD80B582B0F3
S3150000559000AF786078682BF065FC0346184608373C
S315000055A0BD4680BD80B584B000AFB9607A601A464A
S315000055B00346FB811346BB81BB89F8897A68B968C3
S315000055C000F0BCFD034618461037BD4680BD00BF3F
S315000055D090B482B000AF0446084611461A462346E8
S315000055E0FB710346BB800B467B801346BB710023D1
S315000055F018460837BD4690BC704700BF80B582B0DC
S3150000560000AF78600B46FB70FB781946786827F088
S315000056104DFBFB781946786800F068FE00BF083736
S31500005620BD4680BD80B582B000AF03463960FB80C1
S315000056301346BB80BA88FB883968184600F090FD8F
S31500005640034618460837BD4680BD00BF80B582B008
