S0110000626F6F746C6F616465722E733337B8
S113080028130020C13500006B0F0000F12E0000FA
S1130810730F00004B190000731B00000000000060
S1130820000000000000000040080000FF1B000062
S1130830B71C0000000000001B1D0000DF2D00009D
S113084007B0CD5E0100000000000701C82E0000C3
S11308500040000000000400F0001000B935000062
S1130860BD35000031310000DF3500000D360000D9
S11308700000000001790122091DC01C00F00ABA21
S113088000F0A4B980B5A2B000F030FBB0F5027F4F
S113089007D1684663A1882200F03CFB6846FFF755
S11308A0E9FF684681A1882200F034FB40F6280164
S11308B00DF107000A68936803606846FFF7DAFFE2
S11308C023B000BDADF5247D0DF5C07099A188223B
S11308D000F020FB0DF10800B8A1102200F01AFB73
S11308E006A8242100F042FB20230FAA2AA93CA831
S11308F000F078FC40F6033508E0012100228DF871
S11309008611ADF8872160A8FFF7B4FF882182A87B
S113091000F02CFB00F000FA0028FBD04FF47A70B2
S11309200090012382A801AA0121C01C00F011FA41
S11309309DF80B022028EDD14FF47A710091012328
S113094001AA032183A800F004FA01980328DDD149
S11309509DF80C4274B140F6B8300090012383A88E
S113096001AA2146C01C00F0F4F90199A14208BF74
S11309700028CBD19DF80D020028C7D19DF80E02A6
S11309809DF80F320328C1D8DFE800F03B03041AB6
S1130990BCE7B2E702A9009184AA06A93CA800F02A
S11309A05DFC02218DF8861100281CBF41F207016D
S11309B0884212BFADF887510022ADF88721A2E723
S11309C003208DF886019DF81A0000281CBF9DF8AD
S11309D01B0000281ABF0021ADF88711ADF887511C
S11309E060A8FFF747FF9DF81A0000281FBF9DF875
S11309F01B0000289DF818000028C9D040F20920E7
S1130A0007E09DF81A0030B19DF81B0018B940F2B8
S1130A10032000F035FA012B14BF40F2012040F20C
S1130A200220F6E7000000A0020001030B00000012
S1130A3000000000000000000000000000000000B2
S1130A4000000000000000000000000000000000A2
S1130A500000000000000000000000000000000092
S1130A600000000000000000000000000000000082
S1130A700000000000000000000000000000000072
S1130A800000000000000000000000000000000062
S1130A900000000000000000000000000000000052
S1130AA0000000000000000000000000000000A0A2
S1130AB0040000000000000000000000000000002E
S1130AC00000000000000000000000000000000022
S1130AD00000000000000000000000000000000012
S1130AE00000000000000000000000000000000002
S1130AF000000000000000000000000000000000F2
S1130B0000000000000000000000000000000000E1
S1130B1000000000000000000000000000000000D1
S1130B2000000000000000000000000000000000C1
S1130B30000000000000002002000000000000008F
S1130B4000000000000000000000000000000000A1
S1130B500000000000000000000000000000000091
S1130B600000000000000000000000000000000081
S1130B700000000000000000000000000000000071
S1130B800000000000000000000000000000000061
S1130B900000000000000000000000000000000051
S1130BA00000000000000000000000000000000041
S1130BB00000000000000000000000000000000031
S1130BC07930000000000000C930000010B5012198
S1130BD08048814C00F0CAFE0121804800F0C6FE26
S1130BE001217F4800F0C2FE01217E4800F0BEFED4
S1130BF040F6AA60E06000212160616641F20500D0
S1130C006060A1606161E164774AA2646167A16781
S1130C10E16760607549206820600A68012A0CBF9A
S1130C204FF4957040F27B20C000606101230422E0
S1130C300021002000F0E9FE01230122012100200F
S1130C4000F0E3FE0020A067032161670520E06057
S1130C504FF0E0616648016000220262C2624263B2
S1130C60C2664FF4402363490B608A60002400BFCE
S1130C706DA2614B4C60920892008A610B638C6395
S1130C804C6303215D4A11600123C36302205C4964
S1130C90086010BD70B50E46802E0546144602D37A
S1130CA041F2031070BD00F026F810B941F206209D
S1130CB070BD0020534902E02A5C0A54401CB04233
S1130CC0FAD3D1F88000761E66F30E10C1F88000C6
S1130CD0803189084C488900016002224B490A602E
S1130CE03CB100F008F80028FBD0494801688A06A6
S1130CF0FBD5002070BD474847498268930702D559
S1130D000220086003E00068820703D402208860A0
S1130D1001207047002070474048006840F20111EC
S1130D20884208BF002007D040F2022188420EBF4B
S1130D304FF480703A49401A3A4A1168814201D10D
S1130D400020704701D2401A7047C1F50071401865
S1130D5070472DE9F04107468846154600268BB1B9
S1130D60069C2CB100F08AFE0021204600F0A8FE6B
S1130D70FFF7D2FF404505D2002CF9D000F0B6FEB3
S1130D800028F5D0FFF7C8FF804505D8404603E0AA
S1130D9000230B6002211160864212D22149204AAD
S1130DA00B68D45C164ABC55761C5B1CB3F5007FFB
S1130DB00B60EDD0B3F5807FEED10121EBE7BDE808
S1130DC0F08105B12E60464534BF41F20420002075
S1130DD0F5E70000404105000000014000250A003D
S1130DE000450A0000220400F9FF010094400E406F
S1130DF000200E4080200E4001000C0028200E44EC
S1130E0008200E4680000020C8200E403C200E40E2
S1130E101000014020200E4020200E4494200E405B
S1130E201C01002024030020F00F10031C000140CB
S1130E301C01002013000000090000000001000054
S1130E400202000013000000F00F10031C00014018
S1130E501C02002013000000090000000002000032
S1130E6001010000D3FFFFFF4FF0005108804FF253
S1130E700F00488070470F494CF23C30088070479F
S1130E804FF0005108804FF20F0048800A48016873
S1130E9021F4E06141F480610160BFF34F8F0749A1
S1130EA007480A6802F4E06202430A60BFF34F8F06
S1130EB000BFFDE70200002000500E400CED00E0F2
S1130EC00400FA054FF000514FF20F024888904297
S1130ED001D108887047002804BF0888012802D17E
S1130EE040F2022070474FF4007070474FF00050FA
S1130EF00088704762B38B0708D0521E11F8013B7B
S1130F0000F8013B00F024808B07F6D1830740F002
S1130F10208000BF103A07D330B4B1E83810103A3B
S1130F20A0E83810F9D230BC530724BFB1E8081048
S1130F30A0E8081044BF51F8043B40F8043BD20732
S1130F4024BF31F8022B20F8022B44BF0B78037026
S1130F507047083A07D3B1E80810083A40F8043B50
S1130F6040F804CBF7D25307E4E7FEE7002200F091
S1130F70E7BDFEE72DE9F8431E467368002B4ED00B
S1130F800C4614F0030118BF41F2020048D1154683
S1130F90074600F0EFFD396E001D6A18824221D326
S1130FA000F1180399421DD28C46844538BF84460B
S1130FB005EB010800F11802904588BF9046ACEBA0
S1130FC00101ACEB000004EB0109A8EB0C08384468
S1130FD0424649466830FFF78DFFFF2241464846A6
S1130FE000F0DAFD00F0CBFD396E001D884222BF0F
S1130FF06A18031D9A4209D3411A601807F1800147
S113100002680A600421FF2200F0C6FD214633680D
S1131010386E74682A46A047386E2D183D66002045
S1131020BDE8F28370B54B688C689C4206D200F12F
S113103040021B1B14781B19412B01D3002070BDE7
S1131040537814780D68E4188B68EE5C04F03F0460
S113105006558C68641C8C6013785B1C13708C6858
S11310604B689C42ECD3012070BD90F840004A6864
S113107089681018401A70472DE9F0410C4617464C
S11310801D468046FFF7F1FFA84208F1400606D24C
S113109021464046FFF7C6FF10B300204DE0002173
S11310A00CE0707818F800207A54491C7378307872
S11310B05B1C03F03F03421E73703270307808B13A
S11310C0A942EED3A0686268904238BFA9420CD20C
S11310D02368185C7854491CA268521CA260F1E78A
S11310E01220B07141F2020027E0A942F8D1069C17
S11310F0B26C2946384600F083FDB06424B1F06830
S11311002A46394600F0A0FD079838B1F07878B146
S1131110B0682B463A46394600F0BEFDF07838B147
S1131120F069B1692818F061884224BF0020F0708A
S113113070692D18756141F20300BDE8F081F8B5BE
S113114084B014460026054601960096082302AA98
S1131150FFF792FF41F20306B0423CD195F84300F9
S113116005F1480738B100F038F83868082302AAB6
S113117002A900F091FD9DF80A209DF80B009DF84E
S11311800910120442EA00629DF8080042EA0122B2
S1131190024322609DF80E009DF80F10000440EAFF
S11311A001609DF80D1040EA01209DF80C100843E1
S11311B0606095F8430048B9DFF82C178A421CBFD9
S11311C0DFF82807824201D000F007F86068B860B1
S11311D00021F960304605B0F0BD7868082202A904
S11311E000F032BDF8B5064606F140070020B8719C
S11311F07870F87038710D4600214FF0FF30397067
S1131200797103F02003B864396279621446BB70C3
S1131210FF22182106F1680000F0BEFCFF22042121
S113122006F1800000F0B8FCFF22042106F18400DE
S113123000F0B2FCBD60FC600020C04600B11DB1EE
S11312400020C04618B114B941F20B00F2BD14B12C
S1131250F86800F0EFFC0020F2BD00002DE9FB4F20
S113126082460021002300249AB005A880E81A00D1
S1131270059209910AF148061C9A269D06920AF1E4
S1131280420710E000F056FB0899884233D10498D5
S1131290B0600021F1600398DFF85416884240F0F2
S11312A0388102223A7107981C99884280F0B982E9
S11312B041F2030208920DF1280839791229F2D873
S11312C0DFE811F014001500B3022701ED02EF026C
S11312D0CD024901EF024401EF0244011202AC02C3
S11312E0F20287028A02C501AC02DCE7CAE700F019
S11312F021FB0899884240F09582B87820B1039880
S1131300DFF8E815884243E03A78D1074AD578787F
S1131310002847D10398DFF8D81588421CBFDFF8AE
S1131320D415884222D0DFF8D01588421CBFDFF8DC
S1131330CC1588421AD0DFF8C815884222D0DFF8CD
S1131340A815884265D0DFF8BC15884213D0DFF8B1
S1131350B81588420DD0DFF89415884215D0DFF80F
S1131360AC1588421CBFDFF8A815884200F0D18074
S113137010E00E2296E70F2038710020B168316129
S1131380706190E71221397166E00020C0460028A0
S11313903DD138E01220387103A80020C04600284F
S11313A05AD08EE20398DFF84C1588421AD0DFF841
S11313B04815884214D0DFF84415884215D0DFF868
S11313C02815884221D0DFF82415884214D0DFF88C
S11313D03C1588420ED0DFF83815884208D01AE050
S11313E004225FE7062038715DE7072139715AE767
S11313F00920F8E70B21F9E70020C046002804BFC4
S11314007878002803D10C21F0E77878002840F0A0
S113141080801021EAE703A80020C046A8B1039801
S113142070641121397103980020C04609903878FE
S11314308106DCD5099800281CBF41680029D6D054
S1131440504688470028D2D03BE21221787839717F
S113145010B141F20400E5E141F20800E2E198F83C
S1131460050098F8041041EA00210291C90704D547
S1131470387840F00100387002E00020C04640B9DE
S11314800020C046002800F0D2810298C10500F176
S1131490CE811220387141F20A00C3E1052038716F
S11314A00121F9700020F061F068082880F00582BD
S11314B001210191009100F042FA08998842ECD18F
S11314C00120207098F8020098F803109DF8282055
S11314D0000440EA016098F8011040EA012010433A
S11314E060600020DFF82C24806A01689142D5D125
S11314F098F8062098F8071098F80430C068120489
S113150042EA016298F8051042EA01221A43824233
S1131510C4D012213971D4E1012000F003FA0899F2
S11315208842BAD198F8021098F803009DF8282050
S1131530090441EA006198F8010041EA00211143DD
S11315400291B068052824BF0298B061F0680428AD
S1131550E2D30A214AE70020F061082146E72B681C
S1131560F06942460AA9E047F0694044F061B06876
S1131570F168814280F09E81A0EB0108B8F1040F6C
S113158005A9504608D3FFF770FD042808D205A921
S11315905046FFF747FD44E1FFF767FD4045F6D3AA
S11315A0B8F1410F28BF4FF0400800F0B7F94045AB
S11315B002D200F0B3F98046B8F1040F24BF4FEA19
S11315C098004FEA8008012001900090434600F003
S11315D0ACF90899884240F025813879082804D16B
S11315E0D5F808C0BCF1000FB9D1B8F1040FC8F1A7
S11315F0040B06D20AA8FF225946404400F0CCFA54
S1131600D84438790A2806D12B4642460AA95046BE
S1131610FFF7B0FCABE70528A9D1E8680028A6D0FD
S1131620F06905280ED208EB000107290AD30AA99C
S1131630091D081A0AF1840201681160FF220421BD
S113164000F0AAFA2B68F069D5F80CC089E739785C
S1131650880640F13481706C0020C046002809904F
S113166040F02D812DE14FF0010900F057F9484574
S11316708DD3B068F168A0EB0109B9F1410F28BF1F
S11316804FF0400900F04AF9814502D300F046F9D1
S113169081460120019000904B4600F046F90899DC
S11316A088422FD1387881060DD5002C1CBFD4F880
S11316B008C0BCF1000FD5D02B464A460AA95046B3
S11316C0E04700281ED1F068B168884280F0FC80B1
S11316D038788106C7D5002C1CBF21690029C2D0E7
S11316E0504688478146C0E7002000F01BF908995E
S11316F0884207D1306C8849884204D012223A715A
S113170041F205008EE00020C04618B91B99012063
S1131710C87003E01B99C87800283ED0F8780028E8
S11317201CBFEC68002C05D02B6804220AF184014C
S11317300420A047B06900281CBF686800282CD08A
S11317404FF0FF3102910AF180040422214602A8DD
S113175000F0B2FA40B100F012FA28B121462B6829
S11317606C680422001DA04704220AF1680102A843
S113177000F0A2FA88B100F0FDF92B686C6814221D
S11317800AF16C010830A04700F0F4F92B686C688A
S113179004220AF16801001DA0471B9901208870EA
S11317A00D2038713DE000200121019000911023AB
S11317B000F0BBF80899884234D100F0B3FA8021D4
S11317C000900191012330680BAA022100F041FA34
S11317D06CE0012078701FE0B878E8B9002101912D
S11317E00090402300F0A1F8089988421AD170684B
S11317F000F02CFA706812AA0AA900F09BFA38B11A
S11318001B990020C8701220387141F2060009E0CB
S11318101B990120C870B8700121E7E541F2070067
S113182000E000201DB0BDE8F08FDDF86C90F0689A
S113183008283FD2002101200191009000F07FF898
S113184008998842EED198F803000006B0F1407F71
S11318503FF405AE1220387141F20900E2E7DDF8E9
S11318606C90B368F068984224D2012101910091F0
S113187000F05BF808998842D4D11C220AA909F126
S11318800800FFF747FB012089F8010009F108006F
S11318900120C0460028E4D141F20C00C2E71B9CA1
S11318A002E6DDF86C9062E6DDF86C90F1681029D0
S11318B0FFF479AFCDF86C90AEE71B94F3E4099C88
S11318C001E741F20100ADE7099438788106A3D518
S11318D0002C1CBFE268002A9ED02946504690473F
S11318E000289FD198E70000F70A0AF7FC0404FCDB
S11318F0EB17A603F40A0AF4F50909F5F60808F645
S1131900F70909F7F90707F9FA0606FAFD0303FDD3
S1131910FE0101FEAD1007B0E320BBDE05A9504671
S1131920FFF7A3BB0190009004230AAA05A950461F
S1131930FFF7A2BB03AA05A95046FFF700BC082382
S11319400AAA05A95046FFF797BBFEE7890001EBF9
S1131950401101F184410A607047DFF874104A684D
S1131960D30702D40A680242FCD1704770B50C4612
S11319700246110A01F00F010020491E0929DFF86F
S1131980545013D8DFE801F005131212071518128A
S11319901B1FDFF83850C2F3043608B1FFF7DDFF30
S11319A0224631462846BDE87040CFE770BD103569
S11319B0F1E730350120EEE738351020EBE740350C
S11319C04FF48030E7E7DFF81050E4E700400E40C2
S11319D040410E40B0400E4050410E4010B500F062
S11319E00DF804F1806404E010B500F007F804F188
S11319F0C064012303FA01F1216010BD30221E4BA3
S1131A005043184400F10C047047F8B505461746D6
S1131A1038000E461C4607D0002C284602D0FFF79B
S1131A20E3FF01E0FFF7DAFF2A4630201249424380
S1131A3088180F22082E05D2B300416800F015F86B
S1131A40416006E0A6F108039B00816800F00DF8F0
S1131A5081604FB9002C3146284602D0BDE8F440DD
S1131A60C2E7BDE8F440B9E7F1BD9A4021EA0202B9
S1131A7007FA03F11143704700A00040F8B5264867
S1131A80016841F4801101602448026842F00102B7
S1131A90026000F085F94FF47A71B0FBF1F0204A4E
S1131AA023A1800A506010226846FFF733FA0A2007
S1131AB08DF8020069461B4800F0B4F905B000BD7A
S1131AC030B5194B164C1D69626802FB00506080EA
S1131AD0ADB26088A8429241D20F227011B1196947
S1131AE08142FCD101201860586030BD0C4A0F4976
S1131AF0107820B10B68D80706D400207047086816
S1131B00C30701D501207047886951888842804104
S1131B10C043C00F7047000000400E40C0400E405C
S1131B201C03002000800140148001400C8001400F
S1131B3001000000000000000000000000000000A0
S1131B4000B500BF130096469446103928BFA0E89C
S1131B500C50FAD85FEA417C28BF0CC048BF40F85B
S1131B60042BC90728BF20F8022B48BF00F8012B1B
S1131B7000BDFEE740F62800016808697047282088
S1131B80044A00680168914201D10069704700204D
S1131B9070470000AD1007B062F30F2262F31F42DA
S1131BA0401810F0030308D0C91A1FD3DB0748BF3D
S1131BB000F8012D28BF20F8022D130030B414467C
S1131BC01546103928BF20E93C00FAD8490728BF38
S1131BD020E90C0048BF40F8042D890028BF20F8F4
S1131BE0022D48BF00F8012D30BC7047C91818BF3A
S1131BF000F8012DCB0728BF00F8012D7047FEE740
S1131C0030B50A4B1C6844F020041C600125084BC5
S1131C101D609A605D6002E010F8014B9C610A4609
S1131C20511E002AF8D1D86930BD00BFB0400E4023
S1131C3000C0014010B5044600F012FA2046BDE889
S1131C401040002100F03CBA00F03CBA014600F01C
S1131C503ABA2DE9F843089D099F80460E469146FD
S1131C601C4600F0E4FA3A462946404600F0E5FAFC
S1131C7008F124000021016006750C22494608F190
S1131C803900FFF737F908F14500210C220A847066
S1131C9001704270BDE8F1833EB5029201911C4689
S1131CA000F12805009500F1380300F124022146D3
S1131CB000F0E7FA37BDFEE70300002013F0030F3E
S1131CC009D0521E22BF13F8010B11F801CBB0EB5F
S1131CD00C00F3D07047121F22BF53F8040B51F8C5
S1131CE004CB6045F7D0121D0AD200BA9CFA8CFCD2
S1131CF0B0EB0C0038BF6FF0000088BF01207047C4
S1131D00521E22BF13F8010B11F801CBB0EB0C00EB
S1131D10F6D0521C08BF10467047FEE702487047D1
S1131D2002487047024870474A43E00F6A43E00F95
S1131D308642E00F78B506000D4618BF002DA1B00D
S1131D40144600D014B940F2016023E00121124886
S1131D50FFF70CFE402111A8FFF708F9FFF7DEFF9B
S1131D60014611A800F000FEFFF7DAFF014619A8AA
S1131D7000F0FAFD294601A800F0F6FD214609A865
S1131D8000F0F2FD01A8009011AB20223146034877
S1131D9000F0FAFD22B070BD00150A0000000F40EB
S1131DA01A491B480A6802F00702022A09D00AD31A
S1131DB0042A01D002D306E0406805E04FF4004055
S1131DC002E0006800E08068C96EC1F30421491C88
S1131DD0B0FBF1F070470F490F4808600F480268E4
S1131DE042F4700202600E48416941F400514161BD
S1131DF00268920892000260416B490849004163FD
S1131E00016A21F0805101627047000094400E4045
S1131E101001002008ED00E00008000088ED00E05B
S1131E2040300E402DE9F0410246087808B90223FB
S1131E305360002454624B78002B4B7A14BF402526
S1131E400025002B8B7A14BF80260026002BCB7A2A
S1131E5014BF20270027002B0B7B14BF4FF0100C5E
S1131E60A44603B1082391F803E08C7891F8078025
S1131E704FEA0E4E4EEA046E8C794EEA842444EA0C
S1131E80082E0C7A44EA0E04254335433D434CEABC
S1131E9005051D430B790BB14FF40053497909B182
S1131EA04FF080511D430D43156008B1012050606F
S1131EB0BDE8F0812DE9F84F022883461FD81400AD
S1131EC055D00B9AD2F800C0BCF13F0F984618D8F1
S1131ED05068002818BF5FEA080A13D1BBF1000F4D
S1131EE004D0BBF1020F07D003D308E00FF2E41AC9
S1131EF008E00FF2002A05E00FF2182A02E0574822
S1131F0036E0C2460CF03F06A444A445C6F14005A1
S1131F10C2F800C002D25068401C506089460A9F33
S1131F208EB1AC420FD32A46B819FEF7E3FF012065
S1131F30009043463A465146584600F0B2FEC24627
S1131F40A944641B00263F2C0BD9A50900954346E0
S1131F504A465146584600F0A4FE09EB8519A4EB05
S1131F60851424B122464946B819FEF7C3FF002060
S1131F70BDE8F28F2DE9F047042886B080461BD8CF
S1131F80DFE800F0030D1013170040251427022684
S1131F904FF0000C00201C460DF1080932E04025EA
S1131FA01C27F4E740252027F1E780253027042665
S1131FB0EEE780254027FAE728484BE0331A9B00D8
S1131FC054F820E05B1E0CEBCE0C09F803C00DF1B5
S1131FD0080C634454F820E0DB1E4FEA5E1E83F8CD
S1131FE002E054F820C04FEA5C3C83F801C054F886
S1131FF020C04FEA5C5C83F800C054F820304FEAFC
S1132000537C401CB042D9D32068DDF83890019449
S11320106B1E1840B600AB1B984232BF181AC6EBB1
S11320204505281A15468A46024600954FEA0A03D2
S113203040A14046FFF73EFF0194009553463246C7
S113204002A94046FFF736FF3A4651464846FEF796
S113205051FF002006B0BDE8F087000080AFFFFF0D
S113206000281CBF6C21FEF781BF704700220029A5
S1132070CCBF012100210262426280F86810002076
S113208070473EB5034603F1200493F86800002826
S113209003F1280514BF0120022001940095FFF7E5
S11320A009FF3EBD1CB590F868200091002A14BFBA
S11320B00124022400F008F82046FFF75BFF16BD58
S11320C0D4E70000DDE7EDE700F1200300F128028A
S11320D00146704767452301EFCDAB8998BADCFE12
S11320E010325476C3D2E1F000000000000000007A
S11320F000000000C1059ED8367CD5073070DD177E
S1132100F70E5939FFC00B316858151164F98FA7C0
S1132110BEFA4FA46A09E667BB67AE853C6EF372EC
S1132120A54FF53A510E527F9B05688C1F83D9AB9E
S11321305BE0CD19800000000000000000000000FA
S1132140000000000000000000000000000000008B
S1132150000000000000000000000000000000007B
S1132160000000000000000000000000000000006B
S113217000000000890001EB401101F184410A6074
S1132180704710B50A684B688C68C96802600360C0
S11321900460016010BDF4E710B5026803680468C8
S11321A000680A608C604B60C86010BD38B5102AA6
S11321B004460D460DD101220021FFF7DBFF04F593
S11321C0887429462046FFF7DCFF05F110012046FC
S11321D006E000220021FFF7CDFF294604F1240088
S11321E0BDE83440CDE71FB50C4614F0030108D018
S11321F06946FFF7D1FF102269462046FEF77AFEB2
S11322001FBD2146FFF7C8FF1FBD1FB5044611F0CF
S1132210030008D010226846FEF76CFE694620468B
S1132220FFF7B9FF1FBD2046FFF7B5FF1FBD00280C
S11322301CBF2421FEF79ABE704770B505000C46FA
S113224018BF002C164602D16FF0210070BD242166
S1132250FEF78CFE802E18BFB6F5807F02D06FF09B
S1132260220070BD2E60F2082146281DFEF742FEB2
S1132270002070BD594605F18000B4E7484600F0DF
S1132280ABBD2DE9F64F83B0002A14BF14680024B7
S11322900027009000281CBF0F9E002E09D0DDF8F7
S11322A04080B8F1000F1CBF0193002B01D00E98A1
S11322B010B96FF0210075E0009800680291802841
S11322C018BFB0F5807F04D06FF022006AE000F000
S11322D06CF80298874261D2002CF8D100F087FD97
S11322E00546002068604FF4404129604FF0000A21
S11322F000F092FD81460098016880290CBF0822F5
S11323001022011D2846FFF751FF019905F18400B1
S1132310FFF77BFFFFF7B2FF0298A0EB070913E07A
S113232000F04EF80AF1010A00F076FD8346F11937
S113233005F1A000FFF769FF08EB0701FFF79BFF1A
S1132340584600F049FD1037BAEB191F15D2482042
S1132350A8600521A960E3E76CB94820A8600521BD
S1132360A96000F02DF800F057FD81460E99FFF7A3
S113237082FFFFF783FF00F018F80298C01BEBD12F
S113238000F04AFD8146019905F18400FFF72BFF17
S1132390FFF774FF284600F033FD9AE7049800B174
S11323A00460002005B0BDE8F08F0E9AF15D105D69
S11323B0414008F80710641C04F00F047F1C7047A8
S11323C028698107FCD40320A860704710B50A6807
S11323D04B688C68C968026003600460016010BDCA
S11323E010B502680368046800680A608C604B607A
S11323F0C86010BD38B504460D46FFF7E7FF05F188
S113240010012046BDE83440E0E738B504460D46E7
S1132410FFF7E6FF05F110012046BDE83440DFE791
S113242038B500F00EF804F10C0104E038B500F002
S113243008F804F12C011846BDE838402022FEF7C4
S113244059BD8C240FF2907560430B462C187047CD
S1132450F8B500F068F90746294604F58470FFF7DB
S1132460C9FF314604F58670FFF7C4FF384600F013
S1132470B3FCDFF8D8062065012161656069000EB0
S113248000F0010080F00100F2BD2DE9F84F88B0A2
S113249004460D4692461E4600F0BEFC834604F5F3
S11324A0827705F1400100F035F904F5867851464C
S11324B000F026F904F588790AF120014846FFF76F
S11324C099FF00F022F900F048FAA065E16504F5EF
S11324D0847A00F0A1FC8346294600F01BF905F13B
S11324E0200100F010F905F140014846FFF782FF92
S11324F000F00BF9DFF85806DFF85816206561651F
S11325000120A06504F5807900F086FC834606F17D
S113251040014846FFF779FF69465046FFF775FFCB
S113252000F0F3F800F078FC834600F0E8F800F0DF
S1132530ECF8DFF82406DFF8241620656165012134
S1132540DFF81C0600F0E8F8804600F0E1F800F03F
S11325502FF9DFF81006DFF8101600F020F8054612
S113256031465046FFF751FF284600F035FC00F095
S113257053FC054669463846FFF73CFF284600F001
S11325802BFCDFF8E805DFF8E81500F008F804464E
S113259000F0B1F800F0C4F809B0BDE8F08F206590
S11325A061650120A06500F037BC2DE9F84F98B0B3
S11325B000F0B9F8804604F5827700F0A9F800F03D
S11325C0F7F8DFF8B005DFF8B0152065616504F5AC
S11325D08078DFF8A805FFF7E5FF814608A94046A3
S11325E0FFF713FF484600F0F7FB00F015FC8146A7
S11325F000F085F8484600F0EFFBDFF88405DFF8CB
S11326008415206561654FF48670A06504F58679AC
S113261000F002FC824610A94846FFF7F6FE694620
S11326204046FFF7F2FE504600F0D6FB00F0F4FB04
S1132630824605F1400100F06DF8504600F0CCFBF5
S1132640DFF8440520650121616504F5847A00F012
S1132650E3FB8346294600F056F800F056F8DFF80D
S11326602C05DFF82C15206561650121DFF82405B0
S113267000F052F8834669465046FFF7BBFE10A9A6
S11326804846FFF7B7FE00F040F8DFF80C05DFF826
S11326900C1520656165DFF80805FFF783FF8346A5
S11326A0314604F58870FFF7B0FE00F02EF800F014
S11326B0B3FB834600F02CF805F1400100F023F849
S11326C008A94846FFF796FE00F01FF8DFF8D40487
S11326D0DFF8D4142065616500F09EFB044606F122
S11326E040014046FFF791FE00F005F800F018F8AD
S11326F019B0BDE8F08F06F12001484685E6294669
S1132700404677E63146504674E6584600F064BBCE
S113271005F1200138466DE6A065E16500F07CBB5B
S1132720204600F059BB04460D46164600F074BB23
S11327302DE9F04105460E461C4617462021204649
S1132740FEF714FC0122226000F066FB8046394645
S113275005F58070FFF74EFE314605F58270FFF7F0
S113276049FE05F5847621463046FFF743FE00F026
S11327701FF8DFF8380428650BE0DFF83414DFF8BD
S1132780340429656865DFF83014DFF83004A9657E
S1132790E8656869C101F0D500F03EFB05462146B5
S11327A03046FFF732FE2846BDE8F04100F014BB86
S11327B0404600F011BB50F8043B934203D007E0BD
S11327C050F8042B22B9091F0129F9DA01207047B6
S11327D0002070472DE9F04188B004460E460E9F54
S11327E01546984620216846FEF7C0FB0122009258
S11327F020213846FEF7BAFB202107F12000FEF71E
S1132800B5FB202107F14000FEF7B0FB8C200FF24E
S1132810C83110FB06F68E192046317A00F000FB11
S113282000202060206360637668761E002E3ADD07
S113283000F03EF8F9D536E0202229463846FEF766
S113284069FB202205F1200107F12000FEF762FB5D
S11328502022694607F14000FEF75CFB22E03A467D
S113286039462046FFF7A1FE00F022F81AD50022CF
S113287020213846FFF79FFF70B10022202107F185
S11328802000FFF798FF38B10022202107F1400013
S1132890FFF791FF0028CFD13B462A463946204610
S11328A0FFF7F3FD761E002ED9D508B0BDE8F08100
S11328B0301106EBD060401158F82010A6EB401000
S11328C0C140CA0770472DE9F04104460F461D4632
S11328D016463B468C200FF200324343D01890B08A
S11328E0017A204600F09CFA00222260226362638F
S11328F069463846FFF794FD08AB6A4606F1400185
S11329002046FFF715FF00F087FA804608A904F572
S11329108270FFF76FFD04F586773146FFF7FAFE04
S113292006F1200104F58870FFF764FDFFF740FF0E
S113293000F013F8FFF7F0FE064605F1200104F558
S11329408070FFF762FD29463846FFF75EFD30468A
S113295000F042FA10B0BDE8F0818648984920653D
S1132960616501219748704738B50D46044620211A
S1132970FEF7FCFAFFE71F204242295C2244401E76
S1132980D177F9D531BD00002DE9F04F0D0018BF06
S11329905FEA0308B9B0144603D0429E0EB1002C7E
S11329A002DC40F20160CDE0074600203860386365
S11329B078630C21786840F010007860384600F0A5
S11329C02FFA786820F4406040F40060786011A920
S11329D0786820F4407040F4007078600020FFF7BD
S11329E025FD11AA31463846FFF732FD30B911AA48
S11329F006F120013846FFF72BFD10B140F20260CA
S1132A00A0E0202CC8BF2024202119A8FEF7AEFA8C
S1132A10002014E0221A521E09A99208A4F1010E02
S1132A2001EB8201AEEB000E2B5C0A6C4FEACE0E7A
S1132A300EF0180E03FA0EF31A430A64401CA04267
S1132A40E8DB00F0E9F9044607F5847519A928467E
S1132A50FFF7D0FCFFF764FE5B48386507F5807428
S1132A6000F0DAF9814619A92046FFF7CEFC484662
S1132A7000F0B2F901AB11AA06F120013846FFF7C4
S1132A8057FE00F0C9F9834601A907F58270FFF7E4
S1132A90B1FC07F5887919A94846FFF7ABFC07F59F
S1132AA0867AFFF72FFEFFF730FE4848484938651D
S1132AB0796500F0B1F9834619A94846FFF7A5FCEA
S1132AC001A92046FFF7A1FCFFF71FFE21A80090F3
S1132AD00DF1640353A200213846FFF77BFE09A8D9
S1132AE0009001AB424600213846FFF773FE21AB4C
S1132AF021AA00213846FFF7E6FE09AB21AA09A95D
S1132B003846FFF7C2FC09AB09AA00213846FFF793
S1132B10DAFE00F081F904460C21384600F080F911
S1132B2009A92846FFF766FCFFF7ECFDFFF7F8FD5F
S1132B3028482249386579657869C1014CBF00206D
S1132B4040F2046039B0BDE8F08F00003035DA108F
S1132B50D01482CB1481E11C8CE11C811C84D91C0F
S1132B608391D11CE014D8141482E11C84D3148200
S1132B70D11CE0148AD11C81821CC00C0C0C0100F5
S1132B80C00C0C83D91C83D88AD11C83DA0C811421
S1132B9082D11C81C80C0C818CE11CD01484E314F8
S1132BA082D11C01D81483D11CC00C013939840191
S1132BB0D02484FC1C82FED88B1C81A039380100EF
S1132BC0D91C83D11C81E11C30D00C0130E11C8460
S1132BD030D91C013035DA14200000000001000057
S1132BE0050C0000FFFFFFFFFFFFFFFFFFFFFFFFDC
S1132BF000000000000000000000000001000000D0
S1132C00FFFFFFFF512563FCC2CAB9F3849E17A7D7
S1132C10ADFAE6BCFFFFFFFFFFFFFFFF000000006F
S1132C20FFFFFFFF96C298D84539A1F4A033EB2DDE
S1132C30817D0377F240A463E5E6BCF847422CE1CA
S1132C40F2D1176BF551BF376840B6CBCE5E316B0E
S1132C505733CE2B169E0F7C4AEBE78E9B7F1AFED2
S1132C60E242E34F10B50A684B688C68C968026099
S1132C7003600460016010BD10B502680368046855
S1132C8000680A608C604B60C86010BD38B50446AB
S1132C900D46FFF7F1FF05F110012046BDE8344071
S1132CA0EAE72DE9F84F98B006460C4690469A4656
S1132CB000F09DF805461EB1022E52D051D352E0C9
S1132CC000202860002169600020E864696821F41C
S1132CD0406169602863686354F8201009BA4DF8AC
S1132CE02010401C0828F7D300F096F8044605F598
S1132CF0827669463046FFF7B5FF04A93046FFF7F0
S1132D00B1FF204600F068F82F4828650027229C70
S1132D1005F5D276A74242D218F0030008EB8719D2
S1132D2006D04022494608A8FEF7E4F80DF1200930
S1132D3000F072F88346494600F04CF809F110019E
S1132D4000F048F809F1200100F044F809F13001DD
S1132D5000F040F8584600F03FF81C4828657F1CF6
S1132D60D8E70420ADE71A4816E000F055F8044609
S1132D7051463046FFF78AFF204600F02DF82846DA
S1132D8000F03EF800205AF8201009BA4AF8201042
S1132D90401C0828F7D3002019B0BDE8F08F1AF0C2
S1132DA0030005F58076E0D000F036F80446694665
S1132DB03046FFF76BFF204600F00EF820226946EC
S1132DC05046FEF797F8DAE7888AC801070D8101B3
S1132DD080AFFFFF304645E700B962B67047FEE7B3
S1132DE0890001EB401101F184410A60704780B50C
S1132DF0FFE7012201210648FFF7F2FF054802BD63
S1132E000449884203D1002201210148E8E77047C0
S1132E10B0400E4000000F40EFF3108072B67047D0
S1132E2042685209042941EA42120AD9491F022977
S1132E3005D9C91E032904D9091F022902D842F061
S1132E4010024260704730B4002513E050F8042BA0
S1132E50D30744BFA9F101039A18091F042942F8B2
S1132E60045BFAD213468C0744BF15809B1CC90728
S1132E7048BF1D7050F8041B0029E7D130BC7047CF
S1132E8038B5174C206840F0040020600123042268
S1132E9000F02AF80021009102E00098401C009004
S1132EA000986428F9DB0123022200F01DF80020B9
S1132EB001E00098401C00900098B0F5FA7FF8DB20
S1132EC008490868012814BF0125002501230022B0
S1132ED000F00AF8206820F004002060284632BD83
S1132EE0B0400E409021144204210520FEF78DBD10
S1132EF04FF40170FDF7C4FF00BF4949494A82B04D
S1132F00012008606846146800F09CF8240E8F2C99
S1132F1010DA4548454C016841F0040202604FF064
S1132F205013002230255543521C6351062AF9D30D
S1132F30016000E006DC3E480168C909C90141F0AE
S1132F40200101609DF80100012804D1394801687D
S1132F5041F0040101600020374908600020C046A8
S1132F60FDF789FFFDF78CFCFDF78CFCC0B9FDF77C
S1132F70A9FC0446C046C046002C1ABF40F20370A8
S1132F80844240F2012009D040F2057084421CBF03
S1132F9040F206718C4203D140F20320FDF770FF2A
S1132FA04FF40170FAE7000038B5244801680124A1
S1132FB001254A050AD5FDF785FF40F20221401A92
S1132FC007D0C01E05D0C01E012802D9FFF758FF44
S1132FD008B10024002544F20400016811F1010F36
S1132FE006D1BDE832404FF40270FDF73DBF31BD5C
S1132FF02DB14FF4804000F09BF80400F1D0002C78
S1133000F5D00F494FF4804008600246104601682D
S113301081F3088881F3098840688746FEE7000049
S113302044000E40FC81E00FB0400E4000A0004080
S11330302C400E4064310E40B40AC64304500E4086
S113304008ED00E010B50B4A516813688C0004F0D9
S11330503C04C3F381110C438470116801F03F01F7
S113306041709368D16803F0F003C1F303110B437B
S1133070037010BDE0FF0FE02DE9F041044640F677
S1133080280088460068016916468C4222BF371919
S11330904269BA4216D3E00AB4EBC02004BF20460A
S11330A000F0DAF804F50065ED0AED0204E02846C4
S11330B000F0D2F805F50065BD42F8D3324641462A
S11330C0204631E0BDE8F0812DE9F0418846282111
S11330D015460968524B0A689A4223D10E6940F694
S11330E02801861909684A69AF19BA421AD310B976
S11330F0086900F0B1F8F10AB6EBC12104BF30460B
S113310000F0AAF806F50064E40AE40204E02046AC
S113311000F0A2F804F50064BC42F8D32A46414604
S1133120304601E0BDE8F081BDE8F04100F0CDB8E3
S113313058B584B0044668463FA11022FDF7EAFE64
S1133140226802F1604247F601436068616B9A426B
S113315029D240F6280213681A69904223D3314BCE
S1133160984220D2403291420E4601D3994205D36F
S11331700020C046401E8041C00F1BE00020C04616
S113318098B900F053F8A0B9706990B102280CD135
S1133190B069001D011B4FF0FF322046FEF730FDE1
S11331A02149884205D0002004E0204600F004F8BC
S11331B000E0012005B050BD50B59FB004466846FC
S11331C021A11022FDF7A6FE666B00F02FF818B9B6
S11331D0706901280BD1B66940F6280001680A69B4
S11331E0964228BFA64202D30E48864201D300204D
S11331F013E004A8FEF71EFD321B214604A8FEF7C7
S113320023FD04A8FEF722FD06F12002314604A89E
S1133210FEF790FD401E8041C00F1FB050BD00005E
S1133220AD1007B001000400E320BBDE10226946A4
S11332303046FEF741BD000013B779FAC925DDB762
S1133240ADF3CFE0F1B614B813B779FAC925DDB7F9
S1133250ADF3CFE0F1B614B810B53B4C41F6713183
S1133260A163226852085200226000F01EF922680D
S113327052080146520022600020A063481E80418B
S1133280C00F10BD38B58308800705D54FF6FF720F
S113329042EA0142009204E041F07F4141F47F019F
S11332A0009141F67130284CA063042225686D0812
S11332B06D0025606946980000F031F922685208D3
S11332C0520022600021A16332BD2DE9F041054680
S11332D08846144605F0010104F00100014330D191
S11332E06CB3AA0707D538F8021B2846FFF7CAFFB4
S11332F038BBAD1CA41E042C1AD3134E41F67130F6
S1133300B063A7083168490849003160BF003A46F4
S11333104146284600F003F9316849084900316004
S113332000227908B26308EB41087D19E41B40B917
S11333302CB1B8F800102846FFF7A4FF08B9012003
S113334000E00020BDE8F08108000E4010B5764989
S1133350764A01E021B1491E1369DC07FAD411B998
S11333606FF0020010BD5060012010601169480721
S113337002D54FF0FF3010BD002010BD2DE9F04103
S1133380044610460B460022002B41D06FF0010585
S11333906FF002086449654FA8B994469C4537D23A
S11333A054F8040BF8600CF1010C0820386008464E
S11333B001E080B3401E3E69F607FAD458B3386979
S11333C08007EBD523E0EFF3108072B694460FE04C
S11333D03E6906F01906102E08BF3E603E693607A6
S11333E0F6D554F8046BFE600CF1010C10263E6017
S11333F09C45F3D318B962B601E021B1491E38697E
S1133400C307FAD401B942463869810700D52A4670
S11334101046BDE8F0814246FAE72DE9F84F414CE9
S1133420A56B064600202D0418BF6FF001003AD1A9
S11334300D46216841F0010121604FEA920881465E
S1133440AA469B4613E0C7F30A07C7F50067BF08FF
S1133450A8EB0900B84238BF07465A4639465046D9
S1133460FFF78CFF01000CD1B9440AEB870AC14570
S113347007D206EB89073846FFF768FF0100E2D060
S113348011E031682A68914209D03046FFF75EFFA7
S1133490010004D15A4601212846FFF76FFF216835
S11334A0490849002160BDE8F28F30B51D4B9C6B83
S11334B0024625041C486FF0010129D11C6844F020
S11334C001041C609A6001225A605C69620704D599
S11334D000F020F84FF0FF3030BD02225A605A69E4
S11334E0D40710D5002818BF401EF8D10BE00028DF
S11334F0186804D100F00FF86FF0020030BD00F03E
S11335000AF8002030BD5A699407F0D500F002F89B
S1133510084630BD18684008400018607047002312
S11335207BE7000008000E40809698000C000E40D7
S11335304EF68851CEF20001086840F4700008602D
S1133540BFF34F8FBFF36F8F4FF00070E1EE100A9F
S1133550704700000120C046002801D000F00AF89E
S1133560AFF300800020AFF30080FFF7C6FC00F04B
S113357015F8000010B5074979441831064C7C440D
S1133580163404E00A68081D114488470146A14224
S1133590F8D110BDEC0000000801000000F000B8F4
S11335A00746384600F002F8FBE700002021090333
S11335B026311820ABBEF9E7002070470020704781
S11335C080B5FEF708FCFFF7EFFCBDE8014000F012
S11335D000B8AFF30080FFF7ABFFFFF7BBFF10B5F8
S11335E0B1F5BC7F044602D240F2052010BD4FF471
S11335F0BC71FDF7BBFC04F1FC0204F1B40104F15D
S11336002400BDE810400023FDF7ECBD1CB500917B
S11336100446214604F12400FDF720FE00281CBFC7
S113362041F207018842C4F874010BD1A07838B183
S1133630E07810B140F2032016BD40F2022016BD1E
S113364040F2012016BD30B5016884684218416813
S113365002EB5103C9070BD54C4409E012F9011BD5
S113366012F8015B002904F8015B05D5491CF9D166
S11336709A42F3D10C3030BD491EF1D5F8E7000071
S1133680C7F7FFFF0C0200001C010020000000002F
S1133690B7FFFFFF0C0000003C000000800000208A
S11336A081000C00F07F10308000002034000140C5
S11336B0FB000AF0490200800000C0EA210100007A
S10736C00000000002
S90335D3F4
