S06C000073616D706C652D617070732F626F6F746C6F616465722D756172742D786D6F64656D2F65667233326D673132703333326631303234676C3132352F626F6F746C6F616465722F52656C656173652F4578652F626F6F746C6F616465722D636F6D62696E65642E73333720
S3150FE100000A4880F308880A4800470000000000000C
S3150FE1001000000000000000000000000000000000EA
S3150FE100200000000000000000F805E10F9004002039
S3150FE10030E105E10F10B57249724A01E021B1491E9E
S3150FE100401369DC07FAD411B96FF0020010BD5060E5
S3150FE10050012010601169480702D54FF0FF3010BD3E
S3150FE10060002010BD2DE9F041044610460B46002253
S3150FE10070002B41D06FF001056FF002086049614F27
S3150FE10080A8B994469C4537D254F8040BF8600CF1A5
S3150FE10090010C08203860084601E080B3401E3E6936
S3150FE100A0F607FAD458B338698007EBD523E0EFF3B7
S3150FE100B0108072B694460FE03E6906F01906102ECF
S3150FE100C008BF3E603E693607F6D554F8046BFE600D
S3150FE100D00CF1010C10263E609C45F3D318B962B6BC
S3150FE100E001E021B1491E3869C307FAD401B9424685
S3150FE100F03869810700D52A461046BDE8F0814246A8
S3150FE10100FAE72DE9F0473D4CA56B814600202E0419
S3150FE1011018BF6FF001002DD1374D2E682D68276876
S3150FE1012047F001072760960800271D468A4613E028
S3150FE10130C8F30A08C8F500684FEA9808F01B40456E
S3150FE1014038BF80462A4641465046FFF78BFF0100EE
S3150FE101500CD147440AEB880AB74207D209EB870865
S3150FE101604046FFF767FF0100E2D003E02168490847
S3150FE1017049002160BDE8F08770B5204B9C6B0246C4
S3150FE1018025041F486FF001012CD11B4C266824680A
S3150FE101901D6845F001051D609A6001225A605C6990
S3150FE101A0620704D500F020F84FF0FF3070BD022250
S3150FE101B05A605A69D40710D5002818BF401EF8D1E6
S3150FE101C00BE00028186804D100F00FF86FF0020079
S3150FE101D070BD00F00AF8002070BD5A699407F0D59A
S3150FE101E000F002F8084670BD186840084000186034
S3150FE101F07047002385E7000004300E4008000E40EB
S3150FE10200809698000C000E4010B53B4C41F67131CB
S3150FE10210A1632268520852002260FFF7ADFF226800
S3150FE1022052080146520022600020A063481E804119
S3150FE10230C00F10BD38B58308800705D54FF6FF729D
S3150FE1024042EA0142009204E041F07F4141F47F012D
S3150FE10250009141F67130284CA063042225686D08A0
S3150FE102606D00256069469800FFF7C3FF22685208C3
S3150FE10270520022600021A16332BD2DE9F04105460E
S3150FE102808846144605F0010104F00100014330D11F
S3150FE102906CB3AA0707D538F8021B2846FFF7CAFF42
S3150FE102A038BBAD1CA41E042C1AD3134E41F6713084
S3150FE102B0B063A7083168490849003160BF003A4683
S3150FE102C041462846FFF795FF3168490849003160F5
S3150FE102D000227908B26308EB41087D19E41B40B9A6
S3150FE102E02CB1B8F800102846FFF7A4FF08B9012092
S3150FE102F000E00020BDE8F08108000E40F8B5314876
S3150FE1030001680869CD68846AAC4225D305F51041C9
S3150FE103108C4221D2641B04192B4E2168B1421BD1A9
S3150FE10320E1682A4F4FF0FF3200F056F8B84213D189
S3150FE1033000F040F80ED20268B2420BD18168A26892
S3150FE10340914207D3C1684FF0FF32284600F044F8D7
S3150FE10350B84201D00120F2BD0020F2BDF8B519482F
S3150FE1036000680569C468AE6A361BAE19274604E014
S3150FE103703846FFF749FF07F50067F268101987421C
S3150FE10380F6D329462046FFF778FF90B100F012F831
S3150FE103900CD202680C498A4208D1C1684FF0FF328C
S3150FE103A0204600F019F80949884201D00020F2BD34
S3150FE103B00120F2BD0648074900680918B1F5104F4B
S3150FE103C0704700002800E10F07B0CD5EE320BBDEEA
S3150FE103D02808E10F00F81EF030B50A4B1C6844F00F
S3150FE103E040041C600125084B1D609A605D6002E0C8
S3150FE103F010F8014B9C610A46511E002AF8D1D869C3
S3150FE1040030BD00BFB0400E4000C0014019481A4A46
S3150FE1041001681A4811604023C36001684A03FCD49E
S3150FE10420FFF79CFF0028FBD040F2022000F030F8E6
S3150FE1043000BF10B5124C1348206000F049F812497D
S3150FE104400A68B2F5803F0AD040F20921884218BF07
S3150FE10450B0F5007F03D1FFF751FF00B110BD0B4897
S3150FE104602060016881F3088881F309884068804735
S3150FE10470FEE70000880000208C00002004300E40CB
S3150FE1048008ED00E00000E10F04500E400008E10F17
S3150FE104904FF0005108804FF20F004880094801687C
S3150FE104A021F4E06141F480610160BFF34F8F0649AA
S3150FE104B006480A6802F4E06202430A60BFF34F8F0F
S3150FE104C000BFFDE700500E400CED00E00400FA0519
S3150FE104D04FF000514FF20F024888904201D1088840
S3150FE104E07047002804BF0888012802D140F2022094
S3150FE104F070474FF40070704730B450F8041B79B170
S3150FE105000268436802440830DC0744BFA9F10104DD
S3150FE10510E31852F8045B43F8045B091FF9D1ECE7E2
S3150FE1052030BC704710B5074979441831064C7C4405
S3150FE10530163404E00A68081D114488470146A142B2
S3150FE10540F8D110BD2C0000003C0000004EF688519A
S3150FE10550CEF20001086840F470000860BFF34F8FD8
S3150FE10560BFF36F8F4FF00070E1EE100A7047000096
S3150FE1057089FFFFFF100000009400000080000020BB
S3150FE10580000000000449054808600548026842F486
S3150FE10590700202607047000008ED00E02C00E10FE9
S3150FE105A088ED00E00120C046002801D0FFF7BAFF31
S3150FE105B0AFF300800020AFF30080FFF727FF00F0D5
S3150FE105C000F800F001B800000746384600F002F8DF
S3150FE105D0FBE700002021090326311820ABBEF9E71E
S3150FE105E00248804702488047024800478505E10FE8
S3150FE105F03304E10F1D06E10FAD1007B00100000056
S3150FE10600000007010008E10F0080000000F0490239
S3150FE1061000800000C0EA2101C0EA2101AFF30080AA
S30D0FE10620FFF794FFFFF7BEFFA0
S3150FE1080030130020CD37E10FF30FE10F6131E10F27
S3150FE10810FB0FE10F9B1AE10F771BE10F00000000C1
S3150FE1082000000000000000004008E10F5F1DE10F2E
S3150FE10830871EE10F00000000171FE10FCF1FE10F29
S3150FE1084007B0CD5E0100000000000701D4300000C3
S3150FE108500000000000001000F0001000C537E10FA6
S3150FE10860C937E10F4933E10FEB37E10F1938E10FE3
S3150FE108700000000038B5044600F097FA182C05463B
S3150FE1088005D1182000F091FA182000F08EFA2846CB
S3150FE1089032BD80B54FF47A71684600F004FB08B1BA
S3150FE108A0012002BD9DF80000312802D0322802D086
S3150FE108B003E0022002BD052002BD002002BD0A2889
S3150FE108C0ACBF37303030C0B2704700F0D5B9000059
S3150FE108D010B5114892B001688C6800BFB3A16846A4
S3150FE108E0482200F05BFB200E00F05CF98DF8140056
S3150FE108F0200C00F057F98DF8160004F00F00FFF702
S3150FE10900DEFF8DF8180001224521684600F01CFA3A
S3150FE10910002012B010BD00002808E10FADF5007DF3
S3150FE1092003A8242100F066FB00F068FB5FF00004EA
S3150FE109300FF23436AFA70FF2EC280FF2CC2940F6BF
S3150FE10940071A72E0002C04BF9DF87501012809D141
S3150FE10950009680235EAA03A939A800F025FD0400BD
S3150FE1096040F09E809DF80400182801D14FF0060B48
S3150FE109709DF80400FFF77EFFBBF1060FFCD8DFE819
S3150FE109801BF052005400080024005B00FC009900A4
S3150FE10990F2E701221121384600F0D6F920231EAAEB
S3150FE109A00CA939A800F0C4FC242103A800F022FB0E
S3150FE109B00121052000F044FB00F018FA18B10121DE
S3150FE109C0002000F079FA01F069F84320FFF752FFB2
S3150FE109D000214FF47A7000F033FB00F007FA18B9F3
S3150FE109E000F044FB0028F8D000F000FA10BB6D1EB2
S3150FE109F0EBD11820FFF73EFF15E050208DF80400EC
S3150FE10A009DF804000009FFF75AFF00F0CEF99DF8B3
S3150FE10A10040000F0C7F800F0C8F90D2000F0C5F9A1
S3150FE10A200A2000F0C2F9FFF753FFFFF732FF8346C3
S3150FE10A303C25A1E74FF0040B5DA88521401C01F091
S3150FE10A4097F800F0D3F90028FBD04FF47A700090B5
S3150FE10A5001235DA802AA0121401C00F0E4F99DF8EB
S3150FE10A60750101280ED140F6B8310091012302AA92
S3150FE10A7084210DF5BB7000F0D6F90299842908BFE0
S3150FE10A800028D9D15DA801A9401C01F00CF8044654
S3150FE10A9054457FF457AF9DF80E004FF0060B18B98A
S3150FE10AA018218DF8041061E79DF80F0000287FF4F7
S3150FE10AB059AFF5E70121002000F0FEF901210A20E7
S3150FE10AC000F0BEFA9DF80400062808BF544505D18B
S3150FE10AD001221B21484600F037F9A4E701221A212A
S3150FE10AE0404600F031F9A4F51060B0F5E06F03D29E
S3150FE10AF00122182152A002E00122102156A000F096
S3150FE10B0023F940F60111601A23D0401E25D0401E6D
S3150FE10B1019D0401E19D0401E21D0401E21D040F2DF
S3150FE10B20FB61401A27D0C01E3FF467AF401E1CD0B1
S3150FE10B30401E1ED0401E1ED0401E18D0401E12D0A1
S3150FE10B40401E18D05CE7212058E722218DF80410CA
S3150FE10B5056E723228DF8042052E72421F6E72522D2
S3150FE10B60F8E72721F2E74122F4E74321EEE74422B2
S3150FE10B70F0E74521EAE74F22ECE79DF80E00002862
S3150FE10B801CBF9DF80F00002809D09DF80C00002826
S3150FE10B9014BF40F2092040F2012000F0F9FF40F2C4
S3150FE10BA00320FAE700F00F0089E600000D0A47651A
S3150FE10BB0636B6F20426F6F746C6F61646572207641
S3150FE10BC0582E592E410D0A312E2075706C6F6164C6
S3150FE10BD02067626C0D0A322E2072756E0D0A332E66
S3150FE10BE02065626C20696E666F0D0A424C203E20CD
S3150FE10BF0000000000D0A626567696E2075706C6F03
S3150FE10C0061640D0A000000000D0A53657269616C9B
S3150FE10C102075706C6F616420636F6D706C657465C0
S3150FE10C200D0A00000D0A53657269616C2075706CCF
S3150FE10C306F61642061626F727465640D0A00000072
S3150FE10C400D0A584D6F64656D20626C6F636B20659D
S3150FE10C5072726F72203078000D0A66696C652065D5
S3150FE10C6072726F7220307800000000009532E10F4A
S3150FE10C7000000000E332E10F10B501219A489B4CC9
S3150FE10C8000F0CCFF01219A4800F0C8FF01219948F5
S3150FE10C9000F0C4FF0121984800F0C0FF40F6AA60BA
S3150FE10CA0E06000212160616641F205006060A160AC
S3150FE10CB06161E164914AA2646167A167E16760607E
S3150FE10CC08F49206820600A68012A0CBF4FF495709E
S3150FE10CD040F27B20C0006061012304220021002045
S3150FE10CE000F0EBFF012301220121002000F0E5FFD7
S3150FE10CF00020A0670321616701230422052100F08B
S3150FE10D00DCFF0520E0604FF0E0617E4801600022E4
S3150FE10D100262C2624263C2664FF440237A490B60B4
S3150FE10D208A60002485A2794B4C60920892008A6111
S3150FE10D300B638C634C630321754A11600123C36313
S3150FE10D4002207449086010BD70B50E46802E054627
S3150FE10D50144602D341F2031070BD00F036F810B914
S3150FE10D6041F2062070BD00206B4902E02A5C0A546D
S3150FE10D70401CB042FAD3D1F88000761E66F30E100E
S3150FE10D80C1F8800080318908644889000160022238
S3150FE10D9063490A603CB100F018F80028FBD06148BE
S3150FE10DA001688A06FBD5002070BD10B5044600F038
S3150FE10DB00CF80028FBD05B4801684A06FBD5446274
S3150FE10DC001688A06FCD5002010BD5748574982684D
S3150FE10DD0930702D50220086003E00068820703D477
S3150FE10DE00220886001207047002070475048006854
S3150FE10DF040F20111884208BF002007D040F20221DC
S3150FE10E0088420EBF4FF480704A49401A4A4A116828
S3150FE10E10814201D10020704701D2401A7047C1F5D6
S3150FE10E200071401870472DE9F0410746884615468F
S3150FE10E3000268BB1069C2CB100F0E0F8002120468C
S3150FE10E4000F0FEF8FFF7D2FF404505D2002CF9D0AE
S3150FE10E5000F00CF90028F5D0FFF7C8FF804505D85B
S3150FE10E60404603E000230B6002211160864212D255
S3150FE10E703149304A0B68D45C264ABC55761C5B1C5B
S3150FE10E80B3F5007F0B60EDD0B3F5807FEED1012195
S3150FE10E90EBE7BDE8F08105B12E60464534BF41F27F
S3150FE10EA004200020F5E780B50091012300220121FE
S3150FE10EB0FFF7B9FF02BD00001C4A08B1022010601E
S3150FE10EC081B10120106090605FF000011BA2144810
S3150FE10ED092089200C2650123174A1160036002204E
S3150FE10EE00C490860002070474041050000000140B1
S3150FE10EF000350A0000550A0000420400F9FF01001F
S3150FE10F0094400E4000200E4080200E4001000C0060
S3150FE10F1028200E4408200E4680000020C8200E40EF
S3150FE10F203C200E401000014020200E4020200E44B0
S3150FE10F3094200E401C01002024030020F00F100323
S3150FE10F401C0001401C0100201300000009000000F5
S3150FE10F50000100000202000013000000F00F100371
S3150FE10F601C0001401C0200201300000009000000D4
S3150FE10F700002000001010000D3FFFFFF62B38B0700
S3150FE10F8008D0521E11F8013B00F8013B00F0248016
S3150FE10F908B07F6D1830740F0208000BF103A07D3C5
S3150FE10FA030B4B1E83810103AA0E83810F9D230BCB5
S3150FE10FB0530724BFB1E80810A0E8081044BF51F861
S3150FE10FC0043B40F8043BD20724BF31F8022B20F84B
S3150FE10FD0022B44BF0B7803707047083A07D3B1E889
S3150FE10FE00810083A40F8043B40F804CBF7D2530710
S3150FE10FF0E4E7FEE7002200F099BEFEE7F8B52648E2
S3150FE11000016841F4801101602448026842F001024F
S3150FE11010026000F0A5FE4FF47A71B0FBF1F0204AC1
S3150FE1102023A1800A506010226846FFF7B7FF0A2016
S3150FE110308DF8020069461B4800F0D8FE05B000BDE9
S3150FE1104030B5194B164C1D69626802FB0050608082
S3150FE11050ADB26088A8429241D20F227011B11969DF
S3150FE110608142FCD101201860586030BD0C4A0F490E
S3150FE11070107820B10B68D80706D4002070470868AE
S3150FE11080C30701D50120704788695188884280419D
S3150FE11090C043C00F7047000000400E40C0400E40F5
S3150FE110A01C03002000800140148001400C800140A8
S3150FE110B00100000000000000000000000000000039
S3150FE110C02DE9F8431E467368002B4ED00C4614F0FB
S3150FE110D0030118BF41F2020048D11546074600F059
S3150FE110E0D3FE396E001D6A18824221D300F118032F
S3150FE110F099421DD28C46844538BF844605EB0108DB
S3150FE1110000F11802904588BF9046ACEB0101ACEBBC
S3150FE11110000004EB0109A8EB0C08384442464946A6
S3150FE111206830FFF72BFFFF224146484600F0C0FE2D
S3150FE1113000F0AEFE396E001D884222BF6A18031D0C
S3150FE111409A4209D3411A601807F1800102680A60D1
S3150FE111500421FF2200F0ACFE21463368386E746835
S3150FE111602A46A047386E2D183D660020BDE8F2836A
S3150FE1117070B54B688C689C4206D200F140021B1B8E
S3150FE1118014781B19412B01D3002070BD53781478C5
S3150FE111900D68E4188B68EE5C04F03F0406558C6825
S3150FE111A0641C8C6013785B1C13708C684B689C42D3
S3150FE111B0ECD3012070BD90F840004A688968101899
S3150FE111C0401A70472DE9F0410C4617461D468046F9
S3150FE111D0FFF7F1FFA84208F1400606D22146404645
S3150FE111E0FFF7C6FF10B300204DE000210CE0707849
S3150FE111F018F800207A54491C737830785B1C03F099
S3150FE112003F03421E73703270307808B1A942EED3B4
S3150FE11210A0686268904238BFA9420CD22368185C75
S3150FE112207854491CA268521CA260F1E71220B071F2
S3150FE1123041F2020027E0A942F8D1069CB26C294699
S3150FE11240384600F069FEB06424B1F0682A463946A3
S3150FE1125000F086FE079838B1F07878B1B0682B4682
S3150FE112603A46394600F0A4FEF07838B1F069B16933
S3150FE112702818F061884224BF0020F07070692D189C
S3150FE11280756141F20300BDE8F081F8B584B014460B
S3150FE112900026054601960096082302AAFFF792FF5C
S3150FE112A041F20306B0423CD195F8430005F14807F8
S3150FE112B038B100F038F83868082302AA02A900F01D
S3150FE112C077FE9DF80A209DF80B009DF80910120490
S3150FE112D042EA00629DF8080042EA012202432260D7
S3150FE112E09DF80E009DF80F10000440EA01609DF88D
S3150FE112F00D1040EA01209DF80C100843606095F847
S3150FE11300430048B9DFF82C178A421CBFDFF82807DC
S3150FE11310824201D000F007F86068B8600021F960F9
S3150FE11320304605B0F0BD7868082202A900F018BE74
S3150FE11330F8B5064606F140070020B8717870F870E7
S3150FE1134038710D4600214FF0FF303970797103F096
S3150FE113502003B864396279621446BB70FF22182103
S3150FE1136006F1680000F0A4FDFF22042106F18000DA
S3150FE1137000F09EFDFF22042106F1840000F098FDA6
S3150FE11380BD60FC600020C04600B11DB10020C04623
S3150FE1139018B114B941F20B00F2BD14B1F86800F0BF
S3150FE113A0D5FD0020F2BD00002DE9FB4F824600215D
S3150FE113B0002300249AB005A880E81A000592099146
S3150FE113C00AF148061C9A269D06920AF1420710E099
S3150FE113D000F058FB0899884233D10498B060002198
S3150FE113E0F1600398DFF85416884240F03981022202
S3150FE113F03A7107981C99884280F0BA8241F203024A
S3150FE1140008920DF1280839791229F2D8DFE811F09F
S3150FE1141014001500B4022801EE02F002CE024A01D1
S3150FE11420F0024501F00245011302AD02F302880213
S3150FE114308B02C601AD02DCE7CAE700F023FB089990
S3150FE11440884240F09682B87820B10398DFF8E81524
S3150FE11450884243E03A78D1074AD57878002847D1D0
S3150FE114600398DFF8D81588421CBFDFF8D4158842F8
S3150FE1147022D0DFF8D01588421CBFDFF8CC158842A1
S3150FE114801AD0DFF8C815884222D0DFF8A8158842AE
S3150FE1149065D0DFF8BC15884213D0DFF8B81588425E
S3150FE114A00DD0DFF89415884215D0DFF8AC158842D8
S3150FE114B01CBFDFF8A815884200F0D28010E00E229B
S3150FE114C096E70F2038710020B1683161706190E7BE
S3150FE114D01221397166E00020C04600283DD138E07F
S3150FE114E01220387103A80020C04600285AD08FE297
S3150FE114F00398DFF84C1588421AD0DFF84815884271
S3150FE1150014D0DFF84415884215D0DFF82815884244
S3150FE1151021D0DFF82415884214D0DFF83C15884234
S3150FE115200ED0DFF83815884208D01AE004225FE7BB
S3150FE11530062038715DE7072139715AE70920F8E787
S3150FE115400B21F9E70020C046002804BF7878002870
S3150FE1155003D10C21F0E77878002840F08180102143
S3150FE11560EAE703A80020C046A8B1039870641121E9
S3150FE11570397103980020C046099038788106DCD589
S3150FE11580099800281CBF41680029D6D050468847E4
S3150FE115900028D2D03CE212217878397110B141F2AC
S3150FE115A00400E6E141F20800E3E198F8050098F856
S3150FE115B0041041EA00210291C90704D5387840F0B9
S3150FE115C00100387002E00020C04640B90020C04655
S3150FE115D0002800F0D3810298C10500F1CF811220D6
S3150FE115E0387141F20A00C4E1052038710121F97021
S3150FE115F00020F061F068082880F006820121019150
S3150FE11600009100F044FA08998842ECD1012020704C
S3150FE1161098F8020098F803109DF82820000440EA94
S3150FE11620016098F8011040EA012010436060DFF88D
S3150FE116303024DFF83004006801689142D4D198F87C
S3150FE11640062098F8071098F80430C068120442EAA9
S3150FE11650016298F8051042EA01221A438242C3D089
S3150FE1166012213971D4E1012000F004FA0899884278
S3150FE11670B9D198F8021098F803009DF828200904CB
S3150FE1168041EA006198F8010041EA00211143029114
S3150FE11690B068052824BF0298B061F0680428E2D348
S3150FE116A00A2149E70020F061082145E72B68F06937
S3150FE116B042460AA9E047F0694044F061B068F16833
S3150FE116C0814280F09E81A0EB0108B8F1040F05A9D4
S3150FE116D0504608D3FFF76FFD042808D205A95046F7
S3150FE116E0FFF746FD44E1FFF766FD4045F6D3B8F156
S3150FE116F0410F28BF4FF0400800F0B8F9404502D23C
S3150FE1170000F0B4F98046B8F1040F24BF4FEA980010
S3150FE117104FEA8008012001900090434600F0ADF9B1
S3150FE117200899884240F025813879082804D1D5F8FF
S3150FE1173008C0BCF1000FB9D1B8F1040FC8F1040B21
S3150FE1174006D20AA8FF225946404400F0B1FBD8441D
S3150FE1175038790A2806D12B4642460AA95046FFF7A1
S3150FE11760AFFCABE70528A9D1E8680028A6D0F06958
S3150FE1177005280ED208EB000107290AD30AA9091D8C
S3150FE11780081A0AF1840201681160FF22042100F0B0
S3150FE117908FFB2B68F069D5F80CC089E73978880695
S3150FE117A040F13481706C0020C0460028099040F06A
S3150FE117B02D812DE14FF0010900F058F948458DD300
S3150FE117C0B068F168A0EB0109B9F1410F28BF4FF0FD
S3150FE117D0400900F04BF9814502D300F047F9814604
S3150FE117E00120019000904B4600F047F90899884295
S3150FE117F02FD1387881060DD5002C1CBFD4F808C03F
S3150FE11800BCF1000FD5D02B464A460AA95046E04710
S3150FE1181000281ED1F068B168884280F0FC803878E4
S3150FE118208106C7D5002C1CBF21690029C2D05046BD
S3150FE1183088478146C0E7002000F01CF908998842E5
S3150FE1184007D1306C8849884204D012223A7141F2AD
S3150FE1185005008EE00020C04618B91B990120C8701B
S3150FE1186003E01B99C87800283ED0F87800281CBF02
S3150FE11870EC68002C05D02B6804220AF184010420C0
S3150FE11880A047B06900281CBF686800282CD04FF02C
S3150FE11890FF3102910AF180040422214602A800F0E9
S3150FE118A097FB40B100F0F4FA28B121462B686C683A
S3150FE118B00422001DA04704220AF1680102A800F0E4
S3150FE118C087FB88B100F0E0FA2B686C6814220AF105
S3150FE118D06C010830A04700F0D7FA2B686C68042238
S3150FE118E00AF16801001DA0471B99012088700D20A0
S3150FE118F038713DE00020012101900091102300F0A5
S3150FE11900BCF80899884234D100F0B4FB80210090ED
S3150FE119100191012330680BAA022100F026FB6CE04E
S3150FE11920012078701FE0B878E8B9002101910090A5
S3150FE11930402300F0A2F8089988421AD1706800F0A6
S3150FE1194011FB706812AA0AA900F09CFB38B11B992A
S3150FE119500020C8701220387141F2060009E01B9988
S3150FE119600120C870B8700121E6E541F2070000E0F9
S3150FE1197000201DB0BDE8F08FDDF86C90F068082807
S3150FE119803FD2002101200191009000F080F80899E3
S3150FE119908842EED198F803000006B0F1407F3FF49C
S3150FE119A004AE1220387141F20900E2E7DDF86C90DE
S3150FE119B0B368F068984224D201210191009100F0B9
S3150FE119C05CF808998842D4D11C220AA909F10800CA
S3150FE119D0FFF7E4FA012089F8010009F10800012077
S3150FE119E0C0460028E4D141F20C00C2E71B9C01E698
S3150FE119F0DDF86C9062E6DDF86C90F1681029FFF482
S3150FE11A0079AFCDF86C90AEE71B94F2E4099C01E750
S3150FE11A1041F20100ADE7099438788106A3D5002C90
S3150FE11A201CBFE268002A9ED02946504690470028FF
S3150FE11A309FD198E7F70A0AF7FC0404FCEB17A60314
S3150FE11A40F40A0AF4F50909F5F60808F6F70909F7AC
S3150FE11A50F90707F9FA0606FAFD0303FDFE0101FE92
S3150FE11A60AD1007B02800E10FE320BBDE05A9504614
S3150FE11A70FFF7A1BB0190009004230AAA05A95046DE
S3150FE11A80FFF7A0BB03AA05A95046FFF7FEBB082344
S3150FE11A900AAA05A95046FFF795BBFEE73348002191
S3150FE11AA001704170704770B504460D4620780128E4
S3150FE11AB008D003284FD0042848D0182818BF432848
S3150FE11AC049D04DE0294E7078002860780DD1012874
S3150FE11AD006D1012171706078A1780918FF2915D017
S3150FE11AE01520287040F6041070BD3178884204D174
S3150FE11AF00620287040F6061070BD491CC9B288420F
S3150FE11B00E9D01520287040F6051070BD002280211E
S3150FE11B10E01C00F0FFFA04F18301020A0B789A4206
S3150FE11B2004D01520287040F6021070BD497800F0F8
S3150FE11B30FF00884204D01520287040F6011070BDD1
S3150FE11B406078307006212970002070BD062028705C
S3150FE11B5040F6071070BD1821297040F6081070BDC8
S3150FE11B601820287040F6031070BD000028030020EE
S3150FE11B70002200F0A1B9FEE74FF0005108804FF2C5
S3150FE11B800F00488070470F494CF23C300880704790
S3150FE11B904FF0005108804FF20F0048800A48016864
S3150FE11BA021F4E06141F480610160BFF34F8F074992
S3150FE11BB007480A6802F4E06202430A60BFF34F8FF7
S3150FE11BC000BFFDE70200002000500E400CED00E0E3
S3150FE11BD00400FA054FF000514FF20F024888904288
S3150FE11BE001D108887047002804BF0888012802D16F
S3150FE11BF040F2022070474FF400707047890001EB05
S3150FE11C00401101F184410A607047DFF874104A68A8
S3150FE11C10D30702D40A680242FCD1704770B50C466D
S3150FE11C200246110A01F00F010020491E0929DFF8CA
S3150FE11C30545013D8DFE801F00513121207151812E5
S3150FE11C401B1FDFF83850C2F3043608B1FFF7DDFF8B
S3150FE11C50224631462846BDE87040CFE770BD1035C4
S3150FE11C60F1E730350120EEE738351020EBE7403567
S3150FE11C704FF48030E7E7DFF81050E4E700400E401D
S3150FE11C8040410E40B0400E4050410E4010B500F0BD
S3150FE11C900DF804F1806404E010B500F007F804F1E3
S3150FE11CA0C064012303FA01F1216010BD30221E4BFE
S3150FE11CB05043184400F10C047047F8B50546174632
S3150FE11CC038000E461C4607D0002C284602D0FFF7F7
S3150FE11CD0E3FF01E0FFF7DAFF2A46302012494243DC
S3150FE11CE088180F22082E05D2B300416800F015F8C7
S3150FE11CF0416006E0A6F108039B00816800F00DF84C
S3150FE11D0081604FB9002C3146284602D0BDE8F44038
S3150FE11D10C2E7BDE8F440B9E7F1BD9A4021EA020214
S3150FE11D2007FA03F11143704700A0004000B500BF69
S3150FE11D30130096469446103928BFA0E80C50FAD8FE
S3150FE11D405FEA417C28BF0CC048BF40F8042BC907A6
S3150FE11D5028BF20F8022B48BF00F8012B00BDFEE794
S3150FE11D60114912480A6802F00702022A09D00AD37A
S3150FE11D70042A01D002D306E0406805E04FF40040A3
S3150FE11D8002E0006800E08068C96EC1F30421491CD6
S3150FE11D90B0FBF1F07047064906480860064802684D
S3150FE11DA042F470020260704794400E401001002029
S3150FE11DB008ED00E00008E10F88ED00E007498842F1
S3150FE11DC01CBF074A904205D0064988421CBF064A06
S3150FE11DD0904201D1012070470020704700800140F9
S3150FE11DE00084014000A0014000A401402DE9F0412B
S3150FE11DF004460D46FFF7E2FF287808B90221616034
S3150FE11E000022626269780029697A14BF40230023B0
S3150FE11E100029A97A14BF802600260029E97A14BF82
S3150FE11E20202700270029297B14BF4FF0100C944679
S3150FE11E3001B1082195F803E0AA7895F807804FEAF2
S3150FE11E400E4E4EEA026EAA794EEA822242EA082E37
S3150FE11E502A7A42EA0E02134333433B434CEA030326
S3150FE11E600B4329790029697914BF4FF400520022F7
S3150FE11E7009B14FF0805113430B43236008B10120A1
S3150FE11E806060BDE8F081FEE70648016808697047C2
S3150FE11E900548064A00680168914201D10069704719
S3150FE11EA0002070472808E10F2800E10FAD1007B0B9
S3150FE11EB062F30F2262F31F42401810F0030308D0BA
S3150FE11EC0C91A1FD3DB0748BF00F8012D28BF20F839
S3150FE11ED0022D130030B414461546103928BF20E9F8
S3150FE11EE03C00FAD8490728BF20E90C0048BF40F863
S3150FE11EF0042D890028BF20F8022D48BF00F8012DD7
S3150FE11F0030BC7047C91818BF00F8012DCB0728BFA1
S3150FE11F1000F8012D7047FEE730B50A4B1C6844F017
S3150FE11F2040041C600125084B1D609A605D6002E06C
S3150FE11F3010F8014B9C610A46511E002AF8D1D86967
S3150FE11F4030BD00BFB0400E4000C0014010B50446A1
S3150FE11F5000F0C4F92046BDE81040002100F0EEB9CB
S3150FE11F6000F0EEB9014600F0ECB92DE9F843089D12
S3150FE11F70099F80460E4691461C4600F096FA3A4670
S3150FE11F802946404600F097FA08F124000021016046
S3150FE11F9006750C22494608F13900FEF7EFFF08F105
S3150FE11FA04500210C220A847001704270BDE8F1836D
S3150FE11FB03EB5029201911C4600F12805009500F10C
S3150FE11FC0380300F12402214600F099FA37BDFEE706
S3150FE11FD00300002013F0030F09D0521E22BF13F89E
S3150FE11FE0010B11F801CBB0EB0C00F3D07047121FC8
S3150FE11FF022BF53F8040B51F804CB6045F7D0121DFD
S3150FE120000AD200BA9CFA8CFCB0EB0C0038BF6FF029
S3150FE12010000088BF01207047521E22BF13F8010B43
S3150FE1202011F801CBB0EB0C00F6D0521C08BF1046ED
S3150FE12030704730B4002513E050F8042BD30744BFA3
S3150FE12040A9F101039A18091F042942F8045BFAD290
S3150FE1205013468C0744BF15809B1CC90748BF1D70EB
S3150FE1206050F8041B0029E7D130BC7047024870478E
S3150FE1207002487047024870474A43E00F6A43E00F50
S3150FE120808642E00F78B506000D4618BF002DA1B0C8
S3150FE12090144600D014B940F2016023E00121124841
S3150FE120A0FFF7BCFD402111A8FEF7A4FFFFF7DEFF06
S3150FE120B0014611A800F096FDFFF7DAFF014619A8D0
S3150FE120C000F090FD294601A800F08CFD214609A8F4
S3150FE120D000F088FD01A8009011AB2022314603489C
S3150FE120E000F090FD22B070BD00050A0000000F4020
S3150FE120F00A0A42EA01225040C0F30311484080EA3E
S3150FE12100003041010206C9B2D20E41EA022148402E
S3150FE1211080B2704770B504460D461046002604E0BE
S3150FE121200146A05DFFF7E4FF761CAE42F8D370BD22
S3150FE121302DE9F84F022883461FD8140055D00B9A84
S3150FE12140D2F800C0BCF13F0F984618D85068002866
S3150FE1215018BF5FEA080A13D1BBF1000F04D0BBF138
S3150FE12160020F07D003D308E00FF2E41A08E00FF2EB
S3150FE12170002A05E00FF2182A02E0574836E0C24678
S3150FE121800CF03F06A444A445C6F14005C2F800C0D1
S3150FE1219002D25068401C506089460A9F8EB1AC420C
S3150FE121A00FD32A46B819FEF7E9FE01200090434600
S3150FE121B03A465146584600F0B2FEC246A944641B60
S3150FE121C000263F2C0BD9A509009543464A465146B1
S3150FE121D0584600F0A4FE09EB8519A4EB851424B14A
S3150FE121E022464946B819FEF7C9FE0020BDE8F28F2F
S3150FE121F02DE9F047042886B080461BD8DFE800F0CA
S3150FE12200030D101317004025142702264FF0000C7B
S3150FE1221000201C460DF1080932E040251C27F4E7A2
S3150FE1222040252027F1E7802530270426EEE7802594
S3150FE122304027FAE728484BE0331A9B0054F820E091
S3150FE122405B1E0CEBCE0C09F803C00DF1080C6344D1
S3150FE1225054F820E0DB1E4FEA5E1E83F802E054F8E5
S3150FE1226020C04FEA5C3C83F801C054F820C04FEA26
S3150FE122705C5C83F800C054F820304FEA537C401C75
S3150FE12280B042D9D32068DDF8389001946B1E18401F
S3150FE12290B600AB1B984232BF181AC6EB4505281A92
S3150FE122A015468A46024600954FEA0A0340A1404683
S3150FE122B0FFF73EFF019400955346324602A9404689
S3150FE122C0FFF736FF3A4651464846FEF757FE0020DE
S3150FE122D006B0BDE8F087000080AFFFFF00281CBF06
S3150FE122E06C21FEF787BE704700220029CCBF012182
S3150FE122F000210262426280F86810002070473EB505
S3150FE12300034603F1200493F86800002803F128053A
S3150FE1231014BF0120022001940095FFF709FF3EBD8E
S3150FE123201CB590F868200091002A14BF01240224FD
S3150FE1233000F008F82046FFF75BFF16BDD4E7000073
S3150FE12340DDE7EDE700F1200300F1280201467047D2
S3150FE1235067452301EFCDAB8998BADCFE103254768F
S3150FE12360C3D2E1F000000000000000000000000011
S3150FE12370C1059ED8367CD5073070DD17F70E593972
S3150FE12380FFC00B316858151164F98FA7BEFA4FA438
S3150FE123906A09E667BB67AE853C6EF372A54FF53A00
S3150FE123A0510E527F9B05688C1F83D9AB5BE0CD192C
S3150FE123B080000000000000000000000000000000A7
S3150FE123C00000000000000000000000000000000017
S3150FE123D00000000000000000000000000000000007
S3150FE123E000000000000000000000000000000000F7
S3150FE123F0890001EB401101F184410A60704710B584
S3150FE124000A684B688C68C968026003600460016002
S3150FE1241010BDF4E710B502680368046800680A6046
S3150FE124208C604B60C86010BD38B5102A04460D4666
S3150FE124300DD101220021FFF7DBFF04F58874294650
S3150FE124402046FFF7DCFF05F11001204606E00022EA
S3150FE124500021FFF7CDFF294604F12400BDE8344002
S3150FE12460CDE71FB50C4614F0030108D06946FFF717
S3150FE12470D1FF102269462046FEF780FD1FBD21469A
S3150FE12480FFF7C8FF1FBD1FB5044611F0030008D0C3
S3150FE1249010226846FEF772FD69462046FFF7B9FF3F
S3150FE124A01FBD2046FFF7B5FF1FBD00281CBF242126
S3150FE124B0FEF7A0BD704770B505000C4618BF002C9E
S3150FE124C0164602D16FF0210070BD2421FEF792FD71
S3150FE124D0802E18BFB6F5807F02D06FF0220070BD57
S3150FE124E02E60F2082146281DFEF748FD002070BD3B
S3150FE124F0594605F18000B4E7484600F0ABBD2DE93A
S3150FE12500F64F83B0002A14BF146800240027009009
S3150FE1251000281CBF0F9E002E09D0DDF84080B8F1D0
S3150FE12520000F1CBF0193002B01D00E9810B96FF06D
S3150FE12530210075E0009800680291802818BFB0F578
S3150FE12540807F04D06FF022006AE000F06CF8029809
S3150FE12550874261D2002CF8D100F087FD05460020B5
S3150FE1256068604FF4404129604FF0000A00F0A8FD82
S3150FE1257081460098016880290CBF08221022011DAF
S3150FE125802846FFF751FF019905F18400FFF77BFF1D
S3150FE12590FFF7B2FF0298A0EB070913E000F04EF840
S3150FE125A00AF1010A00F08CFD8346F11905F1A0004D
S3150FE125B0FFF769FF08EB0701FFF79BFF584600F0AE
S3150FE125C049FD1037BAEB191F15D24820A86005212E
S3150FE125D0A960E3E76CB94820A8600521A96000F07E
S3150FE125E02DF800F06DFD81460E99FFF782FFFFF79B
S3150FE125F083FF00F018F80298C01BEBD100F060FDE5
S3150FE126008146019905F18400FFF72BFFFFF774FF70
S3150FE12610284600F035FD9AE7049800B104600020E2
S3150FE1262005B0BDE8F08F0E9AF15D105D414008F8F7
S3150FE126300710641C04F00F047F1C7047286981079B
S3150FE12640FCD40320A860704710B50A684B688C6804
S3150FE12650C968026003600460016010BD10B50268CD
S3150FE126600368046800680A608C604B60C86010BD3F
S3150FE1267038B504460D46FFF7E7FF05F11001204691
S3150FE12680BDE83440E0E738B504460D46FFF7E6FF0F
S3150FE1269005F110012046BDE83440DFE738B500F01B
S3150FE126A00EF804F10C0104E038B500F008F804F176
S3150FE126B02C011846BDE838402022FEF75FBC8C247A
S3150FE126C00FF2907560430B462C187047F8B500F082
S3150FE126D068F90746294604F58470FFF7C9FF3146C5
S3150FE126E004F58670FFF7C4FF384600F0B3FCDFF858
S3150FE126F0D8062065012161656069000E00F00100D1
S3150FE1270080F00100F2BD2DE9F84F88B004460D4681
S3150FE1271092461E4600F0D4FC834604F5827705F116
S3150FE12720400100F035F904F58678514600F026F9B7
S3150FE1273004F588790AF120014846FFF799FF00F081
S3150FE1274022F900F048FAA065E16504F5847A00F014
S3150FE12750B7FC8346294600F01BF905F1200100F08D
S3150FE1276010F905F140014846FFF782FF00F00BF93A
S3150FE12770DFF85806DFF85816206561650120A06578
S3150FE1278004F5807900F09CFC834606F1400148464A
S3150FE12790FFF779FF69465046FFF775FF00F0F3F84B
S3150FE127A000F08EFC834600F0E8F800F0ECF8DFF875
S3150FE127B02406DFF82416206561650121DFF81C0682
S3150FE127C000F0E8F8804600F0E1F800F02FF9DFF8C5
S3150FE127D01006DFF8101600F020F805463146504690
S3150FE127E0FFF751FF284600F035FC00F069FC05467E
S3150FE127F069463846FFF73CFF284600F02BFCDFF829
S3150FE12800E805DFF8E81500F008F8044600F0B1F83E
S3150FE1281000F0C4F809B0BDE8F08F206561650120CD
S3150FE12820A06500F04DBC2DE9F84F98B000F0B9F86E
S3150FE12830804604F5827700F0A9F800F0F7F8DFF8A3
S3150FE12840B005DFF8B0152065616504F58078DFF82E
S3150FE12850A805FFF7E5FF814608A94046FFF713FFF5
S3150FE12860484600F0F7FB00F02BFC814600F085F8B7
S3150FE12870484600F0EFFBDFF88405DFF884152065A5
S3150FE1288061654FF48670A06504F5867900F018FC52
S3150FE12890824610A94846FFF7F6FE69464046FFF71E
S3150FE128A0F2FE504600F0D6FB00F00AFC824605F137
S3150FE128B0400100F06DF8504600F0CCFBDFF844051F
S3150FE128C020650121616504F5847A00F0F9FB834601
S3150FE128D0294600F056F800F056F8DFF82C05DFF838
S3150FE128E02C15206561650121DFF8240500F052F80A
S3150FE128F0834669465046FFF7BBFE10A94846FFF7E8
S3150FE12900B7FE00F040F8DFF80C05DFF80C1520658F
S3150FE129106165DFF80805FFF783FF8346314604F566
S3150FE129208870FFF7B0FE00F02EF800F0C9FB834682
S3150FE1293000F02CF805F1400100F023F808A948460C
S3150FE12940FFF796FE00F01FF8DFF8D404DFF8D41492
S3150FE129502065616500F0B4FB044606F1400140468F
S3150FE12960FFF791FE00F005F800F018F819B0BDE891
S3150FE12970F08F06F12001484685E62946404677E67F
S3150FE129803146504674E6584600F064BB05F1200126
S3150FE1299038466DE6A065E16500F092BB204600F092
S3150FE129A059BB04460D46164600F08ABB2DE9F041A8
S3150FE129B005460E461C46174620212046FEF71AFB12
S3150FE129C00122226000F07CFB8046394605F58070D6
S3150FE129D0FFF74EFE314605F58270FFF749FE05F525
S3150FE129E0847621463046FFF743FE00F01FF8DFF805
S3150FE129F0380428650BE0DFF83414DFF83404296571
S3150FE12A006865DFF83014DFF83004A965E8656869B1
S3150FE12A10C101F0D500F054FB054621463046FFF7DC
S3150FE12A2032FE2846BDE8F04100F014BB404600F007
S3150FE12A3011BB50F8043B934203D007E050F8042B47
S3150FE12A4022B9091F0129F9DA0120704700207047E1
S3150FE12A502DE9F04188B004460E460E9F154698467D
S3150FE12A6020216846FEF7C6FA012200922021384658
S3150FE12A70FEF7C0FA202107F12000FEF7BBFA20216D
S3150FE12A8007F14000FEF7B6FA8C200FF2C83110FBC2
S3150FE12A9006F68E192046317A00F016FB00202060EB
S3150FE12AA0206360637668761E002E3ADD00F03EF80D
S3150FE12AB0F9D536E0202229463846FEF76FFA20226D
S3150FE12AC005F1200107F12000FEF768FA2022694699
S3150FE12AD007F14000FEF762FA22E03A463946204610
S3150FE12AE0FFF7A1FE00F022F81AD500222021384681
S3150FE12AF0FFF79FFF70B10022202107F12000FFF7BA
S3150FE12B0098FF38B10022202107F14000FFF791FF2E
S3150FE12B100028CFD13B462A4639462046FFF7F3FD3B
S3150FE12B20761E002ED9D508B0BDE8F081301106EB3F
S3150FE12B30D060401158F82010A6EB4010C140CA07EB
S3150FE12B4070472DE9F04104460F461D4616463B46B2
S3150FE12B508C200FF200324343D01890B0017A204611
S3150FE12B6000F0B2FA002222602263626369463846B8
S3150FE12B70FFF794FD08AB6A4606F140012046FFF7E1
S3150FE12B8015FF00F09DFA804608A904F58270FFF75C
S3150FE12B906FFD04F586773146FFF7FAFE06F1200160
S3150FE12BA004F58870FFF764FDFFF740FF00F013F8B7
S3150FE12BB0FFF7F0FE064605F1200104F58070FFF7F9
S3150FE12BC062FD29463846FFF75EFD304600F042FAD0
S3150FE12BD010B0BDE8F081864898492065616501210D
S3150FE12BE09748704738B50D4604462021FEF702FA9D
S3150FE12BF0FFE71F204242295C2244401ED177F9D5D7
S3150FE12C0031BD00002DE9F04F0D0018BF5FEA030853
S3150FE12C10B9B0144603D0429E0EB1002C02DC40F24D
S3150FE12C200160CDE0074600203860386378630C21F8
S3150FE12C30786840F010007860384600F045FA786819
S3150FE12C4020F4406040F40060786011A9786820F4C0
S3150FE12C50407040F4007078600020FFF725FD11AA5F
S3150FE12C6031463846FFF732FD30B911AA06F1200198
S3150FE12C703846FFF72BFD10B140F20260A0E0202CA1
S3150FE12C80C8BF2024202119A8FEF7B4F9002014E0CB
S3150FE12C90221A521E09A99208A4F1010E01EB820133
S3150FE12CA0AEEB000E2B5C0A6C4FEACE0E0EF0180E51
S3150FE12CB003FA0EF31A430A64401CA042E8DB00F064
S3150FE12CC0FFF9044607F5847519A92846FFF7D0FCE5
S3150FE12CD0FFF764FE5B48386507F5807400F0F0F99D
S3150FE12CE0814619A92046FFF7CEFC484600F0B2F916
S3150FE12CF001AB11AA06F120013846FFF757FE00F0A6
S3150FE12D00DFF9834601A907F58270FFF7B1FC07F5F5
S3150FE12D10887919A94846FFF7ABFC07F5867AFFF7DD
S3150FE12D202FFEFFF730FE484848493865796500F0D0
S3150FE12D30C7F9834619A94846FFF7A5FC01A920461D
S3150FE12D40FFF7A1FCFFF71FFE21A800900DF1640329
S3150FE12D5053A200213846FFF77BFE09A8009001AB8D
S3150FE12D60424600213846FFF773FE21AB21AA002127
S3150FE12D703846FFF7E6FE09AB21AA09A93846FFF760
S3150FE12D80C2FC09AB09AA00213846FFF7DAFE00F0CB
S3150FE12D9097F904460C21384600F096F909A9284619
S3150FE12DA0FFF766FCFFF7ECFDFFF7F8FD2848224930
S3150FE12DB0386579657869C1014CBF002040F204603E
S3150FE12DC039B0BDE8F08F00003035DA10D01482CB80
S3150FE12DD01481E11C8CE11C811C84D91C8391D11CCB
S3150FE12DE0E014D8141482E11C84D31482D11CE014AC
S3150FE12DF08AD11C81821CC00C0C0C0100C00C0C8307
S3150FE12E00D91C83D88AD11C83DA0C811482D11C8117
S3150FE12E10C80C0C818CE11CD01484E31482D11C0103
S3150FE12E20D81483D11CC00C0139398401D02484FC18
S3150FE12E301C82FED88B1C81A039380100D91C83D1A5
S3150FE12E401C81E11C30D00C0130E11C8430D91C010E
S3150FE12E503035DA142000000000010000050C0000F7
S3150FE12E60FFFFFFFFFFFFFFFFFFFFFFFF0000000078
S3150FE12E70000000000000000001000000FFFFFFFF5F
S3150FE12E80512563FCC2CAB9F3849E17A7ADFAE6BC16
S3150FE12E90FFFFFFFFFFFFFFFF00000000FFFFFFFF48
S3150FE12EA096C298D84539A1F4A033EB2D817D0377EE
S3150FE12EB0F240A463E5E6BCF847422CE1F2D1176B89
S3150FE12EC0F551BF376840B6CBCE5E316B5733CE2B5C
S3150FE12ED0169E0F7C4AEBE78E9B7F1AFEE242E34F8B
S3150FE12EE010B50A684B688C68C968026003600460B4
S3150FE12EF0016010BD10B502680368046800680A60D6
S3150FE12F008C604B60C86010BD38B504460D46FFF7BF
S3150FE12F10F1FF05F110012046BDE83440EAE72DE95E
S3150FE12F20F84F98B006460C4690469A4600F09DF843
S3150FE12F3005461EB1022E52D051D352E00020286031
S3150FE12F40002169600020E864696821F440616960E5
S3150FE12F502863686354F8201009BA4DF82010401C15
S3150FE12F600828F7D300F0ACF8044605F582766946F2
S3150FE12F703046FFF7B5FF04A93046FFF7B1FF20460C
S3150FE12F8000F068F82F4828650027229C05F5D276D0
S3150FE12F90A74242D218F0030008EB871906D0402268
S3150FE12FA0494608A8FDF7EAFF0DF1200900F088F878
S3150FE12FB08346494600F04CF809F1100100F048F854
S3150FE12FC009F1200100F044F809F1300100F040F871
S3150FE12FD0584600F03FF81C4828657F1CD8E70420C7
S3150FE12FE0ADE71A4816E000F06BF804465146304655
S3150FE12FF0FFF78AFF204600F02DF8284600F040F84B
S3150FE1300000205AF8201009BA4AF82010401C082867
S3150FE13010F7D3002019B0BDE8F08F1AF0030005F5DC
S3150FE130208076E0D000F04CF8044669463046FFF76B
S3150FE130306BFF204600F00EF8202269465046FDF759
S3150FE130409DFFDAE7888AC801070D810180AFFFFF8F
S3150FE13050304645E700B962B670470000890001EBDB
S3150FE13060401101F184410A60704780B5FFE7012203
S3150FE1307000210C48FFF7F2FF0B4802BD00000000EC
S3150FE130800949884208D1002009A101EBC0030022BA
S3150FE1309059680448E2E7704704498842FBD10120A9
S3150FE130A0F2E70000B0400E4000000F4000040F4071
S3150FE130B000000F400000000000040F400100000077
S3150FE130C0EFF3108072B6704742685209042941EA5C
S3150FE130D042120AD9491F022905D9C91E032904D962
S3150FE130E0091F022902D842F0100242607047000020
S3150FE130F038B5174C206840F0080020600123042200
S3150FE1310000F02AF80021009102E00098401C00909F
S3150FE1311000986428F9DB0123022200F01DF8002054
S3150FE1312001E00098401C00900098B0F5FA7FF8DBBB
S3150FE1313008490868012814BF01250025012300224B
S3150FE1314000F00AF8206820F008002060284632BD1A
S3150FE13150B0400E409821144206210520FEF7ADBD81
S3150FE131604FF40170FEF714FD00BF4349434A0120B6
S3150FE1317048641068424A000E09D14AF6E850D06217
S3150FE131800020536B43F004035363D06201E001283F
S3150FE1319003D8106840F4005010603A48026822F4F0
S3150FE131A0401242F488120260086840F480700860A9
S3150FE131B040213548C16002685103FCD40020C04666
S3150FE131C0FEF7E1FCFDF781FBFDF782FBC0B9FDF7E9
S3150FE131D0A5FB0446C046C046002C1ABF40F2037059
S3150FE131E0844240F2012009D040F2057084421CBFAF
S3150FE131F040F206718C4203D140F20320FEF7C8FC80
S3150FE132004FF40170FAE7000038B520480168012450
S3150FE1321001254A050AD5FEF7DDFC40F20221401AE7
S3150FE1322007D0C01E05D0C01E012802D9FFF760FFE7
S3150FE1323008B1002400250420016811F1010F06D120
S3150FE13240BDE832404FF40270FEF796BC31BD25B1B1
S3150FE13250002000F079F80400F2D0002CF6D00C49EA
S3150FE132600020086000221046016881F3088881F387
S3150FE13270098840688746FEE700000E40FC81E00FB3
S3150FE1328064310E4020400E4004300E4004500E4093
S3150FE1329008ED00E02DE9F0410446654800688846EF
S3150FE132A0016916468C4222BF37194269BA4216D3D3
S3150FE132B0E00AB4EBC02004BF204600F0DBF804F5CA
S3150FE132C00065ED0AED0204E0284600F0D3F805F5B6
S3150FE132D00065BD42F8D332464146204630E0BDE8AF
S3150FE132E0F0812DE9F04188465249534B096815465D
S3150FE132F00A689A4222D10E694D4909684A698619C7
S3150FE13300AF19BA421AD310B9086900F0B3F8F10A46
S3150FE13310B6EBC12104BF304600F0ACF806F5006408
S3150FE13320E40AE40204E0204600F0A4F804F50064A0
S3150FE13330BC42F8D32A464146304601E0BDE8F0816A
S3150FE13340BDE8F04100F0CFB858B584B00446684601
S3150FE1335040A11022FDF722FE2268384B6068616BAF
S3150FE1336002F160429A4228D2314A13681A699042B1
S3150FE1337023D3334B984220D2403291420E4601D3AA
S3150FE13380994205D30020C046401E8041C00F1BE085
S3150FE133900020C04698B900F057F8A0B9706990B10E
S3150FE133A002280CD1B069001D011B4FF0FF322046F8
S3150FE133B0FEF7B2FD2349884205D0002004E02046FE
S3150FE133C000F004F800E0012005B050BD50B59FB004
S3150FE133D00446684623A11022FDF7E0FD666B00F077
S3150FE133E033F818B9706901280AD1B669104801682E
S3150FE133F00A69964228BFA64202D31148864201D3F3
S3150FE13400002013E004A8FEF7A1FD321B214604A814
S3150FE13410FEF7A6FD04A8FEF7A5FD06F1200231464B
S3150FE1342004A8FEF72FFE401E8041C00F1FB050BD0E
S3150FE134302808E10F2800E10FAD1007B001000400E5
S3150FE1344001001000E320BBDE102269463046FEF78D
S3150FE13450BFBD000013B779FAC925DDB7ADF3CFE0EC
S3150FE13460F1B614B813B779FAC925DDB7ADF3CFE0E5
S3150FE13470F1B614B810B53B4C41F67131A163226830
S3150FE1348052085200226000F011F9226852080146F3
S3150FE13490520022600020A063481E8041C00F10BD7C
S3150FE134A038B58308800705D54FF6FF7242EA014228
S3150FE134B0009204E041F07F4141F47F01009141F632
S3150FE134C07130284CA063042225686D086D002560D4
S3150FE134D06946980000F027F92268520852002260E7
S3150FE134E00021A16332BD2DE9F04105468846144618
S3150FE134F005F0010104F00100014330D16CB3AA07D5
S3150FE1350007D538F8021B2846FFF7CAFF38BBAD1CB3
S3150FE13510A41E042C1AD3134E41F67130B063A708DB
S3150FE135203168490849003160BF003A4641462846AD
S3150FE1353000F0F9F83168490849003160002279084D
S3150FE13540B26308EB41087D19E41B40B92CB1B8F819
S3150FE1355000102846FFF7A4FF08B9012000E000207C
S3150FE13560BDE8F08108000E4010B57249724A01E0DC
S3150FE1357021B1491E1369DC07FAD411B96FF00200C4
S3150FE1358010BD5060012010601169480702D54FF058
S3150FE13590FF3010BD002010BD2DE9F0410446104665
S3150FE135A00B460022002B41D06FF001056FF00208A8
S3150FE135B06049614FA8B994469C4537D254F8040B3C
S3150FE135C0F8600CF1010C08203860084601E080B381
S3150FE135D0401E3E69F607FAD458B338698007EBD532
S3150FE135E023E0EFF3108072B694460FE03E6906F0E2
S3150FE135F01906102E08BF3E603E693607F6D554F818
S3150FE13600046BFE600CF1010C10263E609C45F3D372
S3150FE1361018B962B601E021B1491E3869C307FAD478
S3150FE1362001B942463869810700D52A461046BDE8F9
S3150FE13630F0814246FAE72DE9F0473D4CA56B81460D
S3150FE1364000202E0418BF6FF001002DD1374D2E68E3
S3150FE136502D68276847F001072760960800271D4662
S3150FE136608A4613E0C8F30A08C8F500684FEA9808D6
S3150FE13670F01B404538BF80462A4641465046FFF784
S3150FE136808BFF01000CD147440AEB880AB74207D2F8
S3150FE1369009EB87084046FFF767FF0100E2D003E039
S3150FE136A02168490849002160BDE8F08770B5204BD4
S3150FE136B09C6B024625041F486FF001012CD11B4C70
S3150FE136C0266824681D6845F001051D609A60012290
S3150FE136D05A605C69620704D500F020F84FF0FF30BD
S3150FE136E070BD02225A605A69D40710D5002818BF57
S3150FE136F0401EF8D10BE00028186804D100F00FF84E
S3150FE137006FF0020070BD00F00AF8002070BD5A6933
S3150FE137109407F0D500F002F8084670BD1868400826
S3150FE13720400018607047002385E7000004300E4023
S3150FE1373008000E40809698000C000E404EF6885118
S3150FE13740CEF20001086840F470000860BFF34F8FB6
S3150FE13750BFF36F8F4FF00070E1EE100A7047000074
S3150FE137600120C046002801D000F00AF8AFF300802F
S3150FE137700020AFF30080FFF7F8FC00F015F800002A
S3150FE1378010B5074979441831064C7C44163404E0E8
S3150FE137900A68081D114488470146A142F8D110BDB8
S3150FE137A0EC0000000801000000F000B807463846BB
S3150FE137B000F002F8FBE7000020210903263118206B
S3150FE137C0ABBEF9E7002070470020704780B5FEF7E2
S3150FE137D0E2FAFFF719FDBDE8014000F000B8AFF3DB
S3150FE137E00080FFF7ABFFFFF7BBFF10B5B1F5BC7F6D
S3150FE137F0044602D240F2052010BD4FF4BC71FDF72D
S3150FE13800F9FB04F1FC0204F1B40104F12400BDE873
S3150FE1381010400023FDF78CBD1CB5009104462146EF
S3150FE1382004F12400FDF7C0FD00281CBF41F207019A
S3150FE138308842C4F874010BD1A07838B1E07810B1A1
S3150FE1384040F2032016BD40F2022016BD40F20120E0
S3150FE1385016BD30B5016884684218416802EB510321
S3150FE13860C9070BD54C4409E012F9011B12F8015BAC
S3150FE13870002904F8015B05D5491CF9D19A42F3D128
S3150FE138800C3030BD491EF1D5F8E70000A7E7FFFF81
S3150FE13890100200001C01002000000000B7FFFFFF2F
S3150FE138A00C0000003C0000008000002081000C00AD
S3150FE138B0F07F10308000002034000140FB000AF059
S3150FE138C0490200800000C0EA21010000000000006B
S503037089
S70500000000FA
