S02B000066697273745F73746167655F62746C5F65666D33326A673132622F52656C656173652F6578652F6610
S3150FE100000F4880F308880F4800470000B505E10F58
S3150FE10010B505E10FB505E10FB505E10FB505E10F42
S3150FE10020B505E10FB505E10FD005E10FB505E10F17
S3150FE10030B505E10FB505E10FB505E10FB505E10F22
S3150FE10040004000206905E10F10B5054C237833B95F
S3150FE10050044B13B10448AFF300800123237010BDA5
S3150FE100601001002000000000E405E10F08B5034B85
S3150FE100701BB103490348AFF3008008BD0000000040
S3150FE1008014010020E405E10F014A024B9A60704723
S3150FE100900000E10F00ED00E0094A0A4BD969C907F3
S3150FE100A005D512B96FF002007047013AF6E7002A5B
S3150FE100B0F8D001221861DA60D86940F38000704701
S3150FE100C08096980000000E4070B509B9002070BD0A
S3150FE100D0C2B90825234B50F8224001329C61224CCC
S3150FE100E0DD60DE69F60705D514B96FF00200EEE7BC
S3150FE100F0013CF6E7002CF8D0DC69A60720D4914243
S3150FE10100E9D1E3E7EFF3108572B600221026154B1E
S3150FE10110DC69240717D550F82240013291429C61E0
S3150FE10120DE60F5D105B962B60E4A0F4B1146D069BD
S3150FE10130C40711D573B96FF00200CB699B07C6D51A
S3150FE101406FF00100C3E7DC6904F01904102C08BF56
S3150FE10150DC60DDE7013BEAE7002B0CBF6FF0020045
S3150FE101600020EAE700000E40809698002DE9F8435B
S3150FE1017099461B4B80461C6C0F46A4B264BB1949CA
S3150FE10180960848684968996841F001019960B44257
S3150FE1019007D30020124A936823F001039360BDE869
S3150FE101A0F88308EB84052846FFF776FF0028F6D19A
S3150FE101B0C5F30A05C5F50065AD08331B9D4228BF9A
S3150FE101C01D464A4629463846FFF77EFF0028E1D10C
S3150FE101D02C4407EB8507DAE76FF00100DFE700BF95
S3150FE101E000000E4000300E40184B1A6C92B21ABB4B
S3150FE101F0174A516852689A6842F001029A600122E1
S3150FE102001861DA60DA69520706D59A684FF0FF305E
S3150FE1021022F001029A6070470222DA601A460D490E
S3150FE10220D869C00700D551B9D069936810F00200BB
S3150FE1023023F00103936004D06FF001007047013999
S3150FE10240EEE711B96FF002007047704700000E40FC
S3150FE1025000300E40809698000023FFF787BF00001D
S3150FE1026008B5094B1A68094B1A604022084B1A6107
S3150FE102705A685203FCD400F077F80028FBD040F21D
S3150FE10280022000F0ABF800BF0401002000010020BE
S3150FE1029000300E4010B50F4B0F4CA36000F0BEF8C7
S3150FE102A00E4B5B68B3F5803F09D040F209239842C4
S3150FE102B002D0B0F5007F02D100F014F848B9084B2F
S3150FE102C0A3601A6882F3088882F309885B68984706
S3150FE102D0FEE710BD0000E10F00ED00E000500E401B
S3150FE102E00008E10FF8B51C4B1A681069D568836AE7
S3150FE102F0AB4201D20020F8BD05F510429A42F9D979
S3150FE103005B1BC758C618154B9F42F3D14FF0FF320F
S3150FE10310F16800F00DF9124B04469842EAD1114B00
S3150FE103201B68A3F17E62A2F58432B2F5104F10D2AB
S3150FE103301A68BA420DD1B1689A68914209D84FF05D
S3150FE10340FF32D968284600F0F3F8001B18BF0120E9
S3150FE10350D1E70120CFE700BF2800E10F07B0CD5E5F
S3150FE10360E320BBDE2808E10FF8B5184B1B68D3E98C
S3150FE1037003472646BB6A1B1BFD18EA68A318B3425F
S3150FE103801CD83946204600F09BF8B0B1104B1B68DC
S3150FE10390A3F17E62A2F58432B2F5104F14D2196839
S3150FE103A00C4A914210D1D9684FF0FF32204600F046
S3150FE103B0BFF8094BC31A58425841F8BD304600F011
S3150FE103C074F806F50066D8E70020F6E72800E10F96
S3150FE103D02808E10F07B0CD5EE320BBDE4FF00053F7
S3150FE103E04FF20F025A800A4A1880136823F4E0632A
S3150FE103F043F480631360BFF34F8F0649064BCA6818
S3150FE1040002F4E0621343CB60BFF34F8F00BFFDE70A
S3150FE1041000500E4000ED00E00400FA054FF00053E6
S3150FE104204FF20F015A888A4201D1188870473AB9BB
S3150FE104301B8840F20220012B18BF4FF40070704762
S3150FE104404FF400707047000041F67132034B1A64A6
S3150FE104509A6822F001029A60704700BF00000E40D1
S3150FE10460034B9A6822F001029A6000221A647047E0
S3150FE1047000000E4003469B0707B555BF6FEA0141E2
S3150FE104804FF6FF736FEA114143EA0141019120F003
S3150FE104900300FFF7D9FF04220DEB0201FFF7DCFEA4
S3150FE104A0FFF7DEFF03B05DF804FB08B5FFF7CCFFFE
S3150FE104B0FFF79AFEFFF7D4FFB0FA80F0400908BDC7
S3150FE104C0F8B540EA02031446DA0705460E4601D5AA
S3150FE104D00020F8BD0CB90120FBE7830725D5098874
S3150FE104E0FFF7C8FF0028F3D1023C032C05F1020503
S3150FE104F006F102060FD924F00307FFF7A5FF3A46E7
S3150FE1050031462846FFF7A8FEFFF7AAFF0028DFD1FD
S3150FE105103E443D44E41B002CDDD031882846FFF7ED
S3150FE10520A9FFB0FA80F04009D3E7032CE3D8F4E74B
S3150FE1053010B50B4C0144D4F8B03043F04003C4F886
S3150FE10540B0300124074B1C609A601A465C60884202
S3150FE1055001D1D86910BD10F8014B9461F7E700BFDF
S3150FE1056000400E4000C001400B4880470B488047D2
S3150FE105700B490C4A0C4B9A42BEBF51F8040B42F899
S3150FE10580040BF8E709490A4A00209142BCBF41F83A
S3150FE10590040BFAE7FFF764FE8900E10F9502E10F1D
S3150FE105A0E805E10F000100201001002010010020F5
S3150FE105B02C010020FEE700BFF8B500BFF8BC08BC70
S3150FE105C09E467047F8B500BFF8BC08BC9E4670471B
S3150FE105D0AD1007B001000000000007010008E10FB0
S30D0FE105E000800000000000009D
S3150FE105E8C0EA2101C0EA21016D00E10F4900E10FDF
S7050FE105699C
