S02B000066697273745F73746167655F62746C5F65666D333267673131622F52656C656173652F6578652F6614
S3150FE100000F4880F308880F4800470000BD05E10F50
S3150FE10010BD05E10FBD05E10FBD05E10FBD05E10F22
S3150FE10020BD05E10FBD05E10FD805E10FBD05E10FF7
S3150FE10030BD05E10FBD05E10FBD05E10FBD05E10F02
S3150FE10040004000207105E10F10B5054C237833B957
S3150FE10050044B13B10448AFF300800123237010BDA5
S3150FE100601001002000000000EC05E10F08B5034B7D
S3150FE100701BB103490348AFF3008008BD0000000040
S3150FE1008014010020EC05E10F044B054A9A60D3F801
S3150FE10090882042F47002C3F88820704700ED00E033
S3150FE100A00000E10F0A4A4FF08043D969C90705D528
S3150FE100B012B96FF002007047013AF6E7002AF8D05D
S3150FE100C001221861DA60D86940F38000704700BFFA
S3150FE100D08096980070B509B9002070BDCAB94FF086
S3150FE100E08043082550F822409C61234CDD600132A4
S3150FE100F0DE69F60705D514B96FF00200EDE7013CAD
S3150FE10100F6E7002CF8D0DC69A60722D49142E9D1B3
S3150FE10110E2E7EFF3108572B600224FF08043102627
S3150FE10120DC69240718D550F822409C6101329142CF
S3150FE10130DE60F5D105B962B64FF080420E4B11463E
S3150FE10140D069C40711D573B96FF00200CB699B076C
S3150FE10150C3D56FF00100C0E7DC6904F01904102C78
S3150FE1016008BFDC60DCE7013BEAE7002B0CBF6FF071
S3150FE1017002000020EAE700BF809698002DE9F843D8
S3150FE1018099464FF0804380461C6CA4B20F466CBB78
S3150FE10190184948684968996841F0010199609608DC
S3150FE101A0B44208D300204FF08042936823F0010355
S3150FE101B09360BDE8F88308EB84052846FFF772FFE5
S3150FE101C00028F6D1C5F30B05C5F58055AD08331BF0
S3150FE101D09D4228BF1D464A4629463846FFF77AFF14
S3150FE101E00028E0D12C4407EB8507D9E76FF0010032
S3150FE101F0DFE700BF00300E404FF080431A6C92B23A
S3150FE102001ABB174A516852689A6842F001029A601E
S3150FE1021001221861DA60DA69520706D59A6822F087
S3150FE1022001029A604FF0FF30704702220D49DA6002
S3150FE102301A46D869C00700D551B9D069936810F04D
S3150FE10240020023F00103936004D06FF001007047C1
S3150FE102500139EEE711B96FF002007047704700BF41
S3150FE1026000300E40809698000023FFF787BF00000D
S3150FE1027008B5094B1A68094B1A60094B40221A61F6
S3150FE102805A685203FCD400F077F80028FBD040F20D
S3150FE10290022000F0ABF800BF0401002000010020AE
S3150FE102A000300E4010B50F4C0F4BA36000F0BEF8B7
S3150FE102B00E4B5B68B3F5803F09D040F209239842B4
S3150FE102C002D0B0F5007F02D100F014F848B9084B1F
S3150FE102D0A3601A6882F3088882F309885B689847F6
S3150FE102E0FEE710BD00ED00E00000E10F00500E400B
S3150FE102F00010E10FF8B51C4B1A681069D568836ACF
S3150FE10300AB4201D20020F8BD05F5E0429A42F9D998
S3150FE103105B1BC618C758154B9F42F3D14FF0FF32FF
S3150FE10320F16800F009F9124B98420446EAD1114BF4
S3150FE103301B6803F1F02202F5F012B2F5E04F10D28D
S3150FE103401A68BA420DD1B1689A68914209D84FF04D
S3150FE10350FF32D968284600F0EFF8001B18BF0120DD
S3150FE10360D1E70120CFE700BF2800E10F07B0CD5E4F
S3150FE10370E320BBDE2810E10FF8B5184B1B68D3E974
S3150FE103800347BB6A1B1BFD182646EA68A318B3424F
S3150FE103901CD83946204600F097F8B0B1104B1B68D0
S3150FE103A003F1F02202F5F012B2F5E04F14D219681B
S3150FE103B00C4A914210D1D9684FF0FF32204600F036
S3150FE103C0BBF8094BC31A58425841F8BD304600F005
S3150FE103D070F806F58056D8E70020F6E72800E10F1A
S3150FE103E02810E10F07B0CD5EE320BBDE4FF00053DF
S3150FE103F04FF20F025A800A4A1880136823F4E0631A
S3150FE1040043F480631360BFF34F8F0649064BCA6807
S3150FE1041002F4E0621343CB60BFF34F8F00BFFDE7FA
S3150FE1042000500E4000ED00E00400FA054FF00053D6
S3150FE104304FF20F015A888A4201D1188870473AB9AB
S3150FE104401B88012B40F2022018BF4FF40070704752
S3150FE104504FF4007070474FF0804341F671321A64E2
S3150FE104609A6822F001029A6070474FF080439A68CA
S3150FE1047022F001029A6000221A64704707B503461B
S3150FE104809B0753BF6FEA01414FF6FF7343EA014101
S3150FE104906FEA1141019120F00300FFF7DCFF04221F
S3150FE104A00DEB0201FFF7E0FEFFF7DFFF03B05DF8AB
S3150FE104B004FB08B5FFF7CFFFFFF79EFEFFF7D5FF6A
S3150FE104C0B0FA80F0400908BDF8B540EA02031446D8
S3150FE104D0DA0705460E4601D50020F8BD0CB9012015
S3150FE104E0FBE7830725D50988FFF7C8FF0028F3D176
S3150FE104F0023C032C05F1020506F102060FD924F0A1
S3150FE105000307FFF7A8FF3A4631462846FFF7ACFE49
S3150FE10510FFF7ABFF0028DFD13E443D44E41B002C3F
S3150FE10520DDD031882846FFF7A9FFB0FA80F0400900
S3150FE10530D3E7032CE3D8F4E710B50B4CD4F8B0307E
S3150FE1054043F48073C4F8B030084B01241C600144B6
S3150FE105509A605C601A46884201D1D86910BD10F8DD
S3150FE10560014B9461F7E700BF00400E4000C0014028
S3150FE105700B4880470B4880470B490C4A0C4B9A4274
S3150FE10580BEBF51F8040B42F8040BF8E709490A4AD2
S3150FE1059000209142BCBF41F8040BFAE7FFF768FE72
S3150FE105A08900E10FA502E10FF005E10F000100203F
S3150FE105B010010020100100202C010020FEE700BFF2
S3150FE105C0F8B500BFF8BC08BC9E467047F8B500BF4A
S3150FE105D0F8BC08BC9E467047AD1007B0010000009D
S3150FE105E0000007010010E10F00800000000000008D
S3150FE105F0C0EA2101C0EA21016D00E10F4900E10FD7
S7050FE1057194
