S02B000066697273745F73746167655F62746C5F6566783332786731312F52656C656173652F6578652F6669F1
S315000000000020002081050000CD050000CD05000080
S31500000010CD050000CD050000CD050000CD05000092
S31500000020CD050000CD050000E8050000CD05000067
S31500000030CD050000CD050000CD050000CD05000072
S3150000004010B5054C237833B9044B13B10448AFF30C
S3150000005000800123237010BD100100200000000065
S31500000060FC05000008B5034B1BB103490348AFF379
S31500000070008008BD0000000014010020FC050000FF
S315000000800E4B0F4A9A60D3F8882042F47002C3F8E8
S3150000009088200C4B5A6D42F400525A651A6C22F0B5
S315000000A003021A64084A136823F00103136052F826
S315000000B0143C23F0805342F8143C704700ED00E0F6
S315000000C00000000000300E4074300E40094A0A4B12
S315000000D0D969C90705D512B96FF002007047013A10
S315000000E0F6E7002AF8D001221861DA60D86940F3F1
S315000000F0800070478096980000000E4070B509B9E0
S31500000100002070BDC2B9244B082550F822409C61DE
S31500000110224CDD600132DE69F60705D514B96FF0B1
S315000001200200EEE7013CF6E7002CF8D0DC69A607F2
S3150000013020D49142E9D1E3E7EFF3108572B6164B6E
S3150000014000221026DC69240717D550F822409C614E
S3150000015001329142DE60F5D105B962B60E4A0F4B07
S315000001601146D069C40711D573B96FF00200CB6987
S315000001709B07C6D56FF00100C3E7DC6904F01904DC
S31500000180102C08BFDC60DDE7013BEAE7002B0CBF63
S315000001906FF002000020EAE700000E40809698000B
S315000001A02DE9F0479946214B1C6CA4B280460F46B8
S315000001B0002C38D1996841F0010199609608BA4639
S315000001C0B44215D30020D8F800203B689A4208D0E4
S315000001D04046FFF77BFF20B94A4601213846FFF724
S315000001E08DFF124A936823F001039360BDE8F08700
S315000001F008EB84052846FFF769FF0028F6D1C5F30A
S315000002000A05C5F50065AD08331B9D4228BF1D468E
S315000002104A4629465046FFF771FF0028D3D12C44A1
S315000002200AEB850ACCE76FF00100DFE700000E401D
S31500000230174B1A6C92B202BB9A6842F001029A609E
S3150000024001221861DA60DA69520706D59A6822F047
S3150000025001029A604FF0FF30704702220D49DA60C2
S315000002601A46D869C00700D551B9D069936810F00D
S31500000270020023F00103936004D06FF00100704781
S315000002800139EEE711B96FF002007047704700BF01
S3150000029000000E40809698000023FFF781BF000003
S315000002A008B5064B1A68064B1A6000F06DF8002870
S315000002B0FBD040F2022000F09DF800BF04010020B0
S315000002C00001002010B5104C0023A36000F0B2F826
S315000002D00E4B5B68B3F5803F09D040F20923984284
S315000002E002D0B0F5007F02D100F012F850B94FF4F9
S315000002F00063A3601A6882F3088882F309885B6842
S315000003009847FEE710BD00BF00ED00E000500E402C
S31500000310F8B528231A681069D568836AAB4201D2FA
S315000003200020F8BD05F560529A42F9D95B1BC61844
S31500000330C758134B9F42F3D14FF0FF32F16800F0DC
S3150000034003F9104B98420446EAD140F628031B688D
S31500000350A3F50062B2F5605F10D21A68BA420DD1F9
S31500000360B1689A68914209D84FF0FF32D968284699
S3150000037000F0EAF8001B18BF0120D2E70120D0E701
S3150000038007B0CD5EE320BBDEF8B528231B68D3E9B2
S315000003900347BB6A1B1BFD182646EA68A318B3422F
S315000003A01BD83946204600F097F8A8B140F6280336
S315000003B01B68A3F50062B2F5605F14D219680B4A98
S315000003C0914210D1D9684FF0FF32204600F0BCF8B8
S315000003D0074BC31A58425841F8BD304600F071F831
S315000003E006F50066D9E70020F6E700BF07B0CD5E48
S315000003F0E320BBDE4FF000534FF20F025A800A4A49
S315000004001880136823F4E06343F480631360BFF33A
S315000004104F8F0649064BCA6802F4E0621343CB606D
S31500000420BFF34F8F00BFFDE700500E4000ED00E028
S315000004300400FA054FF000534FF20F015A888A4222
S3150000044001D1188870473AB91B88012B40F2022067
S3150000045018BF4FF4007070474FF4007070470000EB
S31500000460044B41F671321A649A6822F001029A60CE
S31500000470704700BF00000E40034B9A6822F001024D
S315000004809A6000221A64704700000E4007B50346C2
S315000004909B0753BF6FEA01414FF6FF7343EA0141E1
S315000004A06FEA1141019120F00300FFF7D9FF042202
S315000004B00DEB0201FFF7F0FEFFF7DEFF03B05DF87C
S315000004C004FB08B5FFF7CCFFFFF7B2FEFFF7D4FF3A
S315000004D0B0FA80F0400908BDF8B540EA02031446B8
S315000004E0DA0705460E4601D50020F8BD0CB90120F5
S315000004F0FBE7830725D50988FFF7C8FF0028F3D156
S31500000500023C032C05F1020506F102060FD924F080
S315000005100307FFF7A5FF3A4631462846FFF7BCFE1C
S31500000520FFF7AAFF0028DFD13E443D44E41B002C20
S31500000530DDD031882846FFF7A9FFB0FA80F04009E0
S31500000540D3E7032CE3D8F4E710B50B4CD4F8B0305E
S3150000055043F02003C4F8B030084B01241C6001446A
S315000005609A605C601A46884201D1D86910BD10F8BD
S31500000570014B9461F7E700BF00400E4000C0014008
S315000005800B4880470B4880470B490C4A0C4B9A4254
S31500000590BEBF51F8040B42F8040BF8E709490A4AB2
S315000005A000209142BCBF41F8040BFAE7FFF778FE42
S315000005B081000000C50200000006000000010020C6
S315000005C010010020100100202C010020FEE700BFD2
S315000005D0F8B500BFF8BC08BC9E467047F8B500BF2A
S315000005E0F8BC08BC9E467047AD1007B0010000007D
S315000005F00000070100080000008000000000000065
S31500000600C0EA2101C0EA21016500000041000000A6
S7050000058174
