S02B000066697273745F73746167655F62746C5F65666D333274673131622F52656C656173652F6578652F6607
S3150FE100000F4880F308880F4800470000FD05E10F10
S3150FE10010FD05E10FFD05E10FFD05E10FFD05E10F22
S3150FE10020FD05E10FFD05E10F1806E10FFD05E10FF6
S3150FE10030FD05E10FFD05E10FFD05E10FFD05E10F02
S3150FE1004000400020B105E10F10B5064C2378002BD7
S3150FE1005007D1054B002B02D0044800E000BF012376
S3150FE10060237010BD10010020000000002C06E10FE7
S3150FE10070044B10B5002B03D00349044800E000BF41
S3150FE1008010BDC04600000000140100202C06E10F50
S3150FE10090014A024B9A6070470000E10F00ED00E064
S3150FE100A08023012110B50A4ADB05DC690C4205D034
S3150FE100B0002A01D1032008E0013AF6E7002AF9D038
S3150FE100C01861D960D86980080840404210BDC04622
S3150FE100D080969800F0B5002901D10020F0BD002AE5
S3150FE100E01BD1802401260227E4059300C358013270
S3150FE100F0A3610823E360224BE569354205D0002B66
S3150FE1010001D103203AE0013BF6E7002BF9D0E36991
S3150FE101103B4232D19142E8D1DFE7EFF3108572B678
S3150FE101208022002408261927D205D369334217D036
S3150FE10130A300C358013493611023D360A142F4D1D4
S3150FE10140002D00D162B68022D205012411000C4B9D
S3150FE10150D06920400CD0002B08D10320404209E0A2
S3150FE10160D3693B40102BE0D1D360DEE7013BEFE7EC
S3150FE10170002BF2D0CB699B07B0D502204042ADE709
S3150FE1018080969800F7B501938023DB051D6C0090EF
S3150FE10190ADB20E00002D2ED118499708486849686F
S3150FE101A00121986801439960BD4207D3002080225F
S3150FE101B00121D20593688B439360FEBD009BAC0092
S3150FE101C01C192000FFF76CFF0028F6D18023640588
S3150FE101D0640D1B011B1B9B087C1B9C4200D91C0059
S3150FE101E0019A21003000FFF775FF0028DFD12D19A5
S3150FE101F0A4003619D8E702204042DEE700300E4070
S3150FE102008023DB051A6C10B592B2002A24D1164A67
S3150FE102105168526801229968114399601861DA6051
S3150FE10220D969490705D501209968914399604042FB
S3150FE1023010BD0221D96011001A000C4CD869084291
S3150FE1024001D0002C0AD102230121D069184093680D
S3150FE102508B439360002803D00220E8E7013CEDE7EA
S3150FE10260002CE5D10320E2E700300E40809698009E
S3150FE1027010B50023FFF786FF10BD0000094B10B53F
S3150FE102801A68094B1A604022084B1A618022D20282
S3150FE1029059681142FCD100F07FF80028FBD00448E1
S3150FE102A000F0B8F8040100200001002000300E40F4
S3150FE102B00202000010B5104B104CA36000F0CAF813
S3150FE102C00F4B5A6880235B029A4209D00D4B984235
S3150FE102D002D0093B984203D100F018F8002809D162
S3150FE102E0094BA3601A6882F3088882F309885B6871
S3150FE102F09847FEE710BDC0460000E10F00ED00E0B4
S3150FE1030000500E40090200000008E10F1B4B70B5CB
S3150FE103101B681869DD68846AAC4201D2002070BDA2
S3150FE103208023DB01EB18A342F8D9641B0419144BA4
S3150FE1033026689E42F2D10122E168524200F020F98D
S3150FE10340104B9842EAD1104B104A1B6801209918BD
S3150FE103500F4A9142E3D81A68B242E0D1A26899688E
S3150FE103608A42DCD80122D9685242280000F008F906
S3150FE10370084BC018431E9841C0B2D0E72800E10FE1
S3150FE1038007B0CD5EE320BBDE2808E10F00F81EF0D3
S3150FE10390FF3F00001DDF4421F8B5184B1B68DC68F1
S3150FE103A01F692600BB6A1D1B7D19EA68A318B342B4
S3150FE103B01DD83900200000F0A9F8002816D0104BFF
S3150FE103C0104A1B68002099180F4A91420ED80F4A1E
S3150FE103D0196891420AD10122D9685242200000F0F0
S3150FE103E0CFF80B4BC01843425841C0B2F8BD3000AD
S3150FE103F000F07EF880231B01F618D6E72800E10FFF
S3150FE104002808E10F00F81EF0FF3F000007B0CD5EB0
S3150FE104101DDF442180230A490A4A9B055A80188029
S3150FE10420094A0B681A408023DB0013430B60BFF3C5
S3150FE104304F8F064B064ADA60BFF34F8FC046FDE793
S3150FE1044000500E400FF0FFFFFFF8FFFF00ED00E059
S3150FE104500400FA0580239B055A880A498A4201D18D
S3150FE1046018887047002A09D118880138431E984128
S3150FE10470012340429843044BC018F2E780208000E5
S3150FE10480EFE7C0460FF000000202000080230121D2
S3150FE10490034ADB051A649A688A439A607047C04635
S3150FE104A0711B000080230121DB059A688A439A605C
S3150FE104B000221A647047000013B5032304009C431E
S3150FE104C083070FD5084B090419430191FFF7DEFFA7
S3150FE104D0042201A92000FFF7CBFE0400FFF7E2FF9C
S3150FE104E0200016BD014BEFE7FFFF00000000FFFF05
S3150FE104F010B50400FFF7CAFF2000FFF781FE0400E5
S3150FE10500FFF7D0FF60426041C0B210BD0300134355
S3150FE10510F7B505000F001400DB0701D50020FEBD7E
S3150FE10520002A01D10120FAE7830726D50988FFF7CB
S3150FE10530C3FF0028F2D1023C02350237032C12D950
S3150FE10540032326009E43FFF7A1FF3200390028005F
S3150FE10550FFF78EFE0190FFF7A5FF019B002BDDD183
S3150FE10560BF19AD19A41B002CDCD039882800FFF781
S3150FE10570A3FF43425841C0B2D1E7032AE0D8F4E7DB
S3150FE10580202330B5084C411825682B4323600124FD
S3150FE10590064B1C609A605C60884201D1D86930BD18
S3150FE105A0027801309A61F7E7B0400E4000C0014092
S3150FE105B00B4880470B4880470B490C4A0C4B9B1A5B
S3150FE105C003DD043BC858D050FBDC0A490A4A002038
S3150FE105D0521A02DD043A8850FCDCFFF74FFE0000A9
S3150FE105E09100E10FB502E10F3006E10F00010020A6
S3150FE105F010010020100100202C010020FEE7C0466B
S3150FE10600F8B5C046F8BC08BC9E467047F8B5C0467B
S3150FE10610F8BC08BC9E467047AD1007B0010000005C
S3150FE10620000007010008E10F008000000000000054
S3150FE10630C0EA2101C0EA21017100E10F4900E10F92
S7050FE105B154
