S02B000066697273745F73746167655F62746C5F6566783332786731332F52656C656173652F6578652F6669EF
S3150FE100000F4880F308880F4800470000C105E10F4C
S3150FE10010C105E10FC105E10FC105E10FC105E10F12
S3150FE10020C105E10FC105E10FDC05E10FC105E10FE7
S3150FE10030C105E10FC105E10FC105E10FC105E10FF2
S3150FE10040004000207505E10F10B5054C237833B953
S3150FE10050044B13B10448AFF300800123237010BDA5
S3150FE100601001002000000000F005E10F08B5034B79
S3150FE100701BB103490348AFF3008008BD0000000040
S3150FE1008014010020F005E10F044B054A9A60D3F8FD
S3150FE10090882042F47002C3F88820704700ED00E033
S3150FE100A00000E10F094A0A4BD969C90705D512B90B
S3150FE100B06FF002007047013AF6E7002AF8D0012205
S3150FE100C01861DA60D86940F380007047809698002E
S3150FE100D000000E4070B509B9002070BDC2B9244BBE
S3150FE100E0082550F822409C61224CDD600132DE6921
S3150FE100F0F60705D514B96FF00200EEE7013CF6E716
S3150FE10100002CF8D0DC69A60720D49142E9D1E3E7C8
S3150FE10110EFF3108572B6164B00221026DC69240721
S3150FE1012017D550F822409C6101329142DE60F5D13C
S3150FE1013005B962B60E4A0F4B1146D069C40711D500
S3150FE1014073B96FF00200CB699B07C6D56FF001005B
S3150FE10150C3E7DC6904F01904102C08BFDC60DDE7A6
S3150FE10160013BEAE7002B0CBF6FF002000020EAE744
S3150FE1017000000E40809698002DE9F84399461B4BF7
S3150FE101801C6CA4B280460F4664BB1949486849689E
S3150FE10190996841F0010199609608B44207D30020AE
S3150FE101A0124A936823F001039360BDE8F88308EBE5
S3150FE101B084052846FFF776FF0028F6D1C5F30A0531
S3150FE101C0C5F50065AD08331B9D4228BF1D464A465E
S3150FE101D029463846FFF77EFF0028E1D12C4407EB8D
S3150FE101E08507DAE76FF00100DFE700BF00000E4099
S3150FE101F000300E40184B1A6C92B21ABB174A51686F
S3150FE1020052689A6842F001029A6001221861DA6037
S3150FE10210DA69520706D59A6822F001029A604FF021
S3150FE10220FF30704702220E49DA601A46D869C007D5
S3150FE1023000D551B9D069936810F0020023F001039C
S3150FE10240936004D06FF0010070470139EEE711B901
S3150FE102506FF002007047704700000E4000300E400D
S3150FE10260809698000023FFF787BF000008B5094B7A
S3150FE102701A68094B1A60094B40221A615A685203F0
S3150FE10280FCD400F077F80028FBD040F2022000F012
S3150FE10290ABF800BF040100200001002000300E4042
S3150FE102A010B50F4C0F4BA36000F0BEF80E4B5B6819
S3150FE102B0B3F5803F09D040F20923984202D0B0F559
S3150FE102C0007F02D100F014F848B9084BA3601A6811
S3150FE102D082F3088882F309885B689847FEE710BDC9
S3150FE102E000ED00E00000E10F00500E400008E10FC5
S3150FE102F0F8B51C4B1A681069D568836AAB4201D20F
S3150FE103000020F8BD05F560529A42F9D95B1BC61874
S3150FE10310C758154B9F42F3D14FF0FF32F16800F00A
S3150FE103200DF9124B98420446EAD1114B1B68A3F122
S3150FE103307E62A2F58432B2F5605F10D21A68BA42D4
S3150FE103400DD1B1689A68914209D84FF0FF32D96859
S3150FE10350284600F0F3F8001B18BF0120D1E7012072
S3150FE10360CFE700BF2800E10F07B0CD5EE320BBDE8C
S3150FE103702808E10FF8B5184B1B68D3E90347BB6AA9
S3150FE103801B1BFD182646EA68A318B3421CD839464B
S3150FE10390204600F09BF8B0B1104B1B68A3F17E62CB
S3150FE103A0A2F58432B2F5605F14D219680C4A914214
S3150FE103B010D1D9684FF0FF32204600F0BFF8094B54
S3150FE103C0C31A58425841F8BD304600F074F806F5A5
S3150FE103D00066D8E70020F6E72800E10F2808E10FCD
S3150FE103E007B0CD5EE320BBDE4FF000534FF20F02B5
S3150FE103F05A800A4A1880136823F4E06343F4806352
S3150FE104001360BFF34F8F0649064BCA6802F4E062E9
S3150FE104101343CB60BFF34F8F00BFFDE700500E4094
S3150FE1042000ED00E00400FA054FF000534FF20F0123
S3150FE104305A888A4201D1188870473AB91B88012B2D
S3150FE1044040F2022018BF4FF4007070474FF400706E
S3150FE1045070470000044B41F671321A649A6822F034
S3150FE1046001029A60704700BF00000E40034B9A6885
S3150FE1047022F001029A6000221A64704700000E40D2
S3150FE1048007B503469B0753BF6FEA01414FF6FF736B
S3150FE1049043EA01416FEA1141019120F00300FFF7B1
S3150FE104A0D9FF04220DEB0201FFF7DCFEFFF7DEFFBA
S3150FE104B003B05DF804FB08B5FFF7CCFFFFF79AFE33
S3150FE104C0FFF7D4FFB0FA80F0400908BDF8B540EA6E
S3150FE104D002031446DA0705460E4601D50020F8BD9C
S3150FE104E00CB90120FBE7830725D50988FFF7C8FF7C
S3150FE104F00028F3D1023C032C05F1020506F10206B1
S3150FE105000FD924F00307FFF7A5FF3A4631462846F0
S3150FE10510FFF7A8FEFFF7AAFF0028DFD13E443D44CF
S3150FE10520E41B002CDDD031882846FFF7A9FFB0FA8E
S3150FE1053080F04009D3E7032CE3D8F4E710B50B4C71
S3150FE10540D4F8B03043F04003C4F8B030084B01247F
S3150FE105501C6001449A605C601A46884201D1D869F1
S3150FE1056010BD10F8014B9461F7E700BF00400E4054
S3150FE1057000C001400B4880470B4880470B490C4AA6
S3150FE105800C4B9A42BEBF51F8040B42F8040BF8E745
S3150FE1059009490A4A00209142BCBF41F8040BFAE728
S3150FE105A0FFF764FE8900E10FA102E10FF405E10F08
S3150FE105B00001002010010020100100202C01002075
S3150FE105C0FEE700BFF8B500BFF8BC08BC9E46704712
S3150FE105D0F8B500BFF8BC08BC9E467047AD1007B032
S3150FE105E001000000000007010008E10F0080000094
S3090FE105F00000000011
S3150FE105F4C0EA2101C0EA21016D00E10F4900E10FD3
S7050FE1057590
